:100000000C94F6000C94AB020C9433030C94130183
:100010000C9413010C9413010C9413010C94130110
:100020000C9413010C9413010C9413010C94130100
:100030000C9413010C9413010C9413010C941301F0
:100040000C9413010C9413010C9413010C941301E0
:100050000C9413010C9413010C9413010C941301D0
:100060000C9413010C9413010C9413010C941301C0
:1000700000000000005C00000C000C007C287C28C4
:1000800058DC68002410480028542840000C000068
:10009000007884008478000054385400107C1000EC
:1000A00080400000101010000040000060100C00A4
:1000B00038543800487C40004864580044542C00B0
:1000C0001C107C005C5424003854240064140C0080
:1000D00068542C0048543800004800008048000054
:1000E0001028440028282800442810000454080040
:1000F00038445C00781478007C5428003844280088
:100100007C4438007C5444007C140400384474005F
:100110007C107C00447C440020403C007C106C003F
:100120007C4040007C187C0078103C00384438004B
:100130007C1408003844B8007C146800485424003B
:10014000047C04007C407C003C603C007C307C00F3
:100150006C106C000C700C0064544C00007C44006B
:100160000C106000447C00000804080080808000BF
:1001700000040800304878007C48300030484800CF
:1001800030487C00306850001078140090A8780047
:100190007C08700050744000808074007C106800FF
:1001A000447C4000781078007808700030483000B7
:1001B000F82810003048F80078100800505828003F
:1001C000083C4800384078003840380078207800F3
:1001D0004830480098A0780048685800107884009B
:1001E000007C0000847810000804080411241FBE5D
:1001F000CFEFD4E0DEBFCDBF12E0A0E0B1E0EAE592
:10020000F3E102C005900D92A635B107D9F722E0BF
:10021000A6E5B2E001C01D92A63DB207E1F70E943B
:100220008D040C94AB090C9400000E940A024FEF5D
:1002300060E680E60E94E80140E064E080E60E941B
:10024000E80145E065E08BE20E94E80140E060EEF5
:100250008FE00E94E80108958F929F92AF92BF9223
:10026000CF92DF92EF92FF920F931F93CF93DF9382
:10027000CDB7DEB762970FB6F894DEBF0FBECDBF25
:1002800089829A82AB82BC82CD82DE82EF82F8863E
:1002900009871A872B873C874D875E876F87788B06
:1002A000898B9A8BC92C80E30E94B50183FDFBCF1B
:1002B000682D6295660F607E82E30E94C701682DFB
:1002C00066956695669581E30E94C7016C2D85E36E
:1002D0000E94C701D12C1C141D04A4F47E0183E0EC
:1002E000E80EF11C00E010E0F7016081F2E0EF0E93
:1002F000F11C86E3800F0E94C7010F5F1F4F0C1592
:100300001D0594F381E00E94DB0162960FB6F8941C
:10031000DEBF0FBECDBFDF91CF911F910F91FF9038
:10032000EF90DF90CF90BF90AF909F908F90089507
:1003300085E0809300148DE08A95F1F70000E0E0FD
:10034000F4E1808190E0909359028093580284E018
:1003500080838DE08A95F1F700008091001490E091
:1003600090935B0280935A020895CF93C82F0E9406
:100370000F0583E00E9402058C2F0E9402050E9457
:100380000605C82F0E940D058C2FCF910895CF939D
:10039000DF93D82FC62F0E940F0582E00E9402052E
:1003A0008D2F0E9402058C2F0E9402050E940D05D0
:1003B000DF91CF910895CF93C82F0E940F058C2F06
:1003C000877080580E9402050E940D05CF91089504
:1003D0001F93CF93DF93182FD62FC42F0E940F05A2
:1003E00085E00E940205812F0E9402058D2F0E9448
:1003F00002058C2F0E9402050E940D05DF91CF910E
:100400001F9108950E940F0580EC0E9402050E9432
:100410000D0508950E94F9040E940202089585B70F
:10042000806885BF80B7806280BF08950E94B60350
:1004300086E091E090939F0280939E02EEE8F2E0C6
:10044000F183E083AAE7B2E0B0939102A093900217
:1004500086EB92E0909393028093920286E692E07C
:10046000909395028093940282EA92E0909397028F
:10047000809396028EE191E09093A1028093A00276
:100480008FE391E090938B0280938A02ED93FC932B
:10049000ECE7F2E08AE892E011921192E817F9078E
:1004A000D9F787E591E090938D0280938C0284E7E1
:1004B00091E09093C7028093C6028EE892E09093F9
:1004C000B7028093B602E8EBF2E086EC92E011927C
:1004D0001192E817F907D9F78DE891E09093C902D6
:1004E0008093C8028EEA91E090937702809376021F
:1004F0008EE892E09093670280936602E8E6F2E06D
:1005000086E792E011921192E817F907D9F786EC85
:1005100091E0909379028093780284EE91E0909339
:10052000B3028093B2028EE892E09093A30280938C
:10053000A202E4EAF2E082EB92E011921192E81753
:10054000F907D9F78AE792E09093CB028093CA0229
:100550001092650208951F920F920FB60F92112408
:100560008F929F92AF92BF92CF92DF92EF92FF92C3
:100570000F931F932F933F934F935F936F937F93AB
:100580008F939F93AF93BF93EF93FF93CF93DF939B
:10059000CDB7DEB76297DEBFCDBF1F9281E08F93EC
:1005A0001F921F921F928F9383EF91E09F938F93DF
:1005B0000E9471051C821B82882483949924939441
:1005C000A12CBC80CD80DE80EF80F88409851A855F
:1005D0002B853C854D855E856F85788989899A89CB
:1005E0000E942C010FB6F894DEBF0FBECDBF6296FD
:1005F0000FB6F894DEBF0FBECDBFDF91CF91FF9154
:10060000EF91BF91AF919F918F917F916F915F918A
:100610004F913F912F911F910F91FF90EF90DF909D
:10062000CF90BF90AF909F908F900F900FBE0F9084
:100630001F9018950E94A703E091CA02F091CB0287
:1006400062E0808991890E94E803E091CA02F091FA
:10065000CB0262E0828993890E94E803809165025F
:100660000E94730408951F920F920FB60F921124E7
:100670002F933F934F935F936F937F938F939F93AA
:10068000AF93BF93EF93FF93E091CA02F091CB0237
:10069000808191819093CB028093CA020E941A03B9
:1006A000FF91EF91BF91AF919F918F917F916F914A
:1006B0005F914F913F912F910F900FBE0F901F9020
:1006C000189580E790E0909364028093630284E041
:1006D0008093600286E08093610280E280936202F0
:1006E0000895877080935602805580930010089576
:1006F00090916002899F902D1124292F2F70E0E0A6
:10070000F0E1208392959F70905F908380935702D1
:10071000089580E00E94710380E00E9478030895AC
:10072000982F9F70E0E0F0E19083982F92959F7052
:10073000905F90838093570208950E94710380E038
:10074000E0E0F2E110828F5F8038E1F70895CF9307
:1007500080E480930010C0E08C2F0E949D03CF5F47
:10076000C830D1F70E948903CF910895E0E0F0E10D
:100770008EEA808381EA80838AED808382E18083B0
:1007800088EC808388EA80838FE3808385ED808393
:1007900080E8808381E8808380E5808389ED8083A1
:1007A00081E2808380E2808382E080838BED80839E
:1007B00080E380838DEA8083108284EA808386EAE6
:1007C00080838FEA80830E94A7030E9461030895BB
:1007D0003F924F925F926F927F928F929F92AF92D1
:1007E000BF92CF92DF92EF92FF920F931F93CF931E
:1007F000DF93EC01362E862F0E947803FE010190D4
:100800000020E9F731973F016C1A7D0A161417048E
:100810000CF057C04E01A12CB12CC0E6D2E0512CF7
:10082000412C0F2EF3E6CF2EF2E0DF2EF02D0F2E0F
:10083000F2E6EF2EF2E0FF2EF02D00E012E1D401FF
:100840004D914D014A3031F0288130E012161306E7
:100850006CF030C08091560290E0019687709078DD
:100860000E947103832D0E94780324C0852D942D4E
:1008700050E0F7016081DA01A61BB1092A9FF0015F
:100880002B9FF00D3A9FF00D1124E80FF91FD601B0
:100890002D913C91E20FF31FE491D801EC9330913C
:1008A00057022881320F30935702019630E08217A9
:1008B0009307FCF2BFEFAB1ABB0A6A147B0409F082
:1008C000BECFDF91CF911F910F91FF90EF90DF90FE
:1008D000CF90BF90AF909F908F907F906F905F90E0
:1008E0004F903F900895CF93C09156020E9471039C
:1008F00081E00E949003E0E0F2E198E19083908330
:100900008EE780838CE38083908388E08093570216
:100910008C2F0E947103CF910895CF93DF93CDB7B1
:10092000DEB762970FB6F894DEBF0FBECDBF83E08F
:1009300086B98FEF8ABB1BBA12E017B90E940F026B
:100940008FE190E00E9419058DE292E00E948505FA
:100950000E9415010E94E4040E9416020E94980160
:100960000E941A031983552453940F2EFDE36F2E12
:10097000F2E07F2EF02D86E00E94F004082F112770
:1009800007FD10955A821F938F937F926F920E945A
:100990007105A02E1C830B8389809A80BC80CD803A
:1009A000DE80EF80F88409851A852B853C854D858E
:1009B0005E856F85788989899A890E942C010F90BC
:1009C0000F900F900F90D7CF81B3837F81BBF894A6
:1009D00085B78A6085BF8BB7806C8BBF789408958C
:1009E000809300148DE08A95F1F700008091001447
:1009F000089587B3806B87BBBE98C69A8DB1816519
:100A00008DB908958FB9779BFECF08958FEF0E941F
:100A10000205779BFECF8FB10895C49A0895C498BC
:100A200008955D9BFECF8CB908955F9BFECF8CB17E
:100A3000089590BD89B988E18AB98EE880BD65E1E5
:100A400075E081E195E00E94260508950F931F93BC
:100A5000CF93DF93EC018B01009731F461157105A1
:100A600019F480E090E038C06EE070E081E090E042
:100A70000E948407FC010097A1F380E8838301159D
:100A8000110571F01387028781E883838091CC027E
:100A90009091CD02892B21F4F093CD02E093CC020A
:100AA0002097C9F0D187C08783818260838380913A
:100AB000CE029091CF02892B71F4F093CF02E09394
:100AC000CE028091D0029091D102892B21F4F09333
:100AD000D102E093D002CF01DF91CF911F910F910E
:100AE0000895A0E0B0E0E7E7F5E00C948409FE018A
:100AF000359661917191AF018091CE029091CF02B4
:100B00000E94B205E2E00C94A0090F931F93CF93CB
:100B1000DF93E091CE02F091CF02238121FF1BC031
:100B2000EC0100E010E089916091CE027091CF025B
:100B3000DB011896ED91FC911997882331F0099506
:100B4000892B89F30FEF1FEFEECF8AE00995892BF0
:100B500011F4C80102C08FEF9FEFDF91CF911F9179
:100B60000F910895ACE0B0E0E8EBF5E00C94740967
:100B70007C016B018A01FC0117821682838181FF4F
:100B8000BDC1CE0101964C01F7019381F60193FDA1
:100B9000859193FF81916F01882309F4ABC1853260
:100BA00039F493FD859193FF81916F01853229F48A
:100BB000B70190E00E94E408E7CF512C312C20E0EF
:100BC0002032A0F48B3269F030F4803259F0833255
:100BD00069F420612CC08D3239F0803339F4216002
:100BE00026C02260246023C0286021C027FD27C0C2
:100BF00030ED380F3A3078F426FF06C0FAE05F9EF9
:100C0000300D1124532E13C08AE0389E300D11246C
:100C1000332E20620CC08E3221F426FD6BC120647D
:100C200006C08C3611F4206802C0883641F4F60103
:100C300093FD859193FF81916F018111C1CF982F11
:100C40009F7D9554933028F40C5F1F4FFFE3F98389
:100C50000DC0833631F0833771F0833509F05BC006
:100C600022C0F801808189830E5F1F4F4424439482
:100C7000512C540115C03801F2E06F0E711CF801BF
:100C8000A080B18026FF03C0652D70E002C06FEF29
:100C90007FEFC5012C870E94D9082C0183012C8588
:100CA0002F77222E17C03801F2E06F0E711CF80169
:100CB000A080B18026FF03C0652D70E002C06FEFF9
:100CC0007FEFC5012C870E94C7082C012C85206866
:100CD000222E830123FC1BC0832D90E04816590669
:100CE000B0F4B70180E290E00E94E4083A94F4CFB7
:100CF000F50127FC859127FE81915F01B70190E006
:100D00000E94E40831103A94F1E04F1A510841145E
:100D1000510471F7E5C0843611F0893639F5F801D0
:100D200027FF07C060817181828193810C5F1F4F13
:100D300008C060817181882777FD8095982F0E5FAC
:100D40001F4F2F76B22E97FF09C090958095709512
:100D500061957F4F8F4F9F4F2068B22E2AE030E081
:100D6000A4010E941609A82EA81844C0853729F4AA
:100D70002F7EB22E2AE030E025C0F22FF97FBF2E61
:100D80008F36C1F018F4883579F0B4C0803719F087
:100D9000883721F0AFC02F2F2061B22EB4FE0DC0D6
:100DA0008B2D8460B82E09C024FF0AC09F2F966047
:100DB000B92E06C028E030E005C020E130E002C0D6
:100DC00020E132E0F801B7FE07C0608171818281C5
:100DD00093810C5F1F4F06C06081718180E090E0BD
:100DE0000E5F1F4FA4010E941609A82EA818FB2D04
:100DF000FF77BF2EB6FE0BC02B2D2E7FA51450F40F
:100E0000B4FE0AC0B2FC08C02B2D2E7E05C07A2C81
:100E10002B2D03C07A2C01C0752C24FF0DC0FE01C0
:100E2000EA0DF11D8081803311F4297E09C022FF73
:100E300006C07394739404C0822F867809F073946B
:100E400023FD13C020FF06C05A2C731418F4530C52
:100E50005718732C731468F4B70180E290E02C8764
:100E60000E94E40873942C85F5CF731410F437189E
:100E700001C0312C24FF12C0B70180E390E02C8721
:100E80000E94E4082C8522FF17C021FF03C088E5DB
:100E900090E002C088E790E0B7010CC0822F86780E
:100EA00059F021FD02C080E201C08BE227FD8DE2F6
:100EB000B70190E00E94E408A51438F4B70180E37C
:100EC00090E00E94E4085A94F7CFAA94F401EA0D46
:100ED000F11D8081B70190E00E94E408A110F5CFD8
:100EE000332009F451CEB70180E290E00E94E4087B
:100EF0003A94F6CFF7018681978102C08FEF9FEF7A
:100F00002C96E2E10C9490090F931F93CF93DF93FB
:100F1000869F8001879F100D969F100D1124C80198
:100F20000E94A007EC01009729F0A80160E070E0A2
:100F30000E94D208CE01DF91CF911F910F910895A9
:100F4000CF93DF938230910510F482E090E0E0913E
:100F5000D402F091D50220E030E0A0E0B0E030977C
:100F600039F14081518148175907B8F0481759079E
:100F700071F482819381109729F013969C938E933C
:100F800012972CC09093D5028093D40227C02115CC
:100F9000310531F04217530718F0A901DB0101C0F8
:100FA000EF019A01BD01DF010280F381E02DD7CF6F
:100FB00021153105F9F0281B390B2430310580F457
:100FC0008A819B816115710521F0FB0193838283E6
:100FD00004C09093D5028093D402FE01329644C09F
:100FE000FE01E20FF31F819391932250310939835F
:100FF00028833AC02091D2023091D302232B41F4AE
:1010000020910201309103013093D3022093D20248
:1010100020910001309101012115310541F42DB7D6
:101020003EB74091040150910501241B350BE0911E
:10103000D202F091D302E217F307A0F42E1B3F0B6C
:101040002817390778F0AC014E5F5F4F241735073A
:1010500048F04E0F5F1F5093D3024093D20281930A
:10106000919302C0E0E0F0E0CF01DF91CF910895CD
:10107000CF93DF93009709F487C0FC013297138266
:101080001282C091D402D091D502209781F42081A0
:101090003181280F391F8091D2029091D30282179B
:1010A000930779F5F093D302E093D2026DC0DE018D
:1010B00020E030E0AE17BF0750F412964D915C91DE
:1010C00013979D014115510509F1DA01F3CFB3835F
:1010D000A28340815181840F951F8A179B0771F469
:1010E0008D919C911197840F951F02969183808317
:1010F00012968D919C9113979383828321153105CC
:1011000029F4F093D502E093D4023EC0D90113969E
:10111000FC93EE9312974D915D91A40FB51FEA17C2
:10112000FB0779F480819181840F951F0296D90184
:1011300011969C938E938281938113969C938E93A8
:101140001297E0E0F0E08A819B81009719F0FE01A0
:10115000EC01F9CFCE01029628813981820F931FCD
:101160002091D2023091D3022817390769F43097C1
:1011700029F41092D5021092D40202C01382128276
:10118000D093D302C093D202DF91CF910895FC0196
:101190000590615070400110D8F7809590958E0FA2
:1011A0009F1F0895DC0101C06D9341505040E0F74E
:1011B0000895FC016150704001900110D8F78095AE
:1011C00090958E0F9F1F08950F931F93CF93DF93DA
:1011D000182F092FEB018B8181FD03C08FEF9FEF4B
:1011E00020C082FF10C04E815F812C813D8142175B
:1011F00053077CF4E881F9819F012F5F3F4F3983CA
:101200002883108306C0E885F985812F0995892BED
:1012100029F72E813F812F5F3F4F3F832E83812F00
:10122000902FDF91CF911F910F910895FA01AA2776
:10123000283051F1203181F1E8946F936E7F6E5F19
:101240007F4F8F4F9F4FAF4FB1E03ED0B4E03CD0C7
:10125000670F781F891F9A1FA11D680F791F8A1FAA
:10126000911DA11D6A0F711D811D911DA11D20D011
:1012700009F468943F912AE0269F11243019305DCB
:101280003193DEF6CF010895462F4770405D4193BC
:10129000B3E00FD0C9F7F6CF462F4F70405D4A3309
:1012A00018F0495D31FD4052419302D0A9F7EACFD1
:1012B000B4E0A6959795879577956795BA95C9F700
:1012C00000976105710508959B01AC010A2E0694F3
:1012D0005795479537952795BA95C9F7620F731FAC
:1012E000841F951FA01D08952F923F924F925F92E9
:1012F0006F927F928F929F92AF92BF92CF92DF9226
:10130000EF92FF920F931F93CF93DF93CDB7DEB78A
:10131000CA1BDB0B0FB6F894DEBF0FBECDBF09941E
:101320002A88398848885F846E847D848C849B8475
:10133000AA84B984C884DF80EE80FD800C811B8183
:10134000AA81B981CE0FD11D0FB6F894DEBF0FBEB2
:0A135000CDBFED010895F894FFCF22
:10135A000000D602200020202020202020203E202D
:10136A004D61696E206D656E75203C200A00506CD7
:10137A0061792067616D65200A4869676873636FE0
:10138A00726573200A53657474696E67730A004242
:10139A0061636B202020203E20506C6179206761B8
:1013AA006D65203C200A006E65772067616D6520B7
:1013BA000A317631200A317673436F6D7075746520
:1013CA0072200A004261636B20202020203E2048C0
:1013DA0069676873636F7265203C200A00506C610C
:1013EA00796572312073636F72652E200A506C61C1
:1013FA00796572322073636F72652E200A0042612A
:10140A00636B20202020203E2053657474696E6728
:10141A0073203C200A0063616C6962726174655FC3
:10142A006E6F6465200A766F6C756D655F6E6F64AA
:10143A0065200A0044726177696E6720626F617283
:10144A0064200053656E64696E6720666F6C6C6F0A
:10145A0077696E67206D657373616765203A0A2044
:10146A0049443A202569200A20646174613A20259A
:10147A00690A206C656E6774682025690041746D7D
:10148A006567613136322073746172740053656E18
:10149A0064696E6720746869732064617461203AB4
:0614AA002025690A000084
:00000001FF
