:100000000C9438000C9455000C9455000C94550039
:100010000C9455000C9455000C9455000C9455000C
:100020000C9455000C9455000C9455000C945500FC
:100030000C9455000C9455000C9455000C945500EC
:100040000C9455000C9455000C9455000C945500DC
:100050000C9455000C9455000C9455000C945500CC
:100060000C9455000C9455000C9455000C945500BC
:1000700011241FBECFEFD4E0DEBFCDBF11E0A0E062
:10008000B1E0EAE4F1E002C005900D92A230B107C0
:10009000D9F721E0A2E0B1E001C01D92A230B20781
:1000A000E1F70E948F000C94A3000C94000085B728
:1000B000806885BF80B7806280BF0895E0E0F0E18E
:1000C0008EEA808381EA80838AED808382E1808367
:1000D00088EC808388EA80838FE3808385ED80834A
:1000E00080E8808381E8808380E5808389ED808358
:1000F00081E2808380E2808310828BED808380E3C5
:1001000080838DEA8083108284EA808386EA8083FC
:100110008FEA808308958AEA80930012089583E02D
:1001200086B98FEF8ABB1BBA92E097B981BB80E496
:1001300082BB12BA0E9457000E945E0080E091E0EC
:0A0140000E948B00FBCFF894FFCF64
:02014A00230090
:00000001FF
