S01200004F76696E67315F365F322E73726563B8
S11300000C9438000C944A020C9490020C94550001
S11300100C9455000C9455000C9455000C94550008
S11300200C9455000C9455000C9455000C945500F8
S11300300C9455000C9455000C9455000C945500E8
S11300400C9455000C9455000C9455000C945500D8
S11300500C9455000C9455000C9455000C945500C8
S11300600C9455000C9455000C9455000C945500B8
S113007011241FBECFEFD4E0DEBFCDBF11E0A0E05E
S1130080B1E0E6E8F0E102C005900D92AC33B107AF
S1130090D9F721E0ACE3B1E001C01D92A03AB20768
S11300A0E1F70E94A8030C9441080C9400000E94FC
S11300B0250240E460EE8FE00E9403024FEF60E609
S11300C080E60E94030240E064E080E60E940302AE
S11300D04FEF61E08BE20E94030208958F929F929A
S11300E0AF92BF92CF92DF92EF92FF920F931F9342
S11300F0CF93DF93CDB7DEB762970FB6F894DEBF28
S11301000FBECDBF89829A82AB82BC82CD82DE8251
S1130110EF82F88609871A872B873C874D875E878D
S11301206F87788B898B9A8B44E063E080E30E942D
S1130130030269816295660F607E82E30E94E20198
S1130140698166956695669581E30E94E2016A81FC
S113015085E30E94E201BE016D5F7F4F86E30E944A
S1130160E2018A818823B1F07E0183E0E80EF11C6C
S113017000E010E0F7016081F2E0EF0EF11C86E38D
S1130180800F0E94E2010F5F1F4F8A8190E00817E1
S1130190190784F381E00E94F60180E30E94D001F4
S11301A08370D9F762960FB6F894DEBF0FBECDBF49
S11301B0DF91CF911F910F91FF90EF90DF90CF903F
S11301C0BF90AF909F908F900895CF92DF92EF925F
S11301D0FF920F931F93CF93DF93CDB7DEB7629750
S11301E00FB6F894DEBF0FBECDBF6C01FE01319691
S11301F082E1DF011D928A95E9F781E60E94D00130
S1130200182F82E60E94D001110F110F110F829551
S113021086958770182B198385E60E94D0018F700C
S11302208A831F928F9386E091E09F938F930E941D
S113023034048A810F900F900F900F908823B9F0A7
S11302407E01B3E0EB0EF11C00E010E086E6800FC7
S11302500E94D001282F30E0F701219331937F01D0
S11302600F5F1F4F2A8130E0021713077CF340E031
S113027060E08CE20E94030282E1FE013196D60125
S113028001900D928A95E1F7C60162960FB6F89433
S1130290DEBF0FBECDBFDF91CF911F910F91FF90B5
S11302A0EF90DF90CF9008958F929F92AF92BF927C
S11302B0CF92DF92EF92FF920F931F93CF93DF932E
S11302C0CDB7DEB7A4970FB6F894DEBF0FBECDBF8F
S11302D00E94570083E0898384E5A82E8B831C82C7
S11302E08FE4C82E8D831E8282E5E82E8F831886C4
S11302F085E4082F89871A8683E2282F8B871C863A
S113030081E3482F8D871E8686E08A830F2EF3E0D3
S11303108F2EF02D0F2EF6E09F2EF02DB12CD12C28
S1130320F12C10E030E050E06F85788989899A8952
S11303300E946E00CE0143960E94E5008E010B5E82
S11303401F4F6E0181E2C80ED11C0F2EFBE1EF2E70
S1130350F1E0FF2EF02DF801808191810E5F1F4F97
S11303609F938F93FF92EF920E9434040F900F900B
S11303700F900F900C151D0571F7A4960FB6F89405
S1130380DEBF0FBECDBFDF91CF911F910F91FF90C4
S1130390EF90DF90CF90BF90AF909F908F90089593
S11303A0CF93C82F0E94D20383E00E94C5038C2FF1
S11303B00E94C5030E94C903C82F0E94D0038C2F3A
S11303C0CF910895CF93DF93D82FC62F0E94D203E5
S11303D082E00E94C5038D2F0E94C5038C2F0E94CA
S11303E0C5030E94D003DF91CF910895CF93C82F06
S11303F00E94D2038C2F877080580E94C5030E94EC
S1130400D003CF9108951F93CF93DF93182FD62F46
S1130410C42F0E94D20385E00E94C503812F0E944D
S1130420C5038D2F0E94C5038C2F0E94C5030E9413
S1130430D003DF91CF911F9108950E94D20380ECE5
S11304400E94C5030E94D00308950E941D020E94C9
S1130450BC03089585B7806885BF80B7806280BF7C
S113046008950E94F402E0918D01F0918E0162E002
S1130470808991890E940303E0918D01F0918E019E
S113048062E0828993890E94030380913C010E9467
S11304908E0308951F920F920FB60F9211242F937B
S11304A03F934F935F936F937F938F939F93AF93F8
S11304B0BF93EF93FF93E0913C01E1110BC0E091F6
S11304C08D01F0918E018081918190938E018093B2
S11304D08D0111C080918D0190918E01F0E0EE0F9D
S11304E0FF1FE80FF91F80819181009721F09093FD
S11304F08E0180938D0110923C010E943102FF9184
S1130500EF91BF91AF919F918F917F916F915F9187
S11305104F913F912F910F900FBE0F901F90189500
S11305201F920F920FB60F9211242F933F934F9364
S11305305F936F937F938F939F93AF93BF93EF9347
S1130540FF93E0918D01F0918E01808191819093D0
S11305508E0180938D010E943102FF91EF91BF9132
S1130560AF919F918F917F916F915F914F913F9147
S11305702F910F900FBE0F901F9018958770809346
S11305809401805580930010089590918F01899F64
S1130590902D1124292F2F70E0E0F0E12083929513
S11305A09F70905F908380939501089580E00E94EE
S11305B0BE0280E00E94C5020895982F9F70E0E07B
S11305C0F0E19083982F92959F70905F9083809331
S11305D0950108950E94BE0280E0E0E0F2E11082FD
S11305E08F5F8038E1F70895CF9380E48093001003
S11305F0C0E08C2F0E94EA02CF5FC830D1F70E947E
S1130600D602CF9108953F924F925F926F927F925C
S11306108F929F92AF92BF92CF92DF92EF92FF920E
S11306200F931F93CF93DF93EC01362E862F0E94F6
S1130630C502FE0101900020E9F731973F016C1AD1
S11306407D0A161417040CF057C04E01A12CB12CCE
S1130650CFE8D1E0512C412C0F2EF2E9CF2EF1E05E
S1130660DF2EF02D0F2EF1E9EF2EF1E0FF2EF02D0D
S113067000E012E1D4014D914D014A3031F028815E
S113068030E0121613066CF030C08091940190E0B3
S11306900196877090780E94BE02832D0E94C50245
S11306A024C0852D942D50E0F7016081DA01A61B4A
S11306B0B1092A9FF0012B9FF00D3A9FF00D1124F0
S11306C0E80FF91FD6012D913C91E20FF31FE4913D
S11306D0D801EC93309195012881320F3093950124
S11306E0019630E082179307FCF2BFEFAB1ABB0A06
S11306F06A147B0409F0BECFDF91CF911F910F9153
S1130700FF90EF90DF90CF90BF90AF909F908F902D
S11307107F906F905F904F903F900895CF93C091DA
S113072094010E94BE0281E00E94DD02E0E0F2E159
S113073098E1908390838EE780838CE38083908319
S113074088E0809395018C2F0E94BE02CF9108957A
S113075083E086B98FEF8ABB1BBA82E087B90E9417
S11307602A028FE190E00E94DC030E94BC030E94F5
S1130770540180E090E0089587B3806B87BBBE98F6
S1130780C69A8DB181658DB908958FB9779BFECFD7
S113079008958FEF0E94C503779BFECF8FB1089514
S11307A0C49A0895C49808955D9BFECF8CB90895AA
S11307B05F9BFECF8CB1089590BD89B988E18AB959
S11307C08EE880BD68ED73E084ED93E00E94E90358
S11307D008950F931F93CF93DF93EC018B01009740
S11307E031F46115710519F480E090E038C06EE0D1
S11307F070E081E090E00E941A06FC010097A1F3EA
S113080080E883830115110571F01387028781E85D
S113081083838091960190919701892B21F4F09321
S11308209701E09396012097C9F0D187C08783810F
S1130830826083838091980190919901892B71F44E
S1130840F0939901E093980180919A0190919B0112
S1130850892B21F4F0939B01E0939A01CF01DF915E
S1130860CF911F910F910895A0E0B0E0EAE3F4E086
S11308700C941A08FE01359661917191AF01809133
S11308809801909199010E944804E2E00C94360882
S1130890ACE0B0E0EEE4F4E00C940A087C016B01F7
S11308A08A01FC0117821682838181FFBDC1CE01BA
S11308B001964C01F7019381F60193FD859193FF15
S11308C081916F01882309F4ABC1853239F493FD1A
S11308D0859193FF81916F01853229F4B70190E0EE
S11308E00E947A07E7CF512C312C20E02032A0F46B
S11308F08B3269F030F4803259F0833269F420612C
S11309002CC08D3239F0803339F4216026C0226046
S1130910246023C0286021C027FD27C030ED380F94
S11309203A3078F426FF06C0FAE05F9E300D1124B9
S1130930532E13C08AE0389E300D1124332E2062CA
S11309400CC08E3221F426FD6BC1206406C08C36A7
S113095011F4206802C0883641F4F60193FD8591B4
S113096093FF81916F018111C1CF982F9F7D955481
S1130970933028F40C5F1F4FFFE3F9830DC08336D7
S113098031F0833771F0833509F05BC022C0F80180
S1130990808189830E5F1F4F44244394512C54015A
S11309A015C03801F2E06F0E711CF801A080B1800F
S11309B026FF03C0652D70E002C06FEF7FEFC50115
S11309C02C870E946F072C0183012C852F77222E00
S11309D017C03801F2E06F0E711CF801A080B180DD
S11309E026FF03C0652D70E002C06FEF7FEFC501E5
S11309F02C870E945D072C012C852068222E830100
S1130A0023FC1BC0832D90E048165906B0F4B701AF
S1130A1080E290E00E947A073A94F4CFF50127FC33
S1130A20859127FE81915F01B70190E00E947A07CA
S1130A3031103A94F1E04F1A51084114510471F7FE
S1130A40E5C0843611F0893639F5F80127FF07C06F
S1130A5060817181828193810C5F1F4F08C0608126
S1130A607181882777FD8095982F0E5F1F4F2F7611
S1130A70B22E97FF09C090958095709561957F4F30
S1130A808F4F9F4F2068B22E2AE030E0A4010E94CD
S1130A90AC07A82EA81844C0853729F42F7EB22E9F
S1130AA02AE030E025C0F22FF97FBF2E8F36C1F047
S1130AB018F4883579F0B4C0803719F0883721F0FC
S1130AC0AFC02F2F2061B22EB4FE0DC08B2D8460D9
S1130AD0B82E09C024FF0AC09F2F9660B92E06C005
S1130AE028E030E005C020E130E002C020E132E03F
S1130AF0F801B7FE07C060817181828193810C5F28
S1130B001F4F06C06081718180E090E00E5F1F4F2F
S1130B10A4010E94AC07A82EA818FB2DFF77BF2EB6
S1130B20B6FE0BC02B2D2E7FA51450F4B4FE0AC0C4
S1130B30B2FC08C02B2D2E7E05C07A2C2B2D03C0B1
S1130B407A2C01C0752C24FF0DC0FE01EA0DF11DA5
S1130B508081803311F4297E09C022FF06C073947A
S1130B60739404C0822F867809F0739423FD13C014
S1130B7020FF06C05A2C731418F4530C5718732C06
S1130B80731468F4B70180E290E02C870E947A071E
S1130B9073942C85F5CF731410F4371801C0312CDD
S1130BA024FF12C0B70180E390E02C870E947A07EB
S1130BB02C8522FF17C021FF03C088E590E002C006
S1130BC088E790E0B7010CC0822F867859F021FDA8
S1130BD002C080E201C08BE227FD8DE2B70190E004
S1130BE00E947A07A51438F4B70180E390E00E94CC
S1130BF07A075A94F7CFAA94F401EA0DF11D808183
S1130C00B70190E00E947A07A110F5CF332009F4D0
S1130C1051CEB70180E290E00E947A073A94F6CF71
S1130C20F7018681978102C08FEF9FEF2C96E2E156
S1130C300C9426080F931F93CF93DF93869F800114
S1130C40879F100D969F100D1124C8010E9436062F
S1130C50EC01009729F0A80160E070E00E946807A9
S1130C60CE01DF91CF911F910F910895CF93DF9320
S1130C708230910510F482E090E0E0919E01F091C1
S1130C809F0120E030E0A0E0B0E0309739F14081EE
S1130C90518148175907B8F04817590771F48281F0
S1130CA09381109729F013969C938E9312972CC0DE
S1130CB090939F0180939E0127C02115310531F047
S1130CC04217530718F0A901DB0101C0EF019A0193
S1130CD0BD01DF010280F381E02DD7CF211531055D
S1130CE0F9F0281B390B2430310580F48A819B816B
S1130CF06115710521F0FB019383828304C09093F5
S1130D009F0180939E01FE01329644C0FE01E20FD2
S1130D10F31F8193919322503109398328833AC078
S1130D2020919C0130919D01232B41F420910201DB
S1130D303091030130939D0120939C012091000187
S1130D40309101012115310541F42DB73EB7409191
S1130D50040150910501241B350BE0919C01F09195
S1130D609D01E217F307A0F42E1B3F0B2817390748
S1130D7078F0AC014E5F5F4F2417350748F04E0FF3
S1130D805F1F50939D0140939C018193919302C0F6
S1130D90E0E0F0E0CF01DF91CF910895CF93DF93AE
S1130DA0009709F487C0FC01329713821282C09124
S1130DB09E01D0919F01209781F420813181280FD9
S1130DC0391F80919C0190919D018217930779F5B9
S1130DD0F0939D01E0939C016DC0DE0120E030E0C2
S1130DE0AE17BF0750F412964D915C9113979D0175
S1130DF04115510509F1DA01F3CFB383A283408190
S1130E005181840F951F8A179B0771F48D919C91D2
S1130E101197840F951F02969183808312968D916A
S1130E209C911397938382832115310529F4F093C0
S1130E309F01E0939E013EC0D9011396FC93EE936B
S1130E4012974D915D91A40FB51FEA17FB0779F432
S1130E5080819181840F951F0296D90111969C93EC
S1130E608E938281938113969C938E931297E0E0E4
S1130E70F0E08A819B81009719F0FE01EC01F9CF23
S1130E80CE01029628813981820F931F20919C0103
S1130E9030919D012817390769F4309729F410928D
S1130EA09F0110929E0102C013821282D0939D0171
S1130EB0C0939C01DF91CF910895FC01059061508E
S1130EC070400110D8F7809590958E0F9F1F08955C
S1130ED0DC0101C06D9341505040E0F70895FC01DE
S1130EE06150704001900110D8F7809590958E0F55
S1130EF09F1F08950F931F93CF93DF93182F092FEC
S1130F00EB018B8181FD03C08FEF9FEF20C082FF37
S1130F1010C04E815F812C813D81421753077CF4C0
S1130F20E881F9819F012F5F3F4F39832883108324
S1130F3006C0E885F985812F0995892B29F72E812B
S1130F403F812F5F3F4F3F832E83812F902FDF916F
S1130F50CF911F910F910895FA01AA27283051F1DA
S1130F60203181F1E8946F936E7F6E5F7F4F8F4FD6
S1130F709F4FAF4FB1E03ED0B4E03CD0670F781F35
S1130F80891F9A1FA11D680F791F8A1F911DA11D1A
S1130F906A0F711D811D911DA11D20D009F4689453
S1130FA03F912AE0269F11243019305D3193DEF6FB
S1130FB0CF010895462F4770405D4193B3E00FD0B1
S1130FC0C9F7F6CF462F4F70405D4A3318F0495D9C
S1130FD031FD4052419302D0A9F7EACFB4E0A6957F
S1130FE09795879577956795BA95C9F700976105A1
S1130FF0710508959B01AC010A2E069457954795F7
S113100037952795BA95C9F7620F731F841F951FEB
S1131010A01D08952F923F924F925F926F927F92FC
S11310208F929F92AF92BF92CF92DF92EF92FF92F4
S11310300F931F93CF93DF93CDB7DEB7CA1BDB0BA0
S11310400FB6F894DEBF0FBECDBF09942A88398845
S113105048885F846E847D848C849B84AA84B9844C
S1131060C884DF80EE80FD800C811B81AA81B98158
S1131070CE0FD11D0FB6F894DEBF0FBECDBFED016C
S10910800895F894FFCF6F
S11310860000A0012000204D657373616765206C24
S1131096656E6774682025693A0A004461746120A4
S11310A6696E207265636569766564206D65737320
S10F10B6616765203A202563200A0000D1
S9030000FC
