S00E00004F76696E67312E73726563E2
S11300000C9438000C9493000C94D9000C94550073
S11300100C9455000C9455000C9455000C94550008
S11300200C9455000C9455000C9455000C945500F8
S11300300C9455000C9455000C9455000C945500E8
S11300400C9455000C9455000C9455000C945500D8
S11300500C9455000C9455000C9455000C945500C8
S11300600C9455000C9455000C9455000C945500B8
S113007011241FBECFEFD4E0DEBFCDBF11E0A0E05E
S1130080B1E0E4E9FDE002C005900D92A831B107AA
S1130090D9F721E0A8E1B1E001C01D92AC37B20765
S11300A0E1F70E94F1010C94C8060C940000CF9370
S11300B0C82F83E00E9425028C2F0E9425020E94F3
S11300C02902CF910895CF93DF93D82FC62F82E0D2
S11300D00E9425028D2F0E9425028C2F0E9425024A
S11300E0DF91CF91089585B7806885BF80B780621E
S11300F080BF08950E943D01E0916901F0916A0179
S113010062E0808991890E944C01E0916901F0913B
S11301106A0162E0828993890E944C0180911801EE
S11301200E94D70108951F920F920FB60F921124C7
S11301302F933F934F935F936F937F938F939F93EB
S1130140AF93BF93EF93FF93E0911801E1110BC0BC
S1130150E0916901F0916A018081918190936A0133
S11301608093690111C08091690190916A01F0E066
S1130170EE0FFF1FE80FF91F80819181009721F096
S113018090936A0180936901109218010E947A0089
S1130190FF91EF91BF91AF919F918F917F916F915B
S11301A05F914F913F912F910F900FBE0F901F9031
S11301B018951F920F920FB60F9211242F933F930D
S11301C04F935F936F937F938F939F93AF93BF935B
S11301D0EF93FF93E0916901F0916A01808191812D
S11301E090936A01809369010E947A00FF91EF91D4
S11301F0BF91AF919F918F917F916F915F914F913B
S11302003F912F910F900FBE0F901F9018958770FC
S113021080937001805580930010089590916B0134
S1130220899F902D1124292F2F70E0E0F0E1208385
S113023092959F70905F908380937101089580E000
S11302400E94070180E00E940E010895982F9F707C
S1130250E0E0F0E19083982F92959F70905F9083F7
S11302608093710108950E94070180E0E0E0F2E1CB
S113027010828F5F8038E1F70895CF9380E48093F4
S11302800010C0E08C2F0E943301CF5FC830D1F73B
S11302900E941F01CF9108953F924F925F926F92F7
S11302A07F928F929F92AF92BF92CF92DF92EF9202
S11302B0FF920F931F93CF93DF93EC01362E862F7B
S11302C00E940E01FE0101900020E9F731973F01E1
S11302D06C1A7D0A161417040CF057C04E01A12C99
S11302E0B12CCBE6D1E0512C412C0F2EFEE6CF2EC3
S11302F0F1E0DF2EF02D0F2EFDE6EF2EF1E0FF2EC4
S1130300F02D00E012E1D4014D914D014A3031F05D
S1130310288130E0121613066CF030C08091700111
S113032090E00196877090780E940701832D0E94C7
S11303300E0124C0852D942D50E0F7016081DA016F
S1130340A61BB1092A9FF0012B9FF00D3A9FF00DD7
S11303501124E80FF91FD6012D913C91E20FF31FF0
S1130360E491D801EC93309171012881320F3093DC
S11303707101019630E082179307FCF2BFEFAB1ACC
S1130380BB0A6A147B0409F0BECFDF91CF911F91A1
S11303900F91FF90EF90DF90CF90BF90AF909F9020
S11303A08F907F906F905F904F903F900895CF9380
S11303B0C09170010E94070181E00E942601E0E0E3
S11303C0F2E198E1908390838EE780838CE38083CD
S11303D0908388E0809371018C2F0E940701CF9154
S11303E0089583E086B98FEF8ABB1BBA82E087B990
S11303F00E9473008FE190E00E9436020E941E0268
S113040086E091E00E94A20265E283E00E9463001C
S113041089E091E00E94A20283E00E9457001F92AB
S11304208F938EE091E09F938F930E948E020F90A2
S11304300F900F900F9080E090E0089587B3806B49
S113044087BBBE9881E58DB908958FB9779BFECFA0
S113045008951FB8779BFECF8FB108955D9BFECFA3
S11304608CB908955F9BFECF8CB1089590BD89B976
S113047088E18AB98EE880BD62E372E08EE292E0A0
S11304800E94430208950F931F93CF93DF93EC01CF
S11304908B01009731F46115710519F480E090E047
S11304A038C06EE070E081E090E00E94A104FC019D
S11304B00097A1F380E883830115110571F0138778
S11304C0028781E883838091720190917301892B63
S11304D021F4F0937301E09372012097C9F0D1875E
S11304E0C0878381826083838091740190917501B8
S11304F0892B71F4F0937501E09374018091760176
S113050090917701892B21F4F0937701E0937601A0
S1130510CF01DF91CF911F910F910895A0E0B0E03A
S1130520E4E9F2E00C94A106FE0135966191719123
S1130530AF0180917401909175010E94CF02E2E0B5
S11305400C94BD060F931F93CF93DF93E091740136
S1130550F0917501238121FF1BC0EC0100E010E044
S113056089916091740170917501DB011896ED9188
S1130570FC911997882331F00995892B89F30FEFA2
S11305801FEFEECF8AE00995892B11F4C80102C050
S11305908FEF9FEFDF91CF911F910F910895ACE002
S11305A0B0E0E5EDF2E00C9491067C016B018A0168
S11305B0FC0117821682838181FFBDC1CE010196A1
S11305C04C01F7019381F60193FD859193FF81918D
S11305D06F01882309F4ABC1853239F493FD859109
S11305E093FF81916F01853229F4B70190E00E9455
S11305F00106E7CF512C312C20E02032A0F48B32BD
S113060069F030F4803259F0833269F420612CC0EF
S11306108D3239F0803339F4216026C022602460A1
S113062023C0286021C027FD27C030ED380F3A30A1
S113063078F426FF06C0FAE05F9E300D1124532E95
S113064013C08AE0389E300D1124332E20620CC072
S11306508E3221F426FD6BC1206406C08C3611F461
S1130660206802C0883641F4F60193FD859193FF1A
S113067081916F018111C1CF982F9F7D9554933043
S113068028F40C5F1F4FFFE3F9830DC0833631F06C
S1130690833771F0833509F05BC022C0F801808193
S11306A089830E5F1F4F44244394512C540115C079
S11306B03801F2E06F0E711CF801A080B18026FFB2
S11306C003C0652D70E002C06FEF7FEFC5012C877A
S11306D00E94F6052C0183012C852F77222E17C04A
S11306E03801F2E06F0E711CF801A080B18026FF82
S11306F003C0652D70E002C06FEF7FEFC5012C874A
S11307000E94E4052C012C852068222E830123FC01
S11307101BC0832D90E048165906B0F4B70180E25F
S113072090E00E9401063A94F4CFF50127FC8591EC
S113073027FE81915F01B70190E00E94010631100C
S11307403A94F1E04F1A51084114510471F7E5C08D
S1130750843611F0893639F5F80127FF07C0608126
S11307607181828193810C5F1F4F08C06081718108
S1130770882777FD8095982F0E5F1F4F2F76B22E16
S113078097FF09C090958095709561957F4F8F4F25
S11307909F4F2068B22E2AE030E0A4010E94330665
S11307A0A82EA81844C0853729F42F7EB22E2AE03B
S11307B030E025C0F22FF97FBF2E8F36C1F018F438
S11307C0883579F0B4C0803719F0883721F0AFC08C
S11307D02F2F2061B22EB4FE0DC08B2D8460B82E55
S11307E009C024FF0AC09F2F9660B92E06C028E0D6
S11307F030E005C020E130E002C020E132E0F80141
S1130800B7FE07C060817181828193810C5F1F4FA5
S113081006C06081718180E090E00E5F1F4FA401EB
S11308200E943306A82EA818FB2DFF77BF2EB6FE14
S11308300BC02B2D2E7FA51450F4B4FE0AC0B2FCBD
S113084008C02B2D2E7E05C07A2C2B2D03C07A2CAC
S113085001C0752C24FF0DC0FE01EA0DF11D80813D
S1130860803311F4297E09C022FF06C07394739467
S113087004C0822F867809F0739423FD13C020FFEF
S113088006C05A2C731418F4530C5718732C731491
S113089068F4B70180E290E02C870E94010673940B
S11308A02C85F5CF731410F4371801C0312C24FFB4
S11308B012C0B70180E390E02C870E9401062C85CA
S11308C022FF17C021FF03C088E590E002C088E73B
S11308D090E0B7010CC0822F867859F021FD02C048
S11308E080E201C08BE227FD8DE2B70190E00E9417
S11308F00106A51438F4B70180E390E00E940106D4
S11309005A94F7CFAA94F401EA0DF11D8081B7013E
S113091090E00E940106A110F5CF332009F451CED6
S1130920B70180E290E00E9401063A94F6CFF70105
S11309308681978102C08FEF9FEF2C96E2E10C94A1
S1130940AD060F931F93CF93DF93869F8001879FFC
S1130950100D969F100D1124C8010E94BD04EC01D6
S1130960009729F0A80160E070E00E94EF05CE0135
S1130970DF91CF911F910F910895CF93DF93823030
S1130980910510F482E090E0E0917A01F0917B010E
S113099020E030E0A0E0B0E0309739F140815181AF
S11309A048175907B8F04817590771F482819381A1
S11309B0109729F013969C938E9312972CC09093C2
S11309C07B0180937A0127C02115310531F042174C
S11309D0530718F0A901DB0101C0EF019A01BD0121
S11309E0DF010280F381E02DD7CF21153105F9F025
S11309F0281B390B2430310580F48A819B816115D1
S1130A00710521F0FB019383828304C090937B01E1
S1130A1080937A01FE01329644C0FE01E20FF31F77
S1130A208193919322503109398328833AC02091CC
S1130A30780130917901232B41F420910201309106
S1130A4003013093790120937801209100013091C2
S1130A5001012115310541F42DB73EB74091040140
S1130A6050910501241B350BE0917801F091790137
S1130A70E217F307A0F42E1B3F0B2817390778F071
S1130A80AC014E5F5F4F2417350748F04E0F5F1FD0
S1130A9050937901409378018193919302C0E0E0EF
S1130AA0F0E0CF01DF91CF910895CF93DF930097CA
S1130AB009F487C0FC01329713821282C0917A0133
S1130AC0D0917B01209781F420813181280F391F37
S1130AD080917801909179018217930779F5F093C9
S1130AE07901E09378016DC0DE0120E030E0AE17BB
S1130AF0BF0750F412964D915C9113979D014115D7
S1130B00510509F1DA01F3CFB383A2834081518106
S1130B10840F951F8A179B0771F48D919C911197EF
S1130B20840F951F02969183808312968D919C91D8
S1130B301397938382832115310529F4F0937B0164
S1130B40E0937A013EC0D9011396FC93EE93129779
S1130B504D915D91A40FB51FEA17FB0779F48081CD
S1130B609181840F951F0296D90111969C938E93BF
S1130B708281938113969C938E931297E0E0F0E028
S1130B808A819B81009719F0FE01EC01F9CFCE0117
S1130B90029628813981820F931F20917801309128
S1130BA079012817390769F4309729F410927B01E9
S1130BB010927A0102C013821282D0937901C093F9
S1130BC07801DF91CF910895FC0105906150704048
S1130BD00110D8F7809590958E0F9F1F0895DC0122
S1130BE001C06D9341505040E0F70895FC016150FD
S1130BF0704001900110D8F7809590958E0F9F1F3B
S1130C0008950F931F93CF93DF93182F092FEB01B0
S1130C108B8181FD03C08FEF9FEF20C082FF10C046
S1130C204E815F812C813D81421753077CF4E8811A
S1130C30F9819F012F5F3F4F39832883108306C0BA
S1130C40E885F985812F0995892B29F72E813F8124
S1130C502F5F3F4F3F832E83812F902FDF91CF91C2
S1130C601F910F910895FA01AA27283051F12031DC
S1130C7081F1E8946F936E7F6E5F7F4F8F4F9F4F2C
S1130C80AF4FB1E03ED0B4E03CD0670F781F891F6E
S1130C909A1FA11D680F791F8A1F911DA11D6A0F3C
S1130CA0711D811D911DA11D20D009F468943F91EF
S1130CB02AE0269F11243019305D3193DEF6CF01EE
S1130CC00895462F4770405D4193B3E00FD0C9F7B4
S1130CD0F6CF462F4F70405D4A3318F0495D31FD21
S1130CE04052419302D0A9F7EACFB4E0A695979574
S1130CF0879577956795BA95C9F70097610571054A
S1130D0008959B01AC010A2E069457954795379593
S1130D102795BA95C9F7620F731F841F951FA01DED
S1130D2008952F923F924F925F926F927F928F928B
S1130D309F92AF92BF92CF92DF92EF92FF920F9366
S1130D401F93CF93DF93CDB7DEB7CA1BDB0B0FB670
S1130D50F894DEBF0FBECDBF09942A88398848882D
S1130D605F846E847D848C849B84AA84B984C884C3
S1130D70DF80EE80FD800C811B81AA81B981CE0FBA
S1130D80D11D0FB6F894DEBF0FBECDBFED0108959F
S1070D90F894FFCF01
S1130D9400007C01200041200073686974005465DC
S10B0DA46D703A2025690A0074
S9030000FC
