:100000000C9438000C9493000C94DA000C94550076
:100010000C9455000C9455000C9455000C9455000C
:100020000C9455000C9455000C9455000C945500FC
:100030000C9455000C9455000C9455000C945500EC
:100040000C9455000C9455000C9455000C945500DC
:100050000C9455000C9455000C9455000C945500CC
:100060000C9455000C9455000C9455000C945500BC
:1000700011241FBECFEFD4E0DEBFCDBF11E0A0E062
:10008000B1E0ECE8FDE002C005900D92A831B107A7
:10009000D9F721E0A8E1B1E001C01D92AC37B20769
:1000A000E1F70E94DC010C94C4060C940000CF938D
:1000B000C82F83E00E9410028C2F0E9410020E9421
:1000C0001402CF910895CF93DF93D82FC62F82E0EB
:1000D0000E9410028D2F0E9410028C2F0E9410028D
:1000E000DF91CF91089585B7806885BF80B7806222
:1000F00080BF08950E943E01E0916901F0916A017C
:1001000062E0808991890E944D01E0916901F0913E
:100110006A0162E0828993890E944D0180911801F1
:100120000E94C20108951F920F920FB60F921124E0
:100130002F933F934F935F936F937F938F939F93EF
:10014000AF93BF93EF93FF938091180181110BC080
:10015000E0916901F0916A018081918190936A0137
:100160008093690112C02091690130916A01E82FE2
:10017000F0E0EE0FFF1FE20FF31F808191810097E7
:1001800021F090936A0180936901109218010E94F6
:100190007A00FF91EF91BF91AF919F918F917F91E5
:1001A0006F915F914F913F912F910F900FBE0F90E4
:1001B0001F9018951F920F920FB60F9211242F9334
:1001C0003F934F935F936F937F938F939F93AF93DF
:1001D000BF93EF93FF93E0916901F0916A018081F1
:1001E000918190936A01809369010E947A00FF9146
:1001F000EF91BF91AF919F918F917F916F915F919F
:100200004F913F912F910F900FBE0F901F90189517
:1002100087708093700180558093001008959091AD
:100220006B01899F902D1124292F2F70E0E0F0E1C0
:10023000208392959F70905F9083809371010895C1
:1002400080E00E94080180E00E940F010895982F2D
:100250009F70E0E0F0E19083982F92959F70905FFF
:1002600090838093710108950E94080180E0E0E08E
:10027000F2E110828F5F8038E1F70895CF9380E438
:1002800080930010C0E08C2F0E943401CF5FC830F3
:10029000D1F70E942001CF9108959F92AF92BF9213
:1002A000CF92DF92EF92FF920F931F93CF93DF9342
:1002B000EC01962E862F0E940F01FE010190002076
:1002C000E9F73197EC1BFD0B1E161F060CF04EC014
:1002D0007E016E01CE0EDF1ECBE6D1E0A12CB12C4B
:1002E00000E012E1D7014D917D014A3031F02881C3
:1002F00030E0121613069CF035C08091700190E03A
:10030000019687709078992324F40197886F9F6FE6
:1003100001960E940801892D0E940F0123C08A2D99
:100320009B2D50E06A81FA01E61BF109BF01269F6F
:10033000F001279FF00D369FF00D1124E80FF91FF3
:100340002B813C81E20FF31FE491D801EC933091B3
:1003500071012881320F30937101019630E08217CC
:10036000930704F3EC14FD0409F0BCCFDF91CF91A7
:100370001F910F91FF90EF90DF90CF90BF90AF90C3
:100380009F900895CF93C09170010E94080181E071
:100390000E942701E0E0F2E198E1908390838EE7EC
:1003A00080838CE38083908388E0809371018C2F1D
:1003B0000E940801CF91089583E086B98FEF8ABB30
:1003C0001BBA82E087B90E9473008FE190E00E941F
:1003D00021020E94090286E091E00E948F0265E2FC
:1003E00083E00E94630089E091E00E948F0283E035
:1003F0000E9457001F928F938EE091E09F938F93FE
:100400000E9479020F900F900F900F9080E090E083
:10041000089587B3806B87BBBE9881E58DB9089539
:100420008FB9779BFECF08951FB8779BFECF8FB112
:1004300008955D9BFECF8CB908955F9BFECF8CB174
:10044000089590BD89B988E18AB98EE880BD6DE1D3
:1004500072E089E192E00E942E0208950F931F93AB
:10046000CF93DF93009731F46115710519F480E0A3
:1004700090E03AC08B01EC016EE070E081E090E02A
:100480000E949104FC01892B91F380E8838301157C
:10049000110571F01387028781E8838380917201CF
:1004A00090917301892B21F4F0937301E093720111
:1004B0002097C9F0D187C087838182608383809130
:1004C000740190917501892B71F4F0937501E0939B
:1004D00074018091760190917701892B21F4F0933A
:1004E0007701E0937601CF01DF91CF911F910F91BA
:1004F0000895A0E0B0E0EFE7F2E00C949D06AE01B5
:100500004B5F5F4FFA0161917191AF01809174016E
:10051000909175010E94BF02E2E00C94B9060F931E
:100520001F93CF93DF93E0917401F09175012381C4
:1005300021FF1BC08C01D0E0C0E0F80181918F0148
:100540006091740170917501DB011896ED91FC9139
:100550001997882331F00995892B79F3DFEFCFEFD5
:10056000ECCF8AE00995892B19F08FEF9FEF02C03D
:100570008D2F9C2FDF91CF911F910F910895ACE0AB
:10058000B0E0E5ECF2E00C948D067C016B018A0191
:10059000FC0117821682838181FFBDC1CE010196C5
:1005A0004C01F7019381F60193FD859193FF8191B1
:1005B0006F01882309F4ABC1853239F493FD85912D
:1005C00093FF81916F01853229F4B70190E00E9479
:1005D000F705E7CF512C312C20E02032A0F48B32EC
:1005E00069F030F4803259F0833269F420612CC014
:1005F0008D3239F0803339F4216026C022602460C6
:1006000023C0286021C027FD27C030ED380F3A30C5
:1006100078F426FF06C0FAE05F9E300D1124532EB9
:1006200013C08AE0389E300D1124332E20620CC096
:100630008E3221F426FD6BC1206406C08C3611F485
:10064000206802C0883641F4F60193FD859193FF3E
:1006500081916F018111C1CF982F9F7D9554933067
:1006600028F40C5F1F4FFFE3F9830DC0833631F090
:10067000833771F0833509F05BC022C0F8018081B7
:1006800089830E5F1F4F44244394512C540115C09D
:100690003801F2E06F0E711CF801A080B18026FFD6
:1006A00003C0652D70E002C06FEF7FEFC5012C879E
:1006B0000E94EC052C0183012C852F77222E17C078
:1006C0003801F2E06F0E711CF801A080B18026FFA6
:1006D00003C0652D70E002C06FEF7FEFC5012C876E
:1006E0000E94DA052C012C852068222E830123FC30
:1006F0001BC0832D90E048165906B0F4B70180E284
:1007000090E00E94F7053A94F4CFF50127FC85911B
:1007100027FE81915F01B70190E00E94F70531103B
:100720003A94F1E04F1A51084114510471F7E5C0B1
:10073000843611F0893639F5F80127FF07C060814A
:100740007181828193810C5F1F4F08C0608171812C
:10075000072E000C880B990B0E5F1F4F2F76722E01
:1007600097FF09C090958095709561957F4F8F4F49
:100770009F4F2068722E2AE030E0A4010E942F06CD
:10078000A82EA81844C0853729F42F7EB22E2AE05F
:1007900030E025C0F22FF97FBF2E8F36C1F018F45C
:1007A000883579F0B4C0803719F0883721F0AFC0B0
:1007B0002F2F2061B22EB4FE0DC08B2D8460B82E79
:1007C00009C024FF0AC09F2F9660B92E06C028E0FA
:1007D00030E005C020E130E002C020E132E0F80165
:1007E000B7FE07C060817181828193810C5F1F4FCA
:1007F00006C06081718180E090E00E5F1F4FA40110
:100800000E942F06A82EA818FB2DFF777F2E76FEBC
:100810000BC0372D3E7FA51450F474FE0AC072FC45
:1008200008C0372D3E7E05C0BA2C372D03C0BA2C28
:1008300001C0B52C34FF0DC0FE01EA0DF11D808111
:10084000803311F4397E09C032FF06C0B394B394EB
:1008500004C0832F867809F0B39433FD13C030FFB2
:1008600006C05A2CB31418F4530C5B18B32CB314F1
:1008700068F4B70180E290E03C870E94F705B394EA
:100880003C85F5CFB31410F43B1801C0312C34FF74
:1008900012C0B70180E390E03C870E94F7053C85D9
:1008A00032FF17C031FD03C088E790E002C088E541
:1008B00090E0B7010CC0832F867859F031FF02C059
:1008C0008BE201C080E237FD8DE2B70190E00E942B
:1008D000F705A51438F4B70180E390E00E94F7050E
:1008E0005A94F7CFAA94F401EA0DF11D8081B70163
:1008F00090E00E94F705A110F5CF332009F451CE06
:10090000B70180E290E00E94F7053A94F6CFF70134
:100910008681978102C08FEF9FEF2C96E2E10C94C5
:10092000A9060F931F93CF93DF93869F8001879F24
:10093000100D969F100D1124C8010E94AD04EC010A
:10094000009729F0A80160E070E00E94E505CE0163
:10095000DF91CF911F910F910895CF93DF93823054
:10096000910510F482E090E0E0917A01F0917B0132
:1009700020E030E0C0E0D0E0309711F140815181BB
:1009800048175907C0F04817590761F482819381CD
:10099000209719F09B838A832BC090937B018093CF
:1009A0007A0126C02115310519F04217530718F4B2
:1009B0009A01BE01DF01EF010280F381E02DDCCF5F
:1009C0002115310509F1281B390B2430310590F42C
:1009D00012968D919C9113976115710521F0FB0181
:1009E0009383828304C090937B0180937A01FD01FD
:1009F000329644C0FD01E20FF31F81939193225080
:100A000031092D933C933AC02091780130917901BE
:100A1000232B41F42091020130910301309379019D
:100A200020937801209100013091010121153105B9
:100A300041F42DB73EB74091040150910501241BAC
:100A4000350BE0917801F0917901E217F307A0F4FA
:100A50002E1B3F0B2817390778F0AC014E5F5F4F14
:100A60002417350748F04E0F5F1F509379014093CC
:100A700078018193919302C0E0E0F0E0CF01DF9133
:100A8000CF9108950F931F93CF93DF93009709F4AD
:100A90008CC0FC0132971382128200917A0110916E
:100AA0007B010115110581F420813181820F931F93
:100AB00020917801309179012817390779F5F09361
:100AC0007901E093780171C0D80140E050E0AE17A1
:100AD000BF0750F412962D913C911397AD0121154B
:100AE000310509F1D901F3CF9D01DA013383228366
:100AF00060817181860F971F8217930769F4EC015B
:100B000028813981260F371F2E5F3F4F3183208385
:100B10008A819B8193838283452B29F4F0937B0107
:100B2000E0937A0142C01396FC93EE931297ED0185
:100B3000499159919E01240F351FE217F30771F473
:100B400080819181840F951F029611969C938E93BC
:100B50008281938113969C938E931297E0E0F0E04C
:100B6000D80112968D919C911397009719F0F80176
:100B70008C01F6CF8D919C9198012E5F3F4F820F93
:100B8000931F20917801309179012817390769F472
:100B9000309729F410927B0110927A0102C01382DF
:100BA00012821093790100937801DF91CF911F9108
:100BB0000F910895FC010590615070400110D8F725
:100BC000809590958E0F9F1F0895DC0101C06D9355
:100BD00041505040E0F70895FC0161507040019091
:100BE0000110D8F7809590958E0F9F1F08950F9351
:100BF0001F93CF93DF93FB01238121FD03C08FEF70
:100C00009FEF28C022FF16C046815781248135817D
:100C10004217530744F4A081B1819D012F5F3F4FDC
:100C2000318320838C93268137812F5F3F4F378319
:100C3000268310C0EB01092F182F0084F185E02DC9
:100C40000995892BE1F68E819F8101969F838E8382
:100C5000812F902FDF91CF911F910F910895FA016D
:100C6000AA27283051F1203181F1E8946F936E7FEB
:100C70006E5F7F4F8F4F9F4FAF4FB1E03ED0B4E0DC
:100C80003CD0670F781F891F9A1FA11D680F791F1D
:100C90008A1F911DA11D6A0F711D811D911DA11D2E
:100CA00020D009F468943F912AE0269F112430193E
:100CB000305D3193DEF6CF010895462F4770405DD9
:100CC0004193B3E00FD0C9F7F6CF462F4F70405D88
:100CD0004A3318F0495D31FD4052419302D0A9F7E3
:100CE000EACFB4E0A6959795879577956795BA95DD
:100CF000C9F700976105710508959B01AC010A2EA3
:100D000006945795479537952795BA95C9F7620F79
:100D1000731F841F951FA01D08952F923F924F921D
:100D20005F926F927F928F929F92AF92BF92CF927B
:100D3000DF92EF92FF920F931F93CF93DF93CDB784
:100D4000DEB7CA1BDB0B0FB6F894DEBF0FBECDBFFC
:100D500009942A88398848885F846E847D848C84CD
:100D60009B84AA84B984C884DF80EE80FD800C81D6
:100D70001B81AA81B981CE0FD11D0FB6F894DEBFB9
:0C0D80000FBECDBFED010895F894FFCF29
:100D8C0000007C01200041200073686974005465E8
:080D9C006D703A2025690A0080
:00000001FF
