:100000000C9438000C94AD010C94F3010C94550041
:100010000C9455000C9455000C9455000C9455000C
:100020000C9455000C9455000C9455000C945500FC
:100030000C9455000C9455000C9455000C945500EC
:100040000C9455000C9455000C9455000C945500DC
:100050000C9455000C9455000C9455000C945500CC
:100060000C9455000C9455000C9455000C945500BC
:1000700011241FBECFEFD4E0DEBFCDBF11E0A0E062
:10008000B1E0E6E7F0E102C005900D92A432B107BD
:10009000D9F721E0A4E2B1E001C01D92A43AB20771
:1000A000E1F70E940B030C9439080C9400000E94A5
:1000B00088014FEF60E680E60E94660140E064E060
:1000C00080E60E94660145E065E08BE20E946601E1
:1000D00040E060EE8FE00E94660108958F929F924B
:1000E000AF92BF92CF92DF92EF92FF920F931F9346
:1000F000CF93DF93CDB7DEB762970FB6F894DEBF2C
:100100000FBECDBF89829A82AB82BC82CD82DE8255
:10011000EF82F88609871A872B873C874D875E8791
:100120006F87788B898B9A8BC92C80E30E9433016F
:1001300083FDFBCF682D6295660F607E82E30E948F
:100140004501682D66956695669581E30E94450197
:100150006C2D85E30E944501D12C1C141D04A4F4D0
:100160007E0183E0E80EF11C00E010E0F701608101
:10017000F2E0EF0EF11C86E3800F0E9445010F5F55
:100180001F4F0C151D0594F381E00E9459016296E2
:100190000FB6F894DEBF0FBECDBFDF91CF911F9198
:1001A0000F91FF90EF90DF90CF90BF90AF909F9016
:1001B0008F90089585E0809300148DE08A95F1F783
:1001C0000000E0E0F4E1808190E0909325018093CD
:1001D000240184E080838DE08A95F1F7000080910E
:1001E000001490E09093270180932601089584E005
:1001F000809300148DE08A95F1F70000E0E0F4E1CF
:10020000208130E08091260190912701281B390B35
:1002100043E6429FC001439F900D11246FE770E0B9
:100220000E948C0370932B0160932A0185E08083E8
:100230008DE08A95F1F700002091001430E0809164
:10024000240190912501281B390B429FC001439F37
:10025000900D11246FE770E00E948C0370932901C8
:10026000609328010895CF93C82F0E94750383E0FF
:100270000E9468038C2F0E9468030E946C03C82FA1
:100280000E9473038C2FCF910895CF93DF93D82FC3
:10029000C62F0E94750382E00E9468038D2F0E9482
:1002A00068038C2F0E9468030E947303DF91CF9133
:1002B0000895CF93C82F0E9475038C2F87708058A4
:1002C0000E9468030E947303CF9108951F93CF93F8
:1002D000DF93182FD62FC42F0E94750385E00E944C
:1002E0006803812F0E9468038D2F0E9468038C2F62
:1002F0000E9468030E947303DF91CF911F910895BC
:100300000E94750380EC0E9468030E9473030895A5
:100310000E945F030E948001089585B7806885BFB1
:1003200080B7806280BF08950E945702E0919601D5
:10033000F091970162E0808991890E946602E091C4
:100340009601F091970162E0828993890E9466028A
:10035000809131010E94F10208951F920F920FB611
:100360000F9211242F933F934F935F936F937F933B
:100370008F939F93AF93BF93EF93FF93E0913101DE
:10038000E1110BC0E0919601F0919701808191817C
:10039000909397018093960111C08091960190915E
:1003A0009701F0E0EE0FFF1FE80FF91F80819181A8
:1003B000009721F09093970180939601109231015C
:1003C0000E949401FF91EF91BF91AF919F918F9106
:1003D0007F916F915F914F913F912F910F900FBE41
:1003E0000F901F9018951F920F920FB60F92112425
:1003F0002F933F934F935F936F937F938F939F932D
:10040000AF93BF93EF93FF93E0919601F091970123
:100410008081918190939701809396010E9494012D
:10042000FF91EF91BF91AF919F918F917F916F91CC
:100430005F914F913F912F910F900FBE0F901F90A2
:1004400018958770809398018055809300100895C7
:1004500090912C01899F902D1124292F2F70E0E07D
:10046000F0E1208392959F70905F90838093990133
:10047000089580E00E94210280E00E9428020895F1
:10048000982F9F70E0E0F0E19083982F92959F70F5
:10049000905F90838093990108950E94210280E0EB
:1004A000E0E0F2E110828F5F8038E1F70895CF93AA
:1004B00080E480930010C0E08C2F0E944D02CF5F3B
:1004C000C830D1F70E943902CF9108953F924F92E0
:1004D0005F926F927F928F929F92AF92BF92CF92D4
:1004E000DF92EF92FF920F931F93CF93DF93EC0174
:1004F000362E862F0E942802FE0101900020E9F787
:1005000031973F016C1A7D0A161417040CF057C07E
:100510004E01A12CB12CCCE2D1E0512C412C0F2E5C
:10052000FFE2CF2EF1E0DF2EF02D0F2EFEE2EF2EB8
:10053000F1E0FF2EF02D00E012E1D4014D914D01CC
:100540004A3031F0288130E0121613066CF030C0CA
:100550008091980190E00196877090780E94210226
:10056000832D0E94280224C0852D942D50E0F70190
:100570006081DA01A61BB1092A9FF0012B9FF00DC3
:100580003A9FF00D1124E80FF91FD6012D913C91EF
:10059000E20FF31FE491D801EC9330919901288187
:1005A000320F30939901019630E082179307FCF2E5
:1005B000BFEFAB1ABB0A6A147B0409F0BECFDF9110
:1005C000CF911F910F91FF90EF90DF90CF90BF9050
:1005D000AF909F908F907F906F905F904F903F90E3
:1005E0000895CF93C09198010E94210281E00E945A
:1005F0004002E0E0F2E198E1908390838EE780830F
:100600008CE38083908388E0809399018C2F0E94F3
:100610002102CF910895CF93DF93CDB7DEB76297D4
:100620000FB6F894DEBF0FBECDBF83E086B98FEF63
:100630008ABB1BBA82E087B90E948D018FE190E0EE
:100640000E947F0386E091E00E9413040E94DA007A
:100650000E94570081E089838A830F2EF8E24F2E93
:10066000F1E05F2EF02D0F2EF6E16F2EF1E07F2EE0
:10067000F02D0E94F700F201808191818B839C8391
:100680009F938F937F926F920E94FF0389809A803D
:10069000AB80BC80CD80DE80EF80F88409851A8530
:1006A0002B853C854D855E856F85788989899A89FA
:1006B0000E946E000F900F900F900F90DACF87B3CB
:1006C000806B87BBBE98C69A8DB181658DB9089540
:1006D0008FB9779BFECF08958FEF0E946803779BB9
:1006E000FECF8FB10895C49A0895C49808955D9B74
:1006F000FECF8CB908955F9BFECF8CB1089590BD5D
:1007000089B988E18AB98EE880BD6BE773E087E735
:1007100093E00E94B403089597FB072E16F400940B
:1007200007D077FD09D00E94A00307FC05D03EF456
:10073000909581959F4F0895709561957F4F08958D
:10074000AA1BBB1B51E107C0AA1FBB1FA617B707F7
:1007500010F0A61BB70B881F991F5A95A9F7809513
:100760009095BC01CD0108950F931F93CF93DF9314
:10077000EC018B01009731F46115710519F480E0EB
:1007800090E038C06EE070E081E090E00E941206D8
:10079000FC010097A1F380E883830115110571F036
:1007A0001387028781E8838380919A0190919B014E
:1007B000892B21F4F0939B01E0939A012097C9F0D3
:1007C000D187C08783818260838380919C019091CF
:1007D0009D01892B71F4F0939D01E0939C01809120
:1007E0009E0190919F01892B21F4F0939F01E0934A
:1007F0009E01CF01DF91CF911F910F910895A0E04D
:10080000B0E0E5E0F4E00C941208FE013596619149
:100810007191AF0180919C0190919D010E944004D3
:10082000E2E00C942E080F931F93CF93DF93E09197
:100830009C01F0919D01238121FF1BC0EC0100E090
:1008400010E0899160919C0170919D01DB011896E7
:10085000ED91FC911997882331F00995892B89F343
:100860000FEF1FEFEECF8AE00995892B11F4C80135
:1008700002C08FEF9FEFDF91CF911F910F910895ED
:10088000ACE0B0E0E6E4F4E00C9402087C016B011B
:100890008A01FC0117821682838181FFBDC1CE01CE
:1008A00001964C01F7019381F60193FD859193FF29
:1008B00081916F01882309F4ABC1853239F493FD2E
:1008C000859193FF81916F01853229F4B70190E002
:1008D0000E947207E7CF512C312C20E02032A0F487
:1008E0008B3269F030F4803259F0833269F4206140
:1008F0002CC08D3239F0803339F4216026C022605B
:10090000246023C0286021C027FD27C030ED380FA8
:100910003A3078F426FF06C0FAE05F9E300D1124CD
:10092000532E13C08AE0389E300D1124332E2062DE
:100930000CC08E3221F426FD6BC1206406C08C36BB
:1009400011F4206802C0883641F4F60193FD8591C8
:1009500093FF81916F018111C1CF982F9F7D955495
:10096000933028F40C5F1F4FFFE3F9830DC08336EB
:1009700031F0833771F0833509F05BC022C0F80194
:10098000808189830E5F1F4F44244394512C54016E
:1009900015C03801F2E06F0E711CF801A080B18023
:1009A00026FF03C0652D70E002C06FEF7FEFC50129
:1009B0002C870E9467072C0183012C852F77222E1C
:1009C00017C03801F2E06F0E711CF801A080B180F1
:1009D00026FF03C0652D70E002C06FEF7FEFC501F9
:1009E0002C870E9455072C012C852068222E83011C
:1009F00023FC1BC0832D90E048165906B0F4B701C4
:100A000080E290E00E9472073A94F4CFF50127FC4F
:100A1000859127FE81915F01B70190E00E947207E6
:100A200031103A94F1E04F1A51084114510471F712
:100A3000E5C0843611F0893639F5F80127FF07C083
:100A400060817181828193810C5F1F4F08C060813A
:100A50007181882777FD8095982F0E5F1F4F2F7625
:100A6000B22E97FF09C090958095709561957F4F44
:100A70008F4F9F4F2068B22E2AE030E0A4010E94E1
:100A8000A407A82EA81844C0853729F42F7EB22EBB
:100A90002AE030E025C0F22FF97FBF2E8F36C1F05B
:100AA00018F4883579F0B4C0803719F0883721F010
:100AB000AFC02F2F2061B22EB4FE0DC08B2D8460ED
:100AC000B82E09C024FF0AC09F2F9660B92E06C019
:100AD00028E030E005C020E130E002C020E132E053
:100AE000F801B7FE07C060817181828193810C5F3C
:100AF0001F4F06C06081718180E090E00E5F1F4F44
:100B0000A4010E94A407A82EA818FB2DFF77BF2ED2
:100B1000B6FE0BC02B2D2E7FA51450F4B4FE0AC0D8
:100B2000B2FC08C02B2D2E7E05C07A2C2B2D03C0C5
:100B30007A2C01C0752C24FF0DC0FE01EA0DF11DB9
:100B40008081803311F4297E09C022FF06C073948E
:100B5000739404C0822F867809F0739423FD13C028
:100B600020FF06C05A2C731418F4530C5718732C1A
:100B7000731468F4B70180E290E02C870E9472073A
:100B800073942C85F5CF731410F4371801C0312CF1
:100B900024FF12C0B70180E390E02C870E94720707
:100BA0002C8522FF17C021FF03C088E590E002C01A
:100BB00088E790E0B7010CC0822F867859F021FDBC
:100BC00002C080E201C08BE227FD8DE2B70190E018
:100BD0000E947207A51438F4B70180E390E00E94E8
:100BE00072075A94F7CFAA94F401EA0DF11D80819F
:100BF000B70190E00E947207A110F5CF332009F4ED
:100C000051CEB70180E290E00E9472073A94F6CF8D
:100C1000F7018681978102C08FEF9FEF2C96E2E16A
:100C20000C941E080F931F93CF93DF93869F800130
:100C3000879F100D969F100D1124C8010E942E064B
:100C4000EC01009729F0A80160E070E00E946007C5
:100C5000CE01DF91CF911F910F910895CF93DF9334
:100C60008230910510F482E090E0E091A201F091D1
:100C7000A30120E030E0A0E0B0E0309739F14081FE
:100C8000518148175907B8F04817590771F4828104
:100C90009381109729F013969C938E9312972CC0F2
:100CA0009093A3018093A20127C02115310531F053
:100CB0004217530718F0A901DB0101C0EF019A01A7
:100CC000BD01DF010280F381E02DD7CF2115310571
:100CD000F9F0281B390B2430310580F48A819B817F
:100CE0006115710521F0FB019383828304C0909309
:100CF000A3018093A201FE01329644C0FE01E20FDF
:100D0000F31F8193919322503109398328833AC08C
:100D10002091A0013091A101232B41F420910201E7
:100D2000309103013093A1012093A0012091000193
:100D3000309101012115310541F42DB73EB74091A5
:100D4000040150910501241B350BE091A001F091A5
:100D5000A101E217F307A0F42E1B3F0B2817390758
:100D600078F0AC014E5F5F4F2417350748F04E0F07
:100D70005F1F5093A1014093A0018193919302C002
:100D8000E0E0F0E0CF01DF91CF910895CF93DF93C2
:100D9000009709F487C0FC01329713821282C09138
:100DA000A201D091A301209781F420813181280FE5
:100DB000391F8091A0019091A1018217930779F5C5
:100DC000F093A101E093A0016DC0DE0120E030E0CE
:100DD000AE17BF0750F412964D915C9113979D0189
:100DE0004115510509F1DA01F3CFB383A2834081A4
:100DF0005181840F951F8A179B0771F48D919C91E7
:100E00001197840F951F02969183808312968D917E
:100E10009C911397938382832115310529F4F093D4
:100E2000A301E093A2013EC0D9011396FC93EE9377
:100E300012974D915D91A40FB51FEA17FB0779F446
:100E400080819181840F951F0296D90111969C9300
:100E50008E938281938113969C938E931297E0E0F8
:100E6000F0E08A819B81009719F0FE01EC01F9CF37
:100E7000CE01029628813981820F931F2091A00113
:100E80003091A1012817390769F4309729F410929D
:100E9000A3011092A20102C013821282D093A10179
:100EA000C093A001DF91CF910895FC01059061509E
:100EB00070400110D8F7809590958E0F9F1F089570
:100EC000DC0101C06D9341505040E0F70895FC01F2
:100ED0006150704001900110D8F7809590958E0F69
:100EE0009F1F08950F931F93CF93DF93182F092F00
:100EF000EB018B8181FD03C08FEF9FEF20C082FF4C
:100F000010C04E815F812C813D81421753077CF4D4
:100F1000E881F9819F012F5F3F4F39832883108338
:100F200006C0E885F985812F0995892B29F72E813F
:100F30003F812F5F3F4F3F832E83812F902FDF9183
:100F4000CF911F910F910895FA01AA27283051F1EE
:100F5000203181F1E8946F936E7F6E5F7F4F8F4FEA
:100F60009F4FAF4FB1E03ED0B4E03CD0670F781F49
:100F7000891F9A1FA11D680F791F8A1F911DA11D2E
:100F80006A0F711D811D911DA11D20D009F4689467
:100F90003F912AE0269F11243019305D3193DEF60F
:100FA000CF010895462F4770405D4193B3E00FD0C5
:100FB000C9F7F6CF462F4F70405D4A3318F0495DB0
:100FC00031FD4052419302D0A9F7EACFB4E0A69593
:100FD0009795879577956795BA95C9F700976105B5
:100FE000710508959B01AC010A2E0694579547950B
:100FF00037952795BA95C9F7620F731F841F951F00
:10100000A01D08952F923F924F925F926F927F9210
:101010008F929F92AF92BF92CF92DF92EF92FF9208
:101020000F931F93CF93DF93CDB7DEB7CA1BDB0BB4
:101030000FB6F894DEBF0FBECDBF09942A88398859
:1010400048885F846E847D848C849B84AA84B98460
:10105000C884DF80EE80FD800C811B81AA81B9816C
:10106000CE0FD11D0FB6F894DEBF0FBECDBFED0180
:061070000895F894FFCF83
:101076000000A401200041746D656761313632209D
:101086007374617274006A6F795F706F733A2025AA
:04109600690A0000E3
:00000001FF
