S01200004F76696E67315F365F322E73726563B8
S11300000C94F6000C94CA010C9413020C94130182
S11300100C9413010C9413010C9413010C9413010C
S11300200C9413010C9413010C9413010C941301FC
S11300300C9413010C9413010C9413010C941301EC
S11300400C9413010C9413010C9413010C941301DC
S11300500C9413010C9413010C9413010C941301CC
S11300600C9413010C9413010C9413010C941301BC
S113007000000000005C00000C000C007C287C28C0
S113008058DC68002410480028542840000C000064
S1130090007884008478000054385400107C1000E8
S11300A080400000101010000040000060100C00A0
S11300B038543800487C40004864580044542C00AC
S11300C01C107C005C5424003854240064140C007C
S11300D068542C0048543800004800008048000050
S11300E0102844002828280044281000045408003C
S11300F038445C00781478007C5428003844280084
S11301007C4438007C5444007C140400384474005B
S11301107C107C00447C440020403C007C106C003B
S11301207C4040007C187C0078103C003844380047
S11301307C1408003844B8007C1468004854240037
S1130140047C04007C407C003C603C007C307C00EF
S11301506C106C000C700C0064544C00007C440067
S11301600C106000447C00000804080080808000BB
S113017000040800304878007C48300030484800CB
S113018030487C00306850001078140090A8780043
S11301907C08700050744000808074007C106800FB
S11301A0447C4000781078007808700030483000B3
S11301B0F82810003048F80078100800505828003B
S11301C0083C4800384078003840380078207800EF
S11301D04830480098A07800486858001078840097
S11301E0007C0000847810000804080411241FBE59
S11301F0CFEFD4E0DEBFCDBF12E0A0E0B1E0E2EE8D
S1130200FAE002C005900D92A430B107D9F722E0BC
S1130210A4E0B2E001C01D92A438B207E1F70E9445
S11302206D030C946F050C94000085B7806885BF3E
S113023080B7806280BF08950E94960286E091E0B4
S113024090934D0280934C02ECE3F2E0F183E0835F
S1130250A8E2B2E0B0933F02A0933E0284E692E0AB
S1130260909341028093400284E192E09093430290
S11302708093420280E592E0909345028093440289
S11302808EE191E090934F0280934E028FE391E0D0
S11302909093390280933802ED93FC93EAE2F2E002
S11302A088E392E011921192E817F907D9F787E5EC
S11302B091E090933B0280933A0284E791E090931B
S11302C07502809374028CE392E0909365028093AC
S11302D06402E6E6F2E084E792E011921192E817F4
S11302E0F907D9F78DE891E090937702809376022D
S11302F08EEA91E090932502809324028CE392E0AD
S11303009093150280931402E6E1F2E084E292E015
S113031011921192E817F907D9F786EC91E09093BE
S113032027028093260284EE91E0909361028093E9
S113033060028CE392E09093510280935002E2E5D4
S1130340F2E080E692E011921192E817F907D9F7EA
S113035088E292E0909379028093780210921302DB
S113036008950E948702E0917802F091790262E098
S1130370808991890E94C802E0917802F091790203
S113038062E0828993890E94C802809113020E94CC
S1130390530308951F920F920FB60F9211242F93B7
S11303A03F934F935F936F937F938F939F93AF93F9
S11303B0BF93EF93FF93E0917802F091790282E08A
S11303C0E832F80719F40E948F031CC080911302CD
S11303D0811107C080819181909379028093780282
S11303E00DC090E0880F991FE80FF91F808191815B
S11303F0009721F09093790280937802109213026F
S11304000E94B101FF91EF91BF91AF919F918F91A4
S11304107F916F915F914F913F912F910F900FBEFC
S11304200F901F9018951F920F920FB60F921124E0
S11304302F933F934F935F936F937F938F939F93E8
S1130440AF93BF93EF93FF93E0917802F091790219
S11304508081918190937902809378020E94B10106
S1130460FF91EF91BF91AF919F918F917F916F9188
S11304705F914F913F912F910F900FBE0F901F905E
S1130480189580E790E0909312028093110284E023
S113049080930E0286E080930F0280E28093100224
S11304A00895877080930402805580930010089506
S11304B090910E02899F902D1124292F2F70E0E036
S11304C0F0E1208392959F70905F90838093050262
S11304D0089580E00E94510280E00E94580208952D
S11304E0982F9F70E0E0F0E19083982F92959F7091
S11304F0905F90838093050208950E94510280E0EA
S1130500E0E0F2E110828F5F8038E1F70895CF9345
S113051080E480930010C0E08C2F0E947D02CF5FA6
S1130520C830D1F70E946902CF910895E0E0F0E16C
S11305308EEA808381EA80838AED808382E18083EE
S113054088EC808388EA80838FE3808385ED8083D1
S113055080E8808381E8808380E5808389ED8083DF
S113056081E2808380E2808382E080838BED8083DC
S113057080E380838DEA8083108284EA808386EA24
S113058080838FEA80830E9487020E94410208953B
S11305903F924F925F926F927F928F929F92AF920F
S11305A0BF92CF92DF92EF92FF920F931F93CF935C
S11305B0DF93EC01362E862F0E945802FE01019033
S11305C00020E9F731973F016C1A7D0A16141704CD
S11305D00CF057C04E01A12CB12CCEE0D2E0512C2E
S11305E0412C0F2EF1E1CF2EF2E0DF2EF02D0F2E55
S11305F0F0E1EF2EF2E0FF2EF02D00E012E1D40145
S11306004D914D014A3031F0288130E01216130625
S11306106CF030C08091040290E00196877090786D
S11306200E945102832D0E94580224C0852D942DCE
S113063050E0F7016081DA01A61BB1092A9FF0019D
S11306402B9FF00D3A9FF00D1124E80FF91FD601EE
S11306502D913C91E20FF31FE491D801EC9330917A
S113066005022881320F30930502019630E082178B
S11306709307FCF2BFEFAB1ABB0A6A147B0409F0C0
S1130680BECFDF91CF911F910F91FF90EF90DF903C
S1130690CF90BF90AF909F908F907F906F905F901E
S11306A04F903F900895CF93C09104020E9451024D
S11306B081E00E947002E0E0F2E198E1908390838F
S11306C08EE780838CE38083908388E080930502A7
S11306D08C2F0E945102CF91089583E086B98FEF49
S11306E08ABB1BBA82E087B90E9415018FE190E0B2
S11306F00E94A00383EF91E00E94F8030E94830309
S11307000E941C01FFCF81B3837F81BBF89485B71E
S11307108A6085BF8BB7806C8BBF78940895C09A2C
S113072083ED90E30197F1F700C00000C0980895AD
S11307305D9BFECF8CB908955F9BFECF8CB108956D
S113074090BD89B988E18AB98EE880BD6CE973E00F
S113075088E993E00E94AD0308950F931F93CF930C
S1130760DF93EC018B01009731F46115710519F4E5
S113077080E090E038C06EE070E081E090E00E949C
S11307802504FC010097A1F380E88383011511057A
S113079071F01387028781E8838380917A029091B4
S11307A07B02892B21F4F0937B02E0937A02209759
S11307B0C9F0D187C08783818260838380917C0262
S11307C090917D02892B71F4F0937D02E0937C0279
S11307D080917E0290917F02892B21F4F0937F0215
S11307E0E0937E02CF01DF91CF911F910F91089585
S11307F00F931F93CF93DF93E0917C02F0917D02DE
S1130800238121FF1BC0EC0100E010E0899160917D
S11308107C0270917D02DB011896ED91FC91199791
S1130820882331F00995892B89F30FEF1FEFEECF61
S11308308AE00995892B11F4C80102C08FEF9FEF5C
S1130840DF91CF911F910F9108950F931F93CF9331
S1130850DF93869F8001879F100D969F100D1124B2
S1130860C8010E944104EC01009729F0A80160E04E
S113087070E00E946805CE01DF91CF911F910F9126
S11308800895CF93DF938230910510F482E090E0D5
S1130890E0918202F091830220E030E0A0E0B0E039
S11308A0309739F14081518148175907B8F04817FA
S11308B0590771F482819381109729F013969C93C0
S11308C08E9312972CC0909383028093820227C048
S11308D02115310531F04217530718F0A901DB0146
S11308E001C0EF019A01BD01DF010280F381E02D17
S11308F0D7CF21153105F9F0281B390B24303105E8
S113090080F48A819B816115710521F0FB01938339
S1130910828304C09093830280938202FE01329604
S113092044C0FE01E20FF31F8193919322503109D9
S1130930398328833AC02091800230918102232B8D
S113094041F42091020130910301309381022093FC
S1130950800220910001309101012115310541F4FB
S11309602DB73EB74091040150910501241B350B6E
S1130970E0918002F0918102E217F307A0F42E1BAC
S11309803F0B2817390778F0AC014E5F5F4F2417EF
S1130990350748F04E0F5F1F509381024093800249
S11309A08193919302C0E0E0F0E0CF01DF91CF9119
S11309B00895CF93DF93009709F487C0FC01329721
S11309C013821282C0918202D0918302209781F413
S11309D020813181280F391F8091800290918102FA
S11309E08217930779F5F0938102E09380026DC03A
S11309F0DE0120E030E0AE17BF0750F412964D91AF
S1130A005C9113979D014115510509F1DA01F3CF6A
S1130A10B383A28340815181840F951F8A179B075A
S1130A2071F48D919C911197840F951F0296918377
S1130A30808312968D919C911397938382832115C1
S1130A40310529F4F0938302E09382023EC0D90178
S1130A501396FC93EE9312974D915D91A40FB51FDD
S1130A60EA17FB0779F480819181840F951F029620
S1130A70D90111969C938E938281938113969C93B2
S1130A808E931297E0E0F0E08A819B81009719F041
S1130A90FE01EC01F9CFCE01029628813981820F43
S1130AA0931F20918002309181022817390769F43D
S1130AB0309729F4109283021092820202C01382AA
S1130AC01282D0938102C0938002DF91CF91089566
S1130AD0DC0101C06D9341505040E0F70895F89453
S1050AE0FFCF42
S1130AE200008402200020202020202020203E20FC
S1130AF24D61696E206D656E75203C200A00506C54
S1130B0261792067616D65200A4869676873636F5C
S1130B12726573200A53657474696E67730A0042BE
S1130B2261636B202020203E20506C617920676134
S1130B326D65203C200A006E65772067616D652033
S1130B420A317631200A317673436F6D707574659C
S1130B5272200A004261636B20202020203E20483C
S1130B6269676873636F7265203C200A00506C6188
S1130B72796572312073636F72652E200A506C613D
S1130B82796572322073636F72652E200A004261A6
S1130B92636B20202020203E2053657474696E67A5
S1130BA273203C200A0063616C6962726174655F40
S1130BB26E6F6465200A766F6C756D655F6E6F6427
S1130BC265200A0044726177696E6720626F617200
S1130BD264200041746D656761313632207374613B
S1070BE27274000025
S9030000FC
