:100000000C9438000C94CE010C9414020C945500FE
:100010000C9455000C9455000C9455000C9455000C
:100020000C9455000C9455000C9455000C945500FC
:100030000C9455000C9455000C9455000C945500EC
:100040000C9455000C9455000C9455000C945500DC
:100050000C9455000C9455000C9455000C945500CC
:100060000C9455000C9455000C9455000C945500BC
:1000700011241FBECFEFD4E0DEBFCDBF11E0A0E062
:10008000B1E0ECEEFFE002C005900D92AC36B10796
:10009000D9F721E0ACE6B1E001C01D92A03DB20766
:1000A000E1F70E942C030C94F4070C9400000E94CA
:1000B000A9014FEF60E680E60E94870140E064E01E
:1000C00080E60E94870145E065E08BE20E9487019F
:1000D00040E060EE8FE00E94870108958F929F922A
:1000E000AF92BF92CF92DF92EF92FF920F931F9346
:1000F000CF93DF93CDB7DEB762970FB6F894DEBF2C
:100100000FBECDBF89829A82AB82BC82CD82DE8255
:10011000EF82F88609871A872B873C874D875E8791
:100120006F87788B898B9A8BC92C80E30E9454014E
:100130001F928F9386E091E09F938F930E94BA0362
:100140000F900F900F900F9080E30E94540183FD59
:10015000FBCF682D6295660F607E82E30E94660188
:10016000682D66956695669581E30E9466016C2D03
:1001700085E30E946601D12C1C141D04A4F47E01A9
:1001800083E0E80EF11C00E010E0F7016081F2E08E
:10019000EF0EF11C86E3800F0E9466010F5F1F4F78
:1001A0000C151D0594F380E30E9454011F928F9358
:1001B00006E011E01F930F930E94BA0381E00E94B2
:1001C0007A0180E30E9454011F928F931F930F9333
:1001D0000E94BA0388E191E00E94CE038CE20E9463
:1001E00054011F928F938CE291E09F938F930E9412
:1001F000BA030FB6F894DEBF0FBECDBF62960FB63E
:10020000F894DEBF0FBECDBFDF91CF911F910F914C
:10021000FF90EF90DF90CF90BF90AF909F908F9026
:100220000895CF93DF93CDB7DEB762970FB6F894FA
:10023000DEBF0FBECDBF0E94570083E0898388E0F8
:100240008A838BE490E09C838B8381E490E09E839F
:100250008D8322E530E038872F832CE430E03A8725
:10026000298723E530E03C872B8724E530E03E8773
:100270002D87988B8F8784E490E09A8B898B898077
:100280009A80AB80BC80CD80DE80EF80F8840985C9
:100290001A852B853C854D855E856F857889898992
:1002A0009A890E946E00EBCFCF93C82F0E9458030B
:1002B00083E00E944B038C2F0E944B030E944F034C
:1002C000C82F0E9456038C2FCF910895CF93DF93B0
:1002D000D82FC62F0E94580382E00E944B038D2F17
:1002E0000E944B038C2F0E944B030E945603DF9108
:1002F000CF910895CF93C82F0E9458038C2F8770F9
:1003000080580E944B030E945603CF9108951F937B
:10031000CF93DF93182FD62FC42F0E94580385E068
:100320000E944B03812F0E944B038D2F0E944B0391
:100330008C2F0E944B030E945603DF91CF911F9197
:1003400008950E94580380EC0E944B030E945603BC
:1003500008950E9442030E94A101089585B7806814
:1003600085BF80B7806280BF08950E947802E091C7
:10037000BD01F091BE0162E0808991890E948702EF
:10038000E091BD01F091BE0162E0828993890E94F3
:10039000870280916C010E94120308951F920F92B0
:1003A0000FB60F9211242F933F934F935F936F9348
:1003B0007F938F939F93AF93BF93EF93FF93E091BE
:1003C0006C01E1110BC0E091BD01F091BE01808193
:1003D00091819093BE018093BD0111C08091BD01B8
:1003E0009091BE01F0E0EE0FFF1FE80FF91F808132
:1003F0009181009721F09093BE018093BD011092EE
:100400006C010E94B501FF91EF91BF91AF919F9157
:100410008F917F916F915F914F913F912F910F90AD
:100420000FBE0F901F9018951F920F920FB60F924C
:1004300011242F933F934F935F936F937F938F93E9
:100440009F93AF93BF93EF93FF93E091BD01F09122
:10045000BE01808191819093BE018093BD010E9475
:10046000B501FF91EF91BF91AF919F918F917F91D6
:100470006F915F914F913F912F910F900FBE0F9011
:100480001F90189587708093C40180558093001049
:1004900008959091BF01899F902D1124292F2F70CD
:1004A000E0E0F0E1208392959F70905F90838093CD
:1004B000C501089580E00E94420280E00E94490246
:1004C0000895982F9F70E0E0F0E19083982F929527
:1004D0009F70905F90838093C50108950E944202AF
:1004E00080E0E0E0F2E110828F5F8038E1F708956C
:1004F000CF9380E480930010C0E08C2F0E946E02A6
:10050000CF5FC830D1F70E945A02CF9108953F9231
:100510004F925F926F927F928F929F92AF92BF9213
:10052000CF92DF92EF92FF920F931F93CF93DF93BF
:10053000EC01362E862F0E944902FE010190002018
:10054000E9F731973F016C1A7D0A161417040CF075
:1005500057C04E01A12CB12CCFEBD1E0512C412C36
:100560000F2EF2ECCF2EF1E0DF2EF02D0F2EF1EC5E
:10057000EF2EF1E0FF2EF02D00E012E1D4014D91BD
:100580004D014A3031F0288130E0121613066CF02C
:1005900030C08091C40190E00196877090780E94ED
:1005A0004202832D0E94490224C0852D942D50E0E3
:1005B000F7016081DA01A61BB1092A9FF0012B9F88
:1005C000F00D3A9FF00D1124E80FF91FD6012D917F
:1005D0003C91E20FF31FE491D801EC933091C501F7
:1005E0002881320F3093C501019630E082179307BE
:1005F000FCF2BFEFAB1ABB0A6A147B0409F0BECF52
:10060000DF91CF911F910F91FF90EF90DF90CF90EE
:10061000BF90AF909F908F907F906F905F904F9022
:100620003F900895CF93C091C4010E94420281E09F
:100630000E946102E0E0F2E198E1908390838EE70E
:1006400080838CE38083908388E08093C5018C2F26
:100650000E944202CF91089583E086B98FEF8ABB52
:100660001BBA82E087B90E94AE018FE190E00E9440
:1006700062038CE591E00E94CE030E94110180E0AC
:1006800090E0089587B3806B87BBBE98C69A8DB102
:1006900081658DB908958FB9779BFECF08958FEF4F
:1006A0000E944B03779BFECF8FB10895C49A0895A3
:1006B000C49808955D9BFECF8CB908955F9BFECFD3
:1006C0008CB1089590BD89B988E18AB98EE880BD62
:1006D0006EE573E08AE593E00E946F0308950F933F
:1006E0001F93CF93DF93EC018B01009731F46115D9
:1006F000710519F480E090E038C06EE070E081E0B0
:1007000090E00E94CD05FC010097A1F380E883836F
:100710000115110571F01387028781E883838091A9
:10072000C6019091C701892B21F4F093C701E09392
:10073000C6012097C9F0D187C087838182608383F7
:100740008091C8019091C901892B71F4F093C9017E
:10075000E093C8018091CA019091CB01892B21F4CB
:10076000F093CB01E093CA01CF01DF91CF911F91AC
:100770000F910895A0E0B0E0E0ECF3E00C94CD0719
:10078000FE01359661917191AF018091C801909100
:10079000C9010E94FB03E2E00C94E9070F931F9349
:1007A000CF93DF93E091C801F091C901238121FF2C
:1007B0001BC0EC0100E010E089916091C8017091CC
:1007C000C901DB011896ED91FC911997882331F04E
:1007D0000995892B89F30FEF1FEFEECF8AE009957A
:1007E000892B11F4C80102C08FEF9FEFDF91CF91E9
:1007F0001F910F910895ACE0B0E0E1E0F4E00C94BB
:10080000BD077C016B018A01FC011782168283817E
:1008100081FFBDC1CE0101964C01F7019381F60124
:1008200093FD859193FF81916F01882309F4ABC1FA
:10083000853239F493FD859193FF81916F01853263
:1008400029F4B70190E00E942D07E7CF512C312CFD
:1008500020E02032A0F48B3269F030F4803259F07D
:10086000833269F420612CC08D3239F0803339F441
:10087000216026C02260246023C0286021C027FD9B
:1008800027C030ED380F3A3078F426FF06C0FAE082
:100890005F9E300D1124532E13C08AE0389E300D18
:1008A0001124332E20620CC08E3221F426FD6BC140
:1008B000206406C08C3611F4206802C0883641F4EA
:1008C000F60193FD859193FF81916F018111C1CF55
:1008D000982F9F7D9554933028F40C5F1F4FFFE3B2
:1008E000F9830DC0833631F0833771F0833509F019
:1008F0005BC022C0F801808189830E5F1F4F4424B2
:100900004394512C540115C03801F2E06F0E711C54
:10091000F801A080B18026FF03C0652D70E002C001
:100920006FEF7FEFC5012C870E9422072C01830106
:100930002C852F77222E17C03801F2E06F0E711C24
:10094000F801A080B18026FF03C0652D70E002C0D1
:100950006FEF7FEFC5012C870E9410072C012C85BB
:100960002068222E830123FC1BC0832D90E04816B3
:100970005906B0F4B70180E290E00E942D073A9446
:10098000F4CFF50127FC859127FE81915F01B70126
:1009900090E00E942D0731103A94F1E04F1A51086F
:1009A0004114510471F7E5C0843611F0893639F5E8
:1009B000F80127FF07C060817181828193810C5FFC
:1009C0001F4F08C060817181882777FD8095982F1F
:1009D0000E5F1F4F2F76B22E97FF09C0909580951E
:1009E000709561957F4F8F4F9F4F2068B22E2AE000
:1009F00030E0A4010E945F07A82EA81844C08537E4
:100A000029F42F7EB22E2AE030E025C0F22FF97FA4
:100A1000BF2E8F36C1F018F4883579F0B4C0803716
:100A200019F0883721F0AFC02F2F2061B22EB4FE0D
:100A30000DC08B2D8460B82E09C024FF0AC09F2FE3
:100A40009660B92E06C028E030E005C020E130E015
:100A500002C020E132E0F801B7FE07C06081718179
:100A6000828193810C5F1F4F06C06081718180E09D
:100A700090E00E5F1F4FA4010E945F07A82EA818E8
:100A8000FB2DFF77BF2EB6FE0BC02B2D2E7FA5149E
:100A900050F4B4FE0AC0B2FC08C02B2D2E7E05C057
:100AA0007A2C2B2D03C07A2C01C0752C24FF0DC08D
:100AB000FE01EA0DF11D8081803311F4297E09C009
:100AC00022FF06C07394739404C0822F867809F0C5
:100AD000739423FD13C020FF06C05A2C731418F41E
:100AE000530C5718732C731468F4B70180E290E02C
:100AF0002C870E942D0773942C85F5CF731410F466
:100B0000371801C0312C24FF12C0B70180E390E0F8
:100B10002C870E942D072C8522FF17C021FF03C0C0
:100B200088E590E002C088E790E0B7010CC0822F12
:100B3000867859F021FD02C080E201C08BE227FDDA
:100B40008DE2B70190E00E942D07A51438F4B7019B
:100B500080E390E00E942D075A94F7CFAA94F40105
:100B6000EA0DF11D8081B70190E00E942D07A110D0
:100B7000F5CF332009F451CEB70180E290E00E9416
:100B80002D073A94F6CFF7018681978102C08FEF47
:100B90009FEF2C96E2E10C94D9070F931F93CF930C
:100BA000DF93869F8001879F100D969F100D112463
:100BB000C8010E94E905EC01009729F0A80160E056
:100BC00070E00E941B07CE01DF91CF911F910F9122
:100BD0000895CF93DF938230910510F482E090E086
:100BE000E091CE01F091CF0120E030E0A0E0B0E054
:100BF000309739F14081518148175907B8F04817AB
:100C0000590771F482819381109729F013969C9370
:100C10008E9312972CC09093CF018093CE0127C062
:100C20002115310531F04217530718F0A901DB01F6
:100C300001C0EF019A01BD01DF010280F381E02DC7
:100C4000D7CF21153105F9F0281B390B2430310598
:100C500080F48A819B816115710521F0FB019383EA
:100C6000828304C09093CF018093CE01FE0132961F
:100C700044C0FE01E20FF31F81939193225031098A
:100C8000398328833AC02091CC013091CD01232BA8
:100C900041F420910201309103013093CD01209362
:100CA000CC0120910001309101012115310541F461
:100CB0002DB73EB74091040150910501241B350B1F
:100CC000E091CC01F091CD01E217F307A0F42E1BC7
:100CD0003F0B2817390778F0AC014E5F5F4F2417A0
:100CE000350748F04E0F5F1F5093CD014093CC0164
:100CF0008193919302C0E0E0F0E0CF01DF91CF91CA
:100D00000895CF93DF93009709F487C0FC013297D1
:100D100013821282C091CE01D091CF01209781F42D
:100D200020813181280F391F8091CC019091CD0114
:100D30008217930779F5F093CD01E093CC016DC054
:100D4000DE0120E030E0AE17BF0750F412964D915F
:100D50005C9113979D014115510509F1DA01F3CF1B
:100D6000B383A28340815181840F951F8A179B070B
:100D700071F48D919C911197840F951F0296918328
:100D8000808312968D919C91139793838283211572
:100D9000310529F4F093CF01E093CE013EC0D90193
:100DA0001396FC93EE9312974D915D91A40FB51F8E
:100DB000EA17FB0779F480819181840F951F0296D1
:100DC000D90111969C938E938281938113969C9363
:100DD0008E931297E0E0F0E08A819B81009719F0F2
:100DE000FE01EC01F9CFCE01029628813981820FF4
:100DF000931F2091CC013091CD012817390769F458
:100E0000309729F41092CF011092CE0102C01382C4
:100E10001282D093CD01C093CC01DF91CF91089580
:100E2000FC010590615070400110D8F780959095B5
:100E30008E0F9F1F0895DC0101C06D9341505040FB
:100E4000E0F70895FC016150704001900110D8F75F
:100E5000809590958E0F9F1F08950F931F93CF93AA
:100E6000DF93182F092FEB018B8181FD03C08FEFDA
:100E70009FEF20C082FF10C04E815F812C813D8199
:100E8000421753077CF4E881F9819F012F5F3F4FA0
:100E900039832883108306C0E885F985812F099559
:100EA000892B29F72E813F812F5F3F4F3F832E8370
:100EB000812F902FDF91CF911F910F910895FA010B
:100EC000AA27283051F1203181F1E8946F936E7F89
:100ED0006E5F7F4F8F4F9F4FAF4FB1E03ED0B4E07A
:100EE0003CD0670F781F891F9A1FA11D680F791FBB
:100EF0008A1F911DA11D6A0F711D811D911DA11DCC
:100F000020D009F468943F912AE0269F11243019DB
:100F1000305D3193DEF6CF010895462F4770405D76
:100F20004193B3E00FD0C9F7F6CF462F4F70405D25
:100F30004A3318F0495D31FD4052419302D0A9F780
:100F4000EACFB4E0A6959795879577956795BA957A
:100F5000C9F700976105710508959B01AC010A2E40
:100F600006945795479537952795BA95C9F7620F17
:100F7000731F841F951FA01D08952F923F924F92BB
:100F80005F926F927F928F929F92AF92BF92CF9219
:100F9000DF92EF92FF920F931F93CF93DF93CDB722
:100FA000DEB7CA1BDB0B0FB6F894DEBF0FBECDBF9A
:100FB00009942A88398848885F846E847D848C846B
:100FC0009B84AA84B984C884DF80EE80FD800C8174
:100FD0001B81AA81B981CE0FD11D0FB6F894DEBF57
:0C0FE0000FBECDBFED010895F894FFCFC7
:100FEC000000D00120004D43505F54584230435410
:100FFC00524C3A2025780A005265717565737469F4
:10100C006E6720746F2073656E64210043414E49F6
:10101C004E54463A2025780A0043414E54535441CD
:10102C00543A2025780A00204D657373616765205A
:10103C006C656E6774682025693A0A0041746D65A9
:0C104C00676131363220737461727400E9
:00000001FF
