:10000000C2C00000E0C00000DEC00000DCC0000094
:10001000DAC00000D8C00000D6C00000D4C0000084
:10002000D2C00000D0C00000CEC00000CCC0000094
:10003000CAC00000C8C00000C6C00000C4C00000A4
:10004000C2C00000C0C00000BEC00000BCC00000B4
:10005000BAC00000B8C00000B6C00000B4C00000C4
:10006000B2C00000B0C00000AEC00000ACC00000D4
:10007000AAC00000A8C00000A6C00000A4C00000E4
:10008000A2C00000A0C000009EC000009CC00000F4
:100090009AC0000098C0000096C0000000C6000092
:1000A00092C0000090C000008EC000008CC0000014
:1000B0008AC0000088C0000086C0000084C0000024
:1000C00082C0000080C000007EC000007CC0000034
:1000D0007AC0000078C0000076C0000074C0000044
:1000E00072C000007E06EC06EC06EC06EC06EC06A0
:1000F000EC06EC067E06EC06EC06EC06EC06EC06DE
:10010000EC06EC068006EC06EC06EC06EC06EC06CB
:10011000EC06EC06EC06EC06EC06EC06EC06EC064F
:10012000EC06EC068006EC06EC06EC06EC06EC06AB
:10013000EC06EC06EC06EC06EC06EC06EC06EC062F
:10014000EC06EC06E606EC06EC06EC06EC06EC0625
:10015000EC06EC06B706EC06EC06EC06EC06EC0644
:10016000EC06EC06EC06EC06EC06EC06EC06EC06FF
:10017000EC06EC06A706EC06EC06EC06EC06EC0634
:10018000EC06EC06CF0611241FBECFEFD1E2DEBF96
:10019000CDBF00E00CBF12E0A0E0B2E0E4E4FBE180
:1001A00000E00BBF02C007900D92A235B107D9F74E
:1001B00022E0A2E5B2E001C01D92A536B207E1F748
:1001C00003D00C94A00D1CCFCF93DF93CDB7DEB737
:1001D00066970FB6F894DEBF0FBECDBF87E690E0FE
:1001E0001BD687E092E00E94970928D0ADD0CBD3F0
:1001F0001E8A1D8A8D899E8901969E8B8D8BCE01CC
:10020000039634D08B81823009F4D6D38B81813030
:10021000A1F48D819E81898389E192E00E949709F2
:1002200089818FD2CE014596BC018981EBD28A8328
:100230008A81882F90E06AD2DDCFDCCFCF93DF9325
:10024000CDB7DEB79ED24FEF60E680E6B8D240E091
:1002500064E080E6B4D241E065E08BE2B0D240E0F9
:1002600060EF8FE0ACD2DF91CF9108951F93CF93D1
:10027000DF9300D01F92CDB7DEB79C838B838B8139
:100280009C81FC01138212828B819C81FC01108273
:100290008B819C81FC01118200008CE27BD2882F33
:1002A00090E0817099270097C1F381E673D2882F7F
:1002B00090E0880F991F880F991F880F991F182F9A
:1002C00082E668D2829586958770812B282F8B8154
:1002D0009C81FC01208385E65DD2282F2F708B81C5
:1002E0009C81FC0121831A82198217C089818A5955
:1002F00051D2882F90E09C014B815C8189819A8149
:100300000196880F991F840F951FFC01318320836C
:1003100089819A8101969A8389838B819C81FC01D2
:100320008181282F30E089819A8182179307F4F226
:1003300040E061E08CE243D20F900F900F900F905D
:10034000DF91CF911F910895CF93DF93CDB7DEB7A3
:1003500039D474DF8AE290E02AE230E0F9012081AA
:100360002360FC01208387E091E0FC01108288EB90
:1003700090E02CE0FC01208381E091E02FEFFC0174
:10038000208382E091E022E031E0F90120812265C2
:10039000FC0120837894DF91CF910895CF93DF9370
:1003A000CDB7DEB7AC970FB6F894DEBF0FBECDBFAA
:1003B00082E091E022E031E0F9012081277DFC011B
:1003C000208380E090E0A0EAB1E48B839C83AD833E
:1003D000BE8320E030E04AE755E46B817C818D816B
:1003E0009E81BAD6DC01CB018F839887A987BA8713
:1003F00020E030E040E85FE36F81788589859A8569
:10040000C0D588232CF481E090E09C878B873BC08B
:1004100020E03FEF4FE757E46F81788589859A8523
:1004200097D618163CF520E030E040E251E46B81AD
:100430007C818D819E8190D6DC01CB01BC01CD01F8
:10044000A9D5DC01CB019C878B870FC080E991E0A7
:100450009E878D878D859E850197F1F79E878D8775
:100460008B859C8501979C878B878B859C850097C6
:1004700069F713C06F81788589859A858BD5DC01F2
:10048000CB019C878B878B859C85988B8F878F85ED
:1004900098890197F1F7988B8F8786E091E0FC01AE
:1004A0008081882F90E0982F88279A83898382E023
:1004B00091E022E031E0F90120812860FC012083F5
:1004C00080E090E0A0EAB1E4898B9A8BAB8BBC8B87
:1004D00020E030E04AE755E469897A898B899C8974
:1004E0003BD6DC01CB018D8B9E8BAF8BB88F20E090
:1004F00030E040E85FE36D897E898F89988D41D532
:1005000088232CF481E090E09A8F898F3BC020E013
:100510003FEF4FE757E46D897E898F89988D18D614
:1005200018163CF520E030E040E251E469897A8910
:100530008B899C8911D6DC01CB01BC01CD012AD568
:10054000DC01CB019A8F898F0FC080E991E09C8FED
:100550008B8F8B8D9C8D0197F1F79C8F8B8F898D65
:100560009A8D01979A8F898F898D9A8D009769F757
:1005700013C06D897E898F89988D0CD5DC01CB01E4
:100580009A8F898F898D9A8D9E8F8D8F8D8D9E8D5F
:100590000197F1F79E8F8D8F8A818F9389818F9339
:1005A00080E292E0892F8F9380E292E08F93AED623
:1005B0000F900F900F900F9086E091E0FC018081EA
:1005C000882F90E0992729813A81822B932B9A8357
:1005D000898382E091E022E031E0F90120812F7BE4
:1005E000FC01208380E090E0A0EAB0E48F8F98A324
:1005F000A9A3BAA320E030E04AE755E46F8D78A1C3
:1006000089A19AA1A9D5DC01CB018BA39CA3ADA3A1
:10061000BEA320E030E040E85FE36BA17CA18DA1A8
:100620009EA1AFD488232CF481E090E098A78FA3FB
:100630003BC020E03FEF4FE757E46BA17CA18DA1C9
:100640009EA186D518163CF520E030E040E251E44A
:100650006F8D78A189A19AA17FD5DC01CB01BC0166
:10066000CD0198D4DC01CB0198A78FA30FC080E9FE
:1006700091E09AA789A789A59AA50197F1F79AA76A
:1006800089A78FA198A5019798A78FA38FA198A557
:10069000009769F713C06BA17CA18DA19EA17AD4AC
:1006A000DC01CB0198A78FA38FA198A59CA78BA74E
:1006B0008BA59CA50197F1F79CA78BA782E091E001
:1006C00022E031E0F90120812066FC01208389814C
:1006D0009A81009781F08A818F9389818F9380E23C
:1006E00092E0892F8F9380E292E08F930FD60F9044
:1006F0000F900F900F9089819A81AC960FB6F89465
:10070000DEBF0FBECDBFDF91CF910895CF93DF93B2
:1007100000D000D0CDB7DEB78E838E81898380E58F
:100720008A831B8289818C83CE01029663E06CD21E
:1007300026960FB6F894DEBF0FBECDBFDF91CF91E6
:100740000895CF93DF931F92CDB7DEB78983898158
:10075000181654F482E091E022E031E0F9012081A2
:100760002260FC01208309C082E091E022E031E0B8
:10077000F90120812D7FFC0120830F90DF91CF9123
:100780000895CF93DF93CDB7DEB7A7D130D0DF91F7
:10079000CF910895CF93DF931F921F92CDB7DEB70D
:1007A0008A8300D283E0C4D18A81C2D1D7D1898320
:1007B000E9D189810F900F90DF91CF910895CF9368
:1007C000DF9300D0CDB7DEB789836A834B83EAD14C
:1007D00085E0AED18981ACD18A81AAD18B81A8D1A3
:1007E000D1D10F900F900F90DF91CF910895CF93BB
:1007F000DF93CDB7DEB7D6D180EC9AD1C3D1DF91EC
:10080000CF910895CF93DF93CDB7DEB76D970FB635
:10081000F894DEBF0FBECDBF8A8B7C8B6B8BBEDDA9
:1008200089831A821B821C821D828981E82FFF27FF
:10083000E7FDF0958B899C89DC018D919C91119746
:1008400029E030E0B901EBD4CB019C01CF01B90123
:10085000E6D4CB019C018A89992787FD909599233D
:100860001CF4919581959109F901E81BF90BCF01D1
:10087000AA2797FDA095BA2FBC01CD01B9D3DC0101
:10088000CB018A839B83AC83BD832DEC3CEC4CE491
:100890005FEB6A817B818C819D815ED4DC01CB0121
:1008A0008E839F83A887B9878091520290915302CB
:1008B000AA2797FDA095BA2FBC01CD0199D3DC01E1
:1008C000CB012A813B814C815D81BC01CD01F5D2F8
:1008D000DC01CB018A879B87AC87BD878B899C898C
:1008E000DC018D919C9129E030E0B90198D4CB01D5
:1008F000AA2797FDA095BA2FBC01CD0179D3DC01C1
:10090000CB012DEC3CEC4CE45DE3BC01CD0124D4E7
:10091000DC01CB012A853B854C855D85BC01CD0181
:100920001BD4DC01CB018E879F87A88BB98B6A8192
:100930007B818C819D8129D3DC01CB019093530273
:10094000809352028981882329F08B899C89FC013C
:10095000118210822E853F85488959896E817F8159
:1009600088859985AAD2DC01CB01BC01CD0112D3C7
:10097000DC01CB016D960FB6F894DEBF0FBECDBF84
:10098000DF91CF910895CF93DF93CDB7DEB78AE0A3
:1009900091E02AE031E0F90120812068FC01208308
:1009A0008BE091E02BE031E0F90120812068FC012F
:1009B0002083DF91CF910895CF93DF93CDB7DEB73A
:1009C0002E970FB6F894DEBF0FBECDBF8BE091E03F
:1009D0002BE031E0F90120812F77FC01208380E0BA
:1009E00090E0AFE2B4E489839A83AB83BC8320E0D8
:1009F00030E04AE753E469817A818B819C81ACD3F2
:100A0000DC01CB018D839E83AF83B88720E030E08B
:100A100040E85FE36D817E818F819885B2D2882323
:100A20002CF481E090E09A8789873BC020E03FEF7B
:100A30004FE757E46D817E818F81988589D31816A1
:100A40003CF520E030E040E251E469817A818B811D
:100A50009C8182D3DC01CB01BC01CD019BD2DC01A6
:100A6000CB019A8789870FC089E190E09C878B87AB
:100A70008B859C850197F1F79C878B8789859A8563
:100A800001979A87898789859A85009769F713C0A6
:100A90006D817E818F8198857DD2DC01CB019A8723
:100AA000898789859A859E878D878D859E85019703
:100AB000F1F79E878D878BE091E02BE031E0F90123
:100AC00020812068FC0120832E960FB6F894DEBFAB
:100AD0000FBECDBFDF91CF910895CF93DF93CDB7F8
:100AE000DEB784E290E024E230E0F901208127685B
:100AF000FC01208384E290E024E230E0F9012081CF
:100B0000277FFC01208385E290E025E230E0F901B7
:100B100020812860FC0120838CE490E02CE430E00C
:100B2000F90120812265FC012083DF91CF91089596
:100B3000CF93DF931F92CDB7DEB789838EE490E029
:100B40002981FC01208300008DE490E0FC0180817C
:100B50008823D4F70F90DF91CF910895CF93DF933F
:100B6000CDB7DEB78FEFE4DF00008DE490E0FC014D
:100B700080818823D4F78EE490E0FC018081DF91AE
:100B8000CF910895CF93DF93CDB7DEB785E290E0A4
:100B900025E230E0F90120812068FC012083DF910B
:100BA000CF910895CF93DF93CDB7DEB785E290E084
:100BB00025E230E0F90120812F77FC012083DF91CD
:100BC000CF910895CF93DF93CDB7DEB788EB90E058
:100BD0002CE0FC0120838BEB90E02FEFFC012083C5
:100BE0008CEB90E024E0FC012083DF91CF9108950D
:100BF000CF93DF93CDB7DEB78CEB90E0FC01808123
:100C00008170DF91CF910895CF93DF9300D01F9231
:100C1000CDB7DEB79B838A836C830000E9DF88232E
:100C2000E9F78C81809358028A819B81FC01808145
:100C3000809354028A819B81FC018081882F90E0FF
:100C4000817099270097D1F481E0898313C089814D
:100C5000882F90E02981222F30E04A815B81240F88
:100C6000351FF90120818C5A9D4FFC012083898119
:100C70008F5F898399818C81981748F3109259026C
:100C800088EF809306028CEB90E025EAFC0120833C
:100C90000F900F900F900F90DF91CF9108951F92BA
:100CA0000F9200905F000F92112400905B000F9252
:100CB0002F933F934F935F938F939F93AF93BF93E4
:100CC000EF93FF93CF93DF93CDB7DEB789EB90E03F
:100CD000FC018081882F90E0AA2797FDA095BA2F6C
:100CE00048E050E020E530E0841B950B28173907D9
:100CF00008F472C08E589F4FFC01A4C210925A0291
:100D000090915A02809158029817B0F48BEB90E0C2
:100D100020915A0231E0320F30935A02222F30E0F4
:100D20002C5A3D4FF9012081FC0120838CEB90E08F
:100D300025E8FC0120835BC080915902816080938B
:100D400059028CEB90E024E9FC01208350C0809193
:100D50005A0291E0980F90935A02882F90E02BEB63
:100D600030E0F90120818C5A9D4FFC012083809155
:100D70005A02282F30E080915802882F90E0019786
:100D80002817390734F48CEB90E025ECFC01208324
:100D90002EC08CEB90E025E8FC01208328C08091D8
:100DA0005A02882F90E02BEB30E0F90120818C5A19
:100DB0009D4FFC01208380915902816080935902EC
:100DC0008CEB90E024E9FC01208311C08CEB90E0D7
:100DD00025EAFC0120830BC089EB90E0FC018081B7
:100DE000809306028CEB90E024E0FC012083DF91ED
:100DF000CF91FF91EF91BF91AF919F918F915F91B3
:100E00004F913F912F910F9000925B000F900092B5
:100E10005F000F901F901895CF93DF931F921F9242
:100E2000CDB7DEB79A83898385EC90E029813A813A
:100E3000232F3327FC01208384EC90E02981FC01DF
:100E4000208381EC90E028E1FC0120836AE477E0D4
:100E500080E397E011D20F900F90DF91CF9108952A
:100E6000CF93DF931F92CDB7DEB78983000080EC6C
:100E700090E0FC018081882F90E080729927009794
:100E8000B1F386EC90E02981FC0120830F90DF9183
:100E9000CF910895CF93DF93CDB7DEB7000080ECFC
:100EA00090E0FC0180818823D4F786EC90E0FC017F
:100EB0008081DF91CF9108955058BB27AA270ED08B
:100EC0000DC1FED030F003D120F031F49F3F11F47A
:100ED0001EF4F3C00EF4E095E7FBE9C0E92F0FD153
:100EE00080F3BA17620773078407950718F071F447
:100EF0009EF527C10EF4E0950B2EBA2FA02D0B0105
:100F0000B90190010C01CA01A0011124FF27591B4E
:100F100099F0593F50F4503E68F11A16F040A22F54
:100F2000232F342F4427585FF3CF469537952795C5
:100F3000A795F0405395C9F77EF41F16BA0B620BC4
:100F4000730B840BBAF09150A1F0FF0FBB1F661F0B
:100F5000771F881FC2F70EC0BA0F621F731F841F4E
:100F600048F4879577956795B795F7959E3F08F074
:100F7000B3CF9395880F08F09927EE0F9795879533
:100F8000089571D008F481E0089504D06894B111F7
:100F9000D9C00895BCD088F09F5790F0B92F9927F9
:100FA000B751A0F0D1F0660F771F881F991F1AF074
:100FB000BA95C9F712C0B13081F0C3D0B1E008953D
:100FC000C0C0672F782F8827B85F39F0B93FCCF3BE
:100FD000869577956795B395D9F73EF4909580956A
:100FE000709561957F4F8F4F9F4F0895E89409C08A
:100FF00097FB3EF490958095709561957F4F8F4F4C
:101000009F4F9923A9F0F92F96E9BB279395F69561
:10101000879577956795B795F111F8CFFAF4BB0FDF
:1010200011F460FF1BC06F5F7F4F8F4F9F4F16C043
:10103000882311F096E911C0772321F09EE8872FCD
:10104000762F05C0662371F096E8862F70E060E089
:101050002AF09A95660F771F881FDAF7880F969502
:10106000879597F90895990F0008550FAA0BE0E8A6
:10107000FEEF16161706E807F907C0F0121613065A
:10108000E407F50798F0621B730B840B950B39F49A
:101090000A2661F0232B242B252B21F408950A2600
:1010A00009F4A140A6958FEF811D811D089597F940
:1010B0009F6780E870E060E008959FEF80EC0895FE
:1010C00000240A9416161706180609060895002427
:1010D0000A9412161306140605060895092E0394A1
:1010E000000C11F4882352F0BB0F40F4BF2B11F415
:1010F00060FF04C06F5F7F4F8F4F9F4F089557FD74
:101100009058440F551F59F05F3F71F04795880F75
:1011100097FB991F61F09F3F79F08795089512160C
:1011200013061406551FF2CF4695F1DF08C01616B8
:1011300017061806991FF1CF869571056105089469
:101140000895E894BB2766277727CB0197F9089580
:101150008ADF08F48FEF08950BD0C0CFB1DF28F0FD
:10116000B6DF18F0952309F0A2CFA7CF1124EACF5C
:10117000C6DFA0F3959FD1F3950F50E0551F629FF6
:10118000F001729FBB27F00DB11D639FAA27F00DE0
:10119000B11DAA1F649F6627B00DA11D661F829F07
:1011A0002227B00DA11D621F739FB00DA11D621FEC
:1011B000839FA00D611D221F749F3327A00D611D09
:1011C000231F849F600D211D822F762F6A2F1124EB
:1011D0009F5750408AF0E1F088234AF0EE0FFF1F3E
:1011E000BB1F661F771F881F91505040A9F79E3F75
:1011F000510570F05CCFA6CF5F3FECF3983EDCF377
:10120000869577956795B795F795E7959F5FC1F7B1
:10121000FE2B880F911D9695879597F9089597FB5A
:10122000072E16F4009406D077FD08D011D007FCE5
:1012300005D03EF4909581959F4F089570956195E6
:101240007F4F0895EE0FFF1F0590F491E02D199444
:10125000AA1BBB1B51E107C0AA1FBB1FA617B707DC
:1012600010F0A61BB70B881F991F5A95A9F78095F8
:101270009095BC01CD0108950F931F93CF93DF93F9
:10128000EC018B01009731F46115710519F480E0D0
:1012900090E037C06EE070E081E090E063D2FC0146
:1012A0000097A9F380E883830115110571F0138776
:1012B000028781E8838380915B0290915C02892B95
:1012C00021F4F0935C02E0935B022097C9F0D18790
:1012D000C08783818260838380915D0290915E02EA
:1012E000892B71F4F0935E02E0935D0280915F02BE
:1012F00090916002892B21F4F0936002E0935F02E9
:10130000CF01DF91CF911F910F910895CF93DF937C
:10131000CDB7DEB7FE01369661917191AF01809134
:101320005D0290915E0230D0DF91CF9108950F93CE
:101330001F93CF93DF93E0915D02F0915E022381D2
:1013400021FF1BC0EC0100E010E0899160915D027B
:1013500070915E02DB011896ED91FC91199788233C
:1013600031F01995892B89F30FEF1FEFEECF8AE04B
:101370001995892B11F4C80102C08FEF9FEFDF91FF
:10138000CF911F910F9108952F923F924F925F92AC
:101390006F927F928F929F92AF92BF92CF92DF9285
:1013A000EF92FF920F931F93CF93DF93CDB7DEB7EA
:1013B0002C970FB6F894DEBF0FBECDBF7C016B013A
:1013C0008A01FC0117821682838181FFB0C1CE01A0
:1013D00001964C01F7019381F60193FD859193FFEE
:1013E00081916F01882309F49EC1853239F493FD00
:1013F000859193FF81916F01853221F4B70190E0CF
:101400000FD3E8CF512C312C20E02032A0F48B32C6
:1014100069F030F4803259F0833269F420612CC0D5
:101420008D3239F0803339F4216026C02260246087
:1014300023C0286021C027FD27C030ED380F3A3087
:1014400078F426FF06C0FAE05F9E300D1124532E7B
:1014500013C08AE0389E300D1124332E20620CC058
:101460008E3221F426FD5FC1206406C08C3611F453
:10147000206802C0883641F4F60193FD859193FF00
:1014800081916F018111C1CF982F9F7D9554933029
:1014900028F40C5F1F4FFFE3F9830DC0833631F052
:1014A000833771F0833509F057C021C0F80180817E
:1014B00089830E5F1F4F44244394512C540114C060
:1014C0003801F2E06F0E711CF801A080B18026FF98
:1014D00003C0652D70E002C06FEF7FEFC5012C8760
:1014E00094D22C0183012C852F77222E16C038012F
:1014F000F2E06F0E711CF801A080B18026FF03C0DE
:10150000652D70E002C06FEF7FEFC5012C876BD2B5
:101510002C012C852068222E830123FC19C0832DE9
:1015200090E048165906A0F4B70180E290E078D226
:101530003A94F5CFF50127FC859127FE81915F0153
:10154000B70190E06DD231103A94F1E04F1A510892
:101550004114510479F7DEC0843611F0893631F533
:10156000F80127FF07C060817181828193810C5F40
:101570001F4F08C060817181882777FD8095982F63
:101580000E5F1F4F2F76B22E97FF09C09095809562
:10159000709561957F4F8F4F9F4F2068B22E2AE044
:1015A00030E0A4016FD2A82EA81843C0853729F4D3
:1015B0002F7EB22E2AE030E025C0F22FF97FBF2E19
:1015C0008F36C1F018F4883579F0ADC0803719F046
:1015D000883721F0A8C02F2F2061B22EB4FE0DC095
:1015E0008B2D8460B82E09C024FF0AC09F2F9660FF
:1015F000B92E06C028E030E005C020E130E002C08E
:1016000020E132E0F801B7FE07C06081718182817C
:1016100093810C5F1F4F06C06081718180E090E074
:101620000E5F1F4FA4012ED2A82EA818FB2DFF7706
:10163000BF2EB6FE0BC02B2D2E7FA51450F4B4FE8A
:101640000AC0B2FC08C02B2D2E7E05C07A2C2B2D93
:1016500003C07A2C01C0752C24FF0DC0FE01EA0DD9
:10166000F11D8081803311F4297E09C022FF06C05C
:101670007394739404C0822F867809F0739423FDC9
:1016800012C020FF06C05A2C731418F4530C5718BC
:10169000732C731460F4B70180E290E02C87C0D102
:1016A00073942C85F6CF731410F4371801C0312CC5
:1016B00024FF11C0B70180E390E02C87B1D12C85C5
:1016C00022FF16C021FF03C088E590E002C088E732
:1016D00090E0B7010CC0822F867851F021FD02C046
:1016E00080E201C08BE227FD8DE2B70190E098D146
:1016F000A51430F4B70180E390E092D15A94F8CF6A
:10170000AA94F401EA0DF11D8081B70190E088D11F
:10171000A110F6CF332009F45DCEB70180E290E04E
:101720007FD13A94F7CFF7018681978102C08FEF7E
:101730009FEF2C960FB6F894DEBF0FBECDBFDF91A2
:10174000CF911F910F91FF90EF90DF90CF90BF90BE
:10175000AF909F908F907F906F905F904F903F9051
:101760002F9008950F931F93CF93DF93869F80014F
:10177000879F100D969F100D1124C8010DD0EC010C
:10178000009721F0A80160E070E038D1CE01DF9130
:10179000CF911F910F910895CF93DF9382309105E0
:1017A00010F482E090E0E0916302F091640220E0A6
:1017B00030E0A0E0B0E0309739F140815181481726
:1017C0005907B8F04817590771F48281938110972F
:1017D00029F013969C938E9312972CC090936402D9
:1017E0008093630227C02115310531F0421753075A
:1017F00018F0A901DB0101C0EF019A01BD01DF0171
:101800000280F381E02DD7CF21153105F9F0281B97
:10181000390B2430310580F48A819B816115710573
:1018200021F0FB019383828304C090936402809330
:101830006302FE01329644C0FE01E20FF31F819362
:10184000919322503109398328833AC02091610253
:1018500030916202232B41F4209102023091030265
:1018600030936202209361022091000230910102C4
:101870002115310541F42DB73EB740910402509136
:101880000502241B350BE0916102F0916202E21720
:10189000F307A0F42E1B3F0B2817390778F0AC0193
:1018A0004E5F5F4F2417350748F04E0F5F1F509370
:1018B0006202409361028193919302C0E0E0F0E004
:1018C000CF01DF91CF910895CF93DF93009709F473
:1018D00087C0FC01329713821282C0916302D091BB
:1018E0006402209781F420813181280F391F809173
:1018F0006102909162028217930779F5F093620278
:10190000E09361026DC0DE0120E030E0AE17BF075A
:1019100050F412964D915C9113979D01411551051C
:1019200009F1DA01F3CFB383A28340815181840F9F
:10193000951F8A179B0771F48D919C911197840FC5
:10194000951F02969183808312968D919C91139797
:10195000938382832115310529F4F0936402E09387
:1019600063023EC0D9011396FC93EE9312974D91FA
:101970005D91A40FB51FEA17FB0779F4808191816F
:10198000840F951F0296D90111969C938E938281A4
:10199000938113969C938E931297E0E0F0E08A81F6
:1019A0009B81009719F0FE01EC01F9CFCE01029660
:1019B00028813981820F931F209161023091620248
:1019C0002817390769F4309729F4109264021092AD
:1019D000630202C013821282D0936202C09361023A
:1019E000DF91CF910895FC01059061507040011086
:1019F000D8F7809590958E0F9F1F0895DC0101C048
:101A00006D9341505040E0F70895FC0161507040E3
:101A100001900110D8F7809590958E0F9F1F089523
:101A20000F931F93CF93DF93182F092FEB018B8117
:101A300081FD03C08FEF9FEF20C082FF10C04E8159
:101A40005F812C813D81421753077CF4E881F98145
:101A50009F012F5F3F4F39832883108306C0E8859D
:101A6000F985812F1995892B29F72E813F812F5FC9
:101A70003F4F3F832E83812F902FDF91CF911F9176
:101A80000F910895FA01AA27283051F1203181F1F0
:101A9000E8946F936E7F6E5F7F4F8F4F9F4FAF4F76
:101AA000B1E03ED0B4E03CD0670F781F891F9A1F89
:101AB000A11D680F791F8A1F911DA11D6A0F711D3D
:101AC000811D911DA11D20D009F468943F912AE049
:101AD000269F11243019305D3193DEF6CF01089531
:101AE000462F4770405D4193B3E00FD0C9F7F6CF62
:101AF000462F4F70405D4A3318F0495D31FD40522A
:101B0000419302D0A9F7EACFB4E0A69597958795BF
:101B100077956795BA95C9F700976105710508959E
:101B20009B01AC010A2E069457954795379527954A
:101B3000BA95C9F7620F731F841F951FA01D0895E2
:041B4000F894FFCF47
:101B4400000065022000F841746D65676132353626
:101B5400302073746172742E00746A6F6865790042
:101B64004D6F746F7220656E636F6465722064617B
:101B74007461203A2025690A007475726E00656EDE
:101B8400636F6465725F6C656E6774683B2025697A
:021B94000A0045
:00000001FF
