:10000000C2C00000E0C00000DEC00000DCC0000094
:10001000DAC00000D8C00000D6C00000D4C0000084
:10002000D2C00000D0C00000CEC00000CCC0000094
:10003000CAC00000C8C00000C6C00000C4C00000A4
:10004000C2C00000C0C00000BEC00000BCC00000B4
:10005000BAC00000B8C00000B6C00000B4C00000C4
:10006000B2C00000B0C00000AEC00000ACC00000D4
:10007000AAC00000A8C00000A6C00000A4C00000E4
:10008000A2C00000A0C000009EC000009CC00000F4
:100090009AC0000098C0000096C000000C94460969
:1000A00092C0000090C000008EC000008CC0000014
:1000B0008AC0000088C0000086C0000084C0000024
:1000C00082C0000080C000007EC000007CC0000034
:1000D0007AC0000078C0000076C0000074C0000044
:1000E00072C000007509E309E309E309E309E309C4
:1000F000E309E3097509E309E309E309E309E3090E
:10010000E309E3097709E309E309E309E309E309FB
:10011000E309E309E309E309E309E309E309E3097F
:10012000E309E3097709E309E309E309E309E309DB
:10013000E309E309E309E309E309E309E309E3095F
:10014000E309E309DD09E309E309E309E309E30955
:10015000E309E309AE09E309E309E309E309E30974
:10016000E309E309E309E309E309E309E309E3092F
:10017000E309E3099E09E309E309E309E309E30964
:10018000E309E309C60911241FBECFEFD1E2DEBFA8
:10019000CDBF00E00CBF12E0A0E0B2E0E4E0F2E28C
:1001A00000E00BBF02C007900D92AA33B107D9F748
:1001B00022E0AAE3B2E001C01D92A335B207E1F745
:1001C0007CD00C9400111CCFCF93DF93CDB7DEB75A
:1001D0008CE790E02CE730E0F90120812068FC01F9
:1001E00020838CE790E02CE730E0F90120812F7B21
:1001F000FC0120838CE790E02CE730E0F9012081BE
:100200002F7DFC01208380E390E020E330E0F901C2
:1002100020812E7FFC0120838BE790E02BE730E0EC
:10022000F9012081277FFC0120838CE790E02CE7F7
:1002300030E0F9012081207EFC0120838AE790E0F4
:100240002AE730E0F90120812760FC0120838BE759
:1002500090E02BE730E0F9012081287FFC0120832A
:100260008AE790E02AE730E0F90120812068FC016C
:100270002083DF91CF910895CF93DF93CDB7DEB781
:100280008AE790E02AE730E0F90120812064FC0150
:10029000208300008AE790E0FC018081882F90E0B5
:1002A000807499270097B1F789E790E0FC0180817D
:1002B000882F90E0DF91CF910895CF93DF93CDB752
:1002C000DEB7A7970FB6F894DEBF0FBECDBF87E6A7
:1002D00090E00E94030A89E092E00E94F70C4CD063
:1002E00049D1A7D447D627D186E18C8384E08D837A
:1002F00083E08E8B84E08F8B1F821E821986188686
:100300001B861A861F8E1E8E1D861C86198E188EC1
:100310001B8E1A8E1D8E1C8ECE0146969ED0888D09
:10032000998D009781F0888D998D89838981FFD27D
:100330004AE057ED63E27CE3898181D38A838A8135
:10034000882F90E0DBD28A8D9B8D009729F08A8DD3
:100350009B8D8B838B81CAD48C8D9D8D009729F0CA
:100360008BE192E00E94F70C1ED65BD59D878C87AF
:10037000CE01049619D0C8CFCF93DF93CDB7DEB7A7
:10038000F6D24FEF60E680E637D340E064E080E6E7
:1003900033D341E065E08BE22FD340E060EF8FE0A4
:1003A0002BD3DF91CF910895CF93DF9300D01F928D
:1003B000CDB7DEB79C838B83000080E3E1D2882F2A
:1003C00090E0887099270097C1F78B819C81FC0190
:1003D00080818295880F807E682F82E3E6D28B81B0
:1003E0009C81FC018081869586958695682F81E3A6
:1003F000DCD28B819C81FC018181682F85E3D5D281
:100400001A82198216C02B813C8189819A810196BA
:10041000880F991F820F931FFC0180819181982F73
:1004200089818A5C692FC1D289819A8101969A83D8
:1004300089838B819C81FC018181282F30E0898117
:100440009A8182179307FCF281E0C4D20F900F903B
:100450000F900F90DF91CF9108951F93CF93DF936B
:1004600000D01F92CDB7DEB79C838B838B819C819C
:10047000FC01138212828B819C81FC0110828B8192
:100480009C81FC01118200008CE27AD2882F90E0DE
:10049000817099270097C1F381E672D2882F90E08E
:1004A000880F991F880F991F880F991F182F82E6B0
:1004B00067D2829586958770812B282F8B819C81AE
:1004C000FC01208385E65CD2282F2F708B819C81D4
:1004D000FC0121831A82198217C089818A5950D25E
:1004E000882F90E09C014B815C8189819A810196E3
:1004F000880F991F840F951FFC0131832083898108
:100500009A8101969A8389838B819C81FC018181E8
:10051000282F30E089819A8182179307F4F240E016
:1005200061E08CE269D20F900F900F900F90DF91F5
:10053000CF911F910895CF93DF93CDB7DEB744DEFF
:10054000DF91CF910895CF93DF931F921F92CDB784
:10055000DEB792DE9A83898389819A81009719F0A8
:1005600080E090E002C081E090E00F900F90DF917A
:10057000CF910895CF93DF93CDB7DEB71AD6FCDEC7
:100580008AE290E02AE230E0F90120812360FC0158
:10059000208387E091E0FC01108288EB90E02CE062
:1005A000FC01208381E091E02FEFFC01208382E0B9
:1005B00091E022E031E0F90120812265FC012083F5
:1005C0007894DF91CF910895CF93DF93CDB7DEB7C5
:1005D000AC970FB6F894DEBF0FBECDBF82E091E0BE
:1005E00022E031E0F9012081277DFC01208380E0B9
:1005F00090E0A0EAB1E48B839C83AD83BE8320E0CE
:1006000030E04AE755E46B817C818D819E810E94B8
:10061000060CDC01CB018F839887A987BA8720E07D
:1006200030E040E85FE36F81788589859A85A0D7BF
:1006300088232CF481E090E09C878B873DC020E0EC
:100640003FEF4FE757E46F81788589859A850E944F
:10065000020C181644F520E030E040E251E46B81D2
:100660007C818D819E810E94060CDC01CB01BC0146
:10067000CD01EAD7DC01CB019C878B870FC080E9D5
:1006800091E09E878D878D859E850197F1F79E87E6
:100690008D878B859C8501979C878B878B859C8517
:1006A000009769F713C06F81788589859A85CCD7C3
:1006B000DC01CB019C878B878B859C85988B8F87F2
:1006C0008F8598890197F1F7988B8F8786E091E065
:1006D000FC018081882F90E0982F88279A83898356
:1006E00082E091E022E031E0F90120812860FC0104
:1006F000208380E090E0A0EAB1E4898B9A8BAB8BF9
:10070000BC8B20E030E04AE755E469897A898B891F
:100710009C890E94060CDC01CB018D8B9E8BAF8BDC
:10072000B88F20E030E040E85FE36D897E898F89F3
:10073000988D1ED788232CF481E090E09A8F898FC2
:100740003DC020E03FEF4FE757E46D897E898F89F8
:10075000988D0E94020C181644F520E030E040E22B
:1007600051E469897A898B899C890E94060CDC0195
:10077000CB01BC01CD0168D7DC01CB019A8F898FF9
:100780000FC080E991E09C8F8B8F8B8D9C8D0197A2
:10079000F1F79C8F8B8F898D9A8D01979A8F898F16
:1007A000898D9A8D009769F713C06D897E898F892D
:1007B000988D4AD7DC01CB019A8F898F898D9A8DCC
:1007C0009E8F8D8F8D8D9E8D0197F1F79E8F8D8FD2
:1007D00086E091E0FC018081882F90E099272981B3
:1007E0003A81822B932B9A83898382E091E022E0E5
:1007F00031E0F90120812F7BFC01208380E090E033
:10080000A0EAB0E48F8F98A3A9A3BAA320E030E0B8
:100810004AE755E46F8D78A189A19AA1F7D7DC0149
:10082000CB018BA39CA3ADA3BEA320E030E040E8A6
:100830005FE36BA17CA18DA19EA19AD688232CF4A5
:1008400081E090E098A78FA33BC020E03FEF4FE707
:1008500057E46BA17CA18DA19EA1D4D718163CF5BD
:1008600020E030E040E251E46F8D78A189A19AA1A7
:10087000CDD7DC01CB01BC01CD01E6D6DC01CB013B
:1008800098A78FA30FC080E991E09AA789A789A5AF
:100890009AA50197F1F79AA789A78FA198A5019723
:1008A00098A78FA38FA198A5009769F713C06BA194
:1008B0007CA18DA19EA1C8D6DC01CB0198A78FA3F6
:1008C0008FA198A59CA78BA78BA59CA50197F1F755
:1008D0009CA78BA782E091E022E031E0F901208122
:1008E0002066FC01208389819A81AC960FB6F8942A
:1008F000DEBF0FBECDBFDF91CF910895CF93DF93C1
:1009000000D01F921F92CDB7DEB78D8380E589831B
:100910001A828D818B8363E0CE0101966CD40F9097
:100920000F900F900F900F90DF91CF910895CF937C
:10093000DF931F92CDB7DEB789838981181654F4EF
:1009400082E091E022E031E0F90120812260FC01A7
:10095000208309C082E091E022E031E0F9012081AA
:100960002D7FFC0120830F90DF91CF910895CF93CD
:10097000DF93CDB7DEB7A8D357D0DF91CF910895DD
:10098000CF93DF931F921F92CDB7DEB78A8301D436
:1009900083E0C5D38A81C3D3D8D38983EAD389813D
:1009A0000F900F90DF91CF910895CF93DF931F9217
:1009B0001F92CDB7DEB789836A83EBD382E0AFD3D2
:1009C0008981ADD38A81ABD3D4D30F900F90DF91BF
:1009D000CF910895CF93DF931F92CDB7DEB7898370
:1009E000D8D38981877089838981805898D3C1D36E
:1009F0000F90DF91CF910895CF93DF9300D0CDB7C3
:100A0000DEB789836A834B83C4D385E088D3898129
:100A100086D38A8184D38B8182D3ABD30F900F90FE
:100A20000F90DF91CF910895CF93DF93CDB7DEB7CD
:100A3000B0D380EC74D39DD3DF91CF910895CF9341
:100A4000DF93CDB7DEB7A6970FB6F894DEBF0FBE23
:100A5000CDBF8C8F4D8F5E8F6F8F78A3B5DD9923BF
:100A60001CF49195819591099B838A831C821D8238
:100A70001E821F828C8D992787FD9095873F2FEFCF
:100A800092074CF08C8D992787FD90958A309105BF
:100A900014F480E0C5C08C8D992787FD909599232B
:100AA0001CF491958195910924E630E0F901E81B49
:100AB000F90B809106029091070224E630E0B9011B
:100AC00008D7CB019C01E29FC001E39F900DF29FEC
:100AD000900D1124AA2797FDA095BA2FBC01CD0136
:100AE000E1D5DC01CB0188879987AA87BB878A81FA
:100AF0009B81AA2797FDA095BA2FBC01CD01D2D525
:100B0000DC01CB019C01AD01688579858A859B85D7
:100B1000CAD4DC01CB018C839D83AE83BF832DECD3
:100B20003CEC4CEC5DEB6C817D818E819F816ED6BF
:100B3000DC01CB018C879D87AE87BF8780913A020D
:100B400090913B02A0913C02B0913D029C01AD010D
:100B50006C817D818E819F81A7D4DC01CB01888B44
:100B6000998BAA8BBB8B288939894A895B896D8DC2
:100B70007E8D8F8D98A14AD6DC01CB012AE037ED1E
:100B800043EA5BEBBC01CD0141D6DC01CB018C8B90
:100B90009D8BAE8BBF8B80913A0290913B02A091CE
:100BA0003C02B0913D022C813D814E815F81BC01B0
:100BB000CD017AD4DC01CB0180933A0290933B02C1
:100BC000A0933C02B0933D022C893D894E895F89F8
:100BD0006C857D858E859F8567D4DC01CB01888FF0
:100BE000998FAA8FBB8F888D998DAA8DBB8DBC01E3
:100BF000CD019CD6FC0180910602909107022FEF57
:100C000030E0B90166D6CB019C01CF01B90161D6B4
:100C1000CB0189838981853610F084E689838981B7
:100C2000A6960FB6F894DEBF0FBECDBFDF91CF9171
:100C30000895CF93DF93CDB7DEB786E890E021EE3D
:100C400034E0FC013183208388E890E02EE530E039
:100C5000FC013183208384E290E024E230E0F9015A
:100C600020812062FC01208380E890E020E830E0D1
:100C7000F90120812E7FFC01208380E890E020E8AC
:100C800030E0F90120812260FC01208381E890E0BE
:100C900021E830E0F90120812861FC01208380E80F
:100CA00090E020E830E0F90120812F7BFC012083D7
:100CB00080E890E020E830E0F90120812068FC0124
:100CC000208381E890E021E830E0F90120812C7F49
:100CD000FC01208381E890E021E830E0F9012081E7
:100CE0002460FC012083DF91CF9108950F931F931F
:100CF000CF93DF9300D0CDB7DEB78B838B81882F66
:100D000090E0292F2F938F938BE292E0892F8F937E
:100D10008BE292E08F935AD60F900F900F900F9026
:100D20008B818F3F41F488E890E023E830E0FC01BC
:100D3000318320836EC08B81882341F488E890E062
:100D400029E330E0FC013183208363C08B81833948
:100D500058F18B818F57898308E810E089819927A2
:100D600087FD9095A92FB92FBC01CD019BD4DC0143
:100D7000CB0120E030E040E650E4BC01CD01FCD3E3
:100D8000DC01CB0120E030E04CEB52E4BC01CD01B2
:100D90008BD3DC01CB01BC01CD0156D4DC01CB01EE
:100DA000F8019183808335C08B818C3658F58B8117
:100DB0008F578A8308E810E08A81992787FD9095EC
:100DC000A92FB92FBC01CD016DD4DC01CB0120E0EE
:100DD00030E040E650E4BC01CD01CED3DC01CB01D4
:100DE00020E030E04CEB52E4BC01CD015DD3DC01EE
:100DF000CB01BC01CD0128D4DC01CB01F8019183EA
:100E0000808307C088E890E02EE530E0FC01318364
:100E100020830F900F900F90DF91CF911F910F9132
:100E20000895CF93DF93CDB7DEB72F970FB6F89421
:100E3000DEBF0FBECDBF87DB89838981282F332793
:100E400027FD309580914002909141022817390783
:100E500009F483C08981282F332727FD309580919D
:100E60003E0290913F02820F931F90933F02809326
:100E70003E028981992787FD909590934102809346
:100E8000400280E090E0AAE7B4E48A839B83AC83CD
:100E9000BD8320E030E04AE755E46A817B818C81A4
:100EA0009D81B4D4DC01CB018E839F83A887B98751
:100EB00020E030E040E85FE36E817F81888599859E
:100EC00057D388232CF481E090E09B878A873BC02E
:100ED00020E03FEF4FE757E46E817F818885998559
:100EE00091D418163CF520E030E040E251E46A81EC
:100EF0007B818C819D818AD4DC01CB01BC01CD0139
:100F0000A3D3DC01CB019B878A870FC080E991E0E6
:100F10009D878C878C859D850197F1F79D878C87B0
:100F20008A859B8501979B878A878A859B85009701
:100F300069F713C06E817F818885998585D3DC012F
:100F4000CB019B878A878A859B859F878E878E8525
:100F50009F850197F1F79F878E878981992787FD64
:100F600090952F960FB6F894DEBF0FBECDBFDF91E0
:100F7000CF910895CF93DF93CDB7DEB78AE091E0AC
:100F80002AE031E0F90120812068FC0120838BE018
:100F900091E02BE031E0F90120812068FC01208301
:100FA000DF91CF910895CF93DF93CDB7DEB72E9722
:100FB0000FB6F894DEBF0FBECDBF8BE091E02BE003
:100FC00031E0F90120812F77FC01208380E090E05F
:100FD000AFE2B4E489839A83AB83BC8320E030E042
:100FE0004AE753E469817A818B819C810FD4DC01CB
:100FF000CB018D839E83AF83B88720E030E040E84B
:101000005FE36D817E818F819885B2D288232CF435
:1010100081E090E09A8789873BC020E03FEF4FE76F
:1010200057E46D817E818F819885ECD318163CF54D
:1010300020E030E040E251E469817A818B819C813B
:10104000E5D3DC01CB01BC01CD01FED2DC01CB013B
:101050009A8789870FC089E190E09C878B878B8571
:101060009C850197F1F79C878B8789859A850197E5
:101070009A87898789859A85009769F713C06D815A
:101080007E818F819885E0D2DC01CB019A878987A8
:1010900089859A859E878D878D859E850197F1F735
:1010A0009E878D878BE091E02BE031E0F901208174
:1010B0002068FC0120832E960FB6F894DEBF0FBE89
:1010C000CDBFDF91CF910895CF93DF93CDB7DEB73A
:1010D00084E290E024E230E0F90120812768FC01FD
:1010E000208384E290E024E230E0F9012081277F30
:1010F000FC01208385E290E025E230E0F9012081C7
:101100002860FC0120838CE490E02CE430E0F901BD
:1011100020812265FC012083DF91CF910895CF9338
:10112000DF931F92CDB7DEB789838EE490E02981EB
:10113000FC01208300008DE490E0FC018081882385
:10114000D4F70F90DF91CF910895CF93DF93CDB770
:10115000DEB78FEFE4DF00008DE490E0FC018081DA
:101160008823D4F78EE490E0FC018081DF91CF9159
:101170000895CF93DF93CDB7DEB785E290E025E207
:1011800030E0F90120812068FC012083DF91CF91BC
:101190000895CF93DF93CDB7DEB785E290E025E2E7
:1011A00030E0F90120812F77FC012083DF91CF917E
:1011B0000895CF93DF93CDB7DEB788EB90E02CE0B6
:1011C000FC0120838BEB90E02FEFFC0120838CEB64
:1011D00090E024E0FC012083DF91CF910895CF932C
:1011E000DF93CDB7DEB78CEB90E0FC01808181709E
:1011F000DF91CF910895CF93DF9300D01F92CDB7A9
:10120000DEB79B838A836C830000E9DF8823E9F7DC
:101210008C81809346028A819B81FC01808180932E
:1012200042028A819B81FC018081882F90E081703D
:1012300099270097D1F481E0898313C08981882F91
:1012400090E02981222F30E04A815B81240F351FF5
:10125000F90120818E5B9D4FFC01208389818F5F86
:10126000898399818C81981748F31092470288EFFF
:10127000809308028CEB90E025EAFC0120830F901C
:101280000F900F900F90DF91CF9108951F920F92C2
:1012900000905F000F92112400905B000F922F933B
:1012A0003F934F935F938F939F93AF93BF93EF932E
:1012B000FF93CF93DF93CDB7DEB789EB90E0FC01CE
:1012C0008081882F90E0AA2797FDA095BA2F48E04B
:1012D00050E020E530E0841B950B2817390708F40F
:1012E00072C08E589F4FFC0107C310924802909124
:1012F0004802809146029817B0F48BEB90E0209161
:10130000480231E0320F30934802222F30E02E5B4A
:101310003D4FF9012081FC0120838CEB90E025E812
:10132000FC0120835BC0809147028160809347026B
:101330008CEB90E024E9FC01208350C080914802AE
:1013400091E0980F90934802882F90E02BEB30E0CB
:10135000F90120818E5B9D4FFC0120838091480222
:10136000282F30E080914602882F90E001972817BF
:10137000390734F48CEB90E025ECFC0120832EC07F
:101380008CEB90E025E8FC01208328C08091480286
:10139000882F90E02BEB30E0F90120818E5B9D4F90
:1013A000FC012083809147028160809347028CEB8F
:1013B00090E024E9FC01208311C08CEB90E025EA49
:1013C000FC0120830BC089EB90E0FC0180818093BD
:1013D00008028CEB90E024E0FC012083DF91CF91A8
:1013E000FF91EF91BF91AF919F918F915F914F913D
:1013F0003F912F910F9000925B000F9000925F0041
:101400000F901F901895CF93DF931F921F92CDB727
:10141000DEB79A83898385EC90E029813A81232F76
:101420003327FC01208384EC90E02981FC01208398
:1014300081EC90E028E1FC01208361E47AE087E21E
:101440009AE07AD20F900F90DF91CF910895CF93C9
:10145000DF931F92CDB7DEB78983000080EC90E068
:10146000FC018081882F90E0807299270097B1F36A
:1014700086EC90E02981FC0120830F90DF91CF91D1
:101480000895CF93DF93CDB7DEB7000080EC90E0F6
:10149000FC0180818823D4F786EC90E0FC018081F8
:1014A000DF91CF9108955058BB27AA270ED070C165
:1014B00061D130F066D120F031F49F3F11F41EF479
:1014C00056C10EF4E095E7FB4CC1E92F72D180F3D1
:1014D000BA17620773078407950718F071F49EF531
:1014E0008AC10EF4E0950B2EBA2FA02D0B01B90185
:1014F00090010C01CA01A0011124FF27591B99F08A
:10150000593F50F4503E68F11A16F040A22F232F95
:10151000342F4427585FF3CF469537952795A795E5
:10152000F0405395C9F77EF41F16BA0B620B730B8C
:10153000840BBAF09150A1F0FF0FBB1F661F771FFD
:10154000881FC2F70EC0BA0F621F731F841F48F4B2
:10155000879577956795B795F7959E3F08F0B3CF38
:101560009395880F08F09927EE0F97958795089522
:10157000D4D008F481E008950CD00AC102D140F023
:10158000F9D030F021F45F3F19F0EBC0511134C1B4
:10159000EEC00FD198F39923C9F35523B1F3951BEE
:1015A000550BBB27AA2762177307840738F09F5F84
:1015B0005F4F220F331F441FAA1FA9F333D00E2EF3
:1015C0003AF0E0E830D091505040E695001CCAF760
:1015D00029D0FE2F27D0660F771F881FBB1F261725
:1015E00037074807AB07B0E809F0BB0B802DBF01F8
:1015F000FF2793585F4F2AF09E3F510568F0B1C016
:10160000FBC05F3FECF3983EDCF3869577956795DA
:10161000B795F7959F5FC9F7880F911D96958795A8
:1016200097F90895E1E0660F771F881FBB1F6217C7
:1016300073078407BA0720F0621B730B840BBA0B85
:10164000EE1F88F7E0950895BCD088F09F5790F082
:10165000B92F9927B751A0F0D1F0660F771F881FD7
:10166000991F1AF0BA95C9F712C0B13081F0C3D0F2
:10167000B1E00895C0C0672F782F8827B85F39F090
:10168000B93FCCF3869577956795B395D9F73EF436
:1016900090958095709561957F4F8F4F9F4F0895DE
:1016A000E89409C097FB3EF49095809570956195FC
:1016B0007F4F8F4F9F4F9923A9F0F92F96E9BB27B2
:1016C0009395F695879577956795B795F111F8CF2E
:1016D000FAF4BB0F11F460FF1BC06F5F7F4F8F4F99
:1016E0009F4F16C0882311F096E911C0772321F08F
:1016F0009EE8872F762F05C0662371F096E8862F27
:1017000070E060E02AF09A95660F771F881FDAF77D
:10171000880F9695879597F90895990F0008550FAA
:10172000AA0BE0E8FEEF16161706E807F907C0F067
:1017300012161306E407F50798F0621B730B840B6F
:10174000950B39F40A2661F0232B242B252B21F449
:1017500008950A2609F4A140A6958FEF811D811DE9
:10176000089597F99F6780E870E060E008959FEF23
:1017700080EC089500240A94161617061806090628
:10178000089500240A9412161306140605060895F7
:10179000092E0394000C11F4882352F0BB0F40F47F
:1017A000BF2B11F460FF04C06F5F7F4F8F4F9F4FBF
:1017B000089557FD9058440F551F59F05F3F71F041
:1017C0004795880F97FB991F61F09F3F79F08795A8
:1017D0000895121613061406551FF2CF4695F1DF31
:1017E00008C0161617061806991FF1CF86957105C1
:1017F000610508940895E894BB2766277727CB01F5
:1018000097F908958ADF08F48FEF08950BD0C0CFC1
:10181000B1DF28F0B6DF18F0952309F0A2CFA7CFEB
:101820001124EACFC6DFA0F3959FD1F3950F50E0C6
:10183000551F629FF001729FBB27F00DB11D639F82
:10184000AA27F00DB11DAA1F649F6627B00DA11D28
:10185000661F829F2227B00DA11D621F739FB00DCE
:10186000A11D621F839FA00D611D221F749F33273E
:10187000A00D611D231F849F600D211D822F762FD7
:101880006A2F11249F5750408AF0E1F088234AF0D4
:10189000EE0FFF1FBB1F661F771F881F9150504020
:1018A000A9F79E3F510570F05CCFA6CF5F3FECF3E8
:1018B000983EDCF3869577956795B795F795E7950C
:1018C0009F5FC1F7FE2B880F911D9695879597F91D
:1018D000089597FB072E16F4009406D077FD08D0E4
:1018E00011D007FC05D03EF4909581959F4F089547
:1018F000709561957F4F0895EE0FFF1F0590F4914D
:10190000E02D1994AA1BBB1B51E107C0AA1FBB1FE6
:10191000A617B70710F0A61BB70B881F991F5A957B
:10192000A9F780959095BC01CD01089597FF03C05C
:1019300091958195910908950F931F93CF93DF930C
:10194000EC018B01009731F46115710519F480E009
:1019500090E037C06EE070E081E090E063D2FC017F
:101960000097A9F380E883830115110571F01387AF
:10197000028781E883838091490290914A02892BF2
:1019800021F4F0934A02E09349022097C9F0D187ED
:10199000C08783818260838380914B0290914C0247
:1019A000892B71F4F0934C02E0934B0280914D022D
:1019B00090914E02892B21F4F0934E02E0934D0258
:1019C000CF01DF91CF911F910F910895CF93DF93B6
:1019D000CDB7DEB7FE01369661917191AF0180916E
:1019E0004B0290914C0230D0DF91CF9108950F932C
:1019F0001F93CF93DF93E0914B02F0914C02238130
:101A000021FF1BC0EC0100E010E0899160914B02C6
:101A100070914C02DB011896ED91FC911997882387
:101A200031F01995892B89F30FEF1FEFEECF8AE084
:101A30001995892B11F4C80102C08FEF9FEFDF9138
:101A4000CF911F910F9108952F923F924F925F92E5
:101A50006F927F928F929F92AF92BF92CF92DF92BE
:101A6000EF92FF920F931F93CF93DF93CDB7DEB723
:101A70002C970FB6F894DEBF0FBECDBF7C016B0173
:101A80008A01FC0117821682838181FFB0C1CE01D9
:101A900001964C01F7019381F60193FD859193FF27
:101AA00081916F01882309F49EC1853239F493FD39
:101AB000859193FF81916F01853221F4B70190E008
:101AC0000FD3E8CF512C312C20E02032A0F48B3200
:101AD00069F030F4803259F0833269F420612CC00F
:101AE0008D3239F0803339F4216026C022602460C1
:101AF00023C0286021C027FD27C030ED380F3A30C1
:101B000078F426FF06C0FAE05F9E300D1124532EB4
:101B100013C08AE0389E300D1124332E20620CC091
:101B20008E3221F426FD5FC1206406C08C3611F48C
:101B3000206802C0883641F4F60193FD859193FF39
:101B400081916F018111C1CF982F9F7D9554933062
:101B500028F40C5F1F4FFFE3F9830DC0833631F08B
:101B6000833771F0833509F057C021C0F8018081B7
:101B700089830E5F1F4F44244394512C540114C099
:101B80003801F2E06F0E711CF801A080B18026FFD1
:101B900003C0652D70E002C06FEF7FEFC5012C8799
:101BA00094D22C0183012C852F77222E16C0380168
:101BB000F2E06F0E711CF801A080B18026FF03C017
:101BC000652D70E002C06FEF7FEFC5012C876BD2EF
:101BD0002C012C852068222E830123FC19C0832D23
:101BE00090E048165906A0F4B70180E290E078D260
:101BF0003A94F5CFF50127FC859127FE81915F018D
:101C0000B70190E06DD231103A94F1E04F1A5108CB
:101C10004114510479F7DEC0843611F0893631F56C
:101C2000F80127FF07C060817181828193810C5F79
:101C30001F4F08C060817181882777FD8095982F9C
:101C40000E5F1F4F2F76B22E97FF09C0909580959B
:101C5000709561957F4F8F4F9F4F2068B22E2AE07D
:101C600030E0A4016FD2A82EA81843C0853729F40C
:101C70002F7EB22E2AE030E025C0F22FF97FBF2E52
:101C80008F36C1F018F4883579F0ADC0803719F07F
:101C9000883721F0A8C02F2F2061B22EB4FE0DC0CE
:101CA0008B2D8460B82E09C024FF0AC09F2F966038
:101CB000B92E06C028E030E005C020E130E002C0C7
:101CC00020E132E0F801B7FE07C0608171818281B6
:101CD00093810C5F1F4F06C06081718180E090E0AE
:101CE0000E5F1F4FA4012ED2A82EA818FB2DFF7740
:101CF000BF2EB6FE0BC02B2D2E7FA51450F4B4FEC4
:101D00000AC0B2FC08C02B2D2E7E05C07A2C2B2DCC
:101D100003C07A2C01C0752C24FF0DC0FE01EA0D12
:101D2000F11D8081803311F4297E09C022FF06C095
:101D30007394739404C0822F867809F0739423FD02
:101D400012C020FF06C05A2C731418F4530C5718F5
:101D5000732C731460F4B70180E290E02C87C0D13B
:101D600073942C85F6CF731410F4371801C0312CFE
:101D700024FF11C0B70180E390E02C87B1D12C85FE
:101D800022FF16C021FF03C088E590E002C088E76B
:101D900090E0B7010CC0822F867851F021FD02C07F
:101DA00080E201C08BE227FD8DE2B70190E098D17F
:101DB000A51430F4B70180E390E092D15A94F8CFA3
:101DC000AA94F401EA0DF11D8081B70190E088D159
:101DD000A110F6CF332009F45DCEB70180E290E088
:101DE0007FD13A94F7CFF7018681978102C08FEFB8
:101DF0009FEF2C960FB6F894DEBF0FBECDBFDF91DC
:101E0000CF911F910F91FF90EF90DF90CF90BF90F7
:101E1000AF909F908F907F906F905F904F903F908A
:101E20002F9008950F931F93CF93DF93869F800188
:101E3000879F100D969F100D1124C8010DD0EC0145
:101E4000009721F0A80160E070E038D1CE01DF9169
:101E5000CF911F910F910895CF93DF938230910519
:101E600010F482E090E0E0915102F091520220E003
:101E700030E0A0E0B0E0309739F14081518148175F
:101E80005907B8F04817590771F482819381109768
:101E900029F013969C938E9312972CC09093520224
:101EA0008093510227C02115310531F042175307A5
:101EB00018F0A901DB0101C0EF019A01BD01DF01AA
:101EC0000280F381E02DD7CF21153105F9F0281BD1
:101ED000390B2430310580F48A819B8161157105AD
:101EE00021F0FB019383828304C09093520280937C
:101EF0005102FE01329644C0FE01E20FF31F8193AE
:101F0000919322503109398328833AC020914F029E
:101F100030915002232B41F42091020230910302B0
:101F20003093500220934F02209100023091010221
:101F30002115310541F42DB73EB74091040250916F
:101F40000502241B350BE0914F02F0915002E2177D
:101F5000F307A0F42E1B3F0B2817390778F0AC01CC
:101F60004E5F5F4F2417350748F04E0F5F1F5093A9
:101F7000500240934F028193919302C0E0E0F0E061
:101F8000CF01DF91CF910895CF93DF93009709F4AC
:101F900087C0FC01329713821282C0915102D09106
:101FA0005202209781F420813181280F391F8091BE
:101FB0004F02909150028217930779F5F0935002E7
:101FC000E0934F026DC0DE0120E030E0AE17BF07A6
:101FD00050F412964D915C9113979D014115510556
:101FE00009F1DA01F3CFB383A28340815181840FD9
:101FF000951F8A179B0771F48D919C911197840FFF
:10200000951F02969183808312968D919C911397D0
:10201000938382832115310529F4F0935202E093D2
:1020200051023EC0D9011396FC93EE9312974D9145
:102030005D91A40FB51FEA17FB0779F480819181A8
:10204000840F951F0296D90111969C938E938281DD
:10205000938113969C938E931297E0E0F0E08A812F
:102060009B81009719F0FE01EC01F9CFCE01029699
:1020700028813981820F931F20914F0230915002A5
:102080002817390769F4309729F4109252021092F8
:10209000510202C013821282D0935002C0934F02A9
:1020A000DF91CF910895FC010590615070400110BF
:1020B000D8F7809590958E0F9F1F0895DC0101C081
:1020C0006D9341505040E0F70895FC01615070401D
:1020D00001900110D8F7809590958E0F9F1F08955D
:1020E0000F931F93CF93DF93182F092FEB018B8151
:1020F00081FD03C08FEF9FEF20C082FF10C04E8193
:102100005F812C813D81421753077CF4E881F9817E
:102110009F012F5F3F4F39832883108306C0E885D6
:10212000F985812F1995892B29F72E813F812F5F02
:102130003F4F3F832E83812F902FDF91CF911F91AF
:102140000F910895FA01AA27283051F1203181F129
:10215000E8946F936E7F6E5F7F4F8F4F9F4FAF4FAF
:10216000B1E03ED0B4E03CD0670F781F891F9A1FC2
:10217000A11D680F791F8A1F911DA11D6A0F711D76
:10218000811D911DA11D20D009F468943F912AE082
:10219000269F11243019305D3193DEF6CF0108956A
:1021A000462F4770405D4193B3E00FD0C9F7F6CF9B
:1021B000462F4F70405D4A3318F0495D31FD405263
:1021C000419302D0A9F7EACFB4E0A69597958795F9
:1021D00077956795BA95C9F70097610571050895D8
:1021E0009B01AC010A2E0694579547953795279584
:1021F000BA95C9F7620F731F841F951FA01D08951C
:04220000F894FFCF80
:10220400000053022000B80BF841746D6567613219
:102214003536302073746172742E0043414E20624F
:102224007574746F6E206461746100506F736974A7
:0A223400696F6E202569200A000082
:00000001FF
