:10000000C2C00000E0C00000DEC00000DCC0000094
:10001000DAC00000D8C00000D6C00000D4C0000084
:10002000D2C00000D0C00000CEC00000CCC0000094
:10003000CAC00000C8C00000C6C00000C4C00000A4
:10004000C2C00000C0C00000BEC00000BCC00000B4
:10005000BAC00000B8C00000B6C00000B4C00000C4
:10006000B2C00000B0C00000AEC00000ACC00000D4
:10007000AAC00000A8C00000A6C00000A4C00000E4
:10008000A2C00000A0C000009EC000009CC00000F4
:100090009AC0000098C0000096C0000057C600003B
:1000A00092C0000090C000008EC000008CC0000014
:1000B0008AC0000088C0000086C0000084C0000024
:1000C00082C0000080C000007EC000007CC0000034
:1000D0007AC0000078C0000076C0000074C0000044
:1000E00072C00000D5064307430743074307430791
:1000F00043074307D506430743074307430743071F
:1001000043074307D706430743074307430743070C
:10011000430743074307430743074307430743078F
:1001200043074307D70643074307430743074307EC
:10013000430743074307430743074307430743076F
:10014000430743073D074307430743074307430765
:10015000430743070E074307430743074307430784
:10016000430743074307430743074307430743073F
:1001700043074307FE064307430743074307430775
:1001800043074307260711241FBECFEFD1E2DEBF8E
:10019000CDBF00E00CBF12E0A0E0B2E0E0E2F7E18A
:1001A00000E00BBF02C007900D92A032B107D9F753
:1001B00022E0A0E2B2E001C01D92A533B207E1F750
:1001C0007CD00C948E0B1CCFCF93DF93CDB7DEB7D2
:1001D0008CE790E02CE730E0F90120812068FC01F9
:1001E00020838CE790E02CE730E0F90120812F7B21
:1001F000FC0120838CE790E02CE730E0F9012081BE
:100200002F7DFC01208380E390E020E330E0F901C2
:1002100020812E7FFC0120838BE790E02BE730E0EC
:10022000F9012081277FFC0120838CE790E02CE7F7
:1002300030E0F9012081207EFC0120838AE790E0F4
:100240002AE730E0F90120812760FC0120838BE759
:1002500090E02BE730E0F9012081287FFC0120832A
:100260008AE790E02AE730E0F90120812068FC016C
:100270002083DF91CF910895CF93DF93CDB7DEB781
:100280008AE790E02AE730E0F90120812064FC0150
:10029000208300008AE790E0FC018081882F90E0B5
:1002A000807499270097B1F789E790E0FC0180817D
:1002B000882F90E0DF91CF910895CF93DF93CDB752
:1002C000DEB7A7970FB6F894DEBF0FBECDBF87E6A7
:1002D00090E0F9D587E092E00E94190A53D050D1FE
:1002E0001AD2A8D32ED186E18C8384E08D8383E05B
:1002F0008E8B84E08F8B1F821E82198618861B8648
:100300001A861F8E1E8E89E192E00E94190A1D86B0
:100310001C86198E188E1B8E1A8E1D8E1C8ECE0179
:100320004696A1D0888D998D0097B9F0888D998DCA
:100330008A838A8168D18A81992787FD909599233C
:100340001CF4919581959109898389818A3008F4FB
:1003500019828981882F90E03DD18A8D9B8D0097ED
:1003600029F08A8D9B8D8B838B8132D28C8D9D8DD4
:10037000009709F078D3B5D29D878C87CE0104967B
:1003800019D0C1CFCF93DF93CDB7DEB75CD14FEF9C
:1003900060E680E69DD140E064E080E699D141E0EE
:1003A00065E08BE295D140E060EF8FE091D1DF9185
:1003B000CF910895CF93DF9300D01F92CDB7DEB7D2
:1003C0009C838B83000080E347D1882F90E0887066
:1003D00099270097C1F78B819C81FC0180818295D0
:1003E000880F807E682F82E34CD18B819C81FC0139
:1003F0008081869586958695682F81E342D18B8191
:100400009C81FC018181682F85E33BD11A8219828E
:1004100016C02B813C8189819A810196880F991F92
:10042000820F931FFC0180819181982F89818A5CC2
:10043000692F27D189819A8101969A8389838B813B
:100440009C81FC018181282F30E089819A8182176B
:100450009307FCF281E02AD10F900F900F900F903C
:10046000DF91CF9108951F93CF93DF9300D01F9218
:10047000CDB7DEB79C838B838B819C81FC0113827B
:1004800012828B819C81FC0110828B819C81FC01FA
:10049000118200008CE2E0D0882F90E081709927D3
:1004A0000097C1F381E6D8D0882F90E0880F991F7C
:1004B000880F991F880F991F182F82E6CDD082953B
:1004C00086958770812B282F8B819C81FC0120834E
:1004D00085E6C2D0282F2F708B819C81FC0121835F
:1004E0001A82198217C089818A59B6D0882F90E064
:1004F0009C014B815C8189819A810196880F991FAB
:10050000840F951FFC013183208389819A81019694
:100510009A8389838B819C81FC018181282F30E023
:1005200089819A8182179307F4F240E061E08CE2BE
:10053000CFD00F900F900F900F90DF91CF911F9120
:100540000895CF93DF93CDB7DEB73EDEDF91CF9135
:100550000895CF93DF931F921F92CDB7DEB78CDE45
:100560009A83898389819A81009719F080E090E0CD
:1005700002C081E090E00F900F90DF91CF9108953D
:10058000CF93DF93CDB7DEB774D3FCDE8AE290E081
:100590002AE230E0F90120812360FC01208387E01A
:1005A00091E0FC01108288EB90E02CE0FC012083BC
:1005B00081E091E02FEFFC01208382E091E022E0D6
:1005C00031E0F90120812265FC0120837894DF91DC
:1005D000CF910895CF93DF9300D01F921F92CDB794
:1005E000DEB78D8380E589831A828D818B8363E0FA
:1005F000CE01019660D30F900F900F900F900F9047
:10060000DF91CF910895CF93DF931F92CDB7DEB7DF
:1006100089838981181654F482E091E022E031E068
:10062000F90120812260FC01208309C082E091E071
:1006300022E031E0F90120812D7FFC0120830F9021
:10064000DF91CF910895CF93DF93CDB7DEB79CD2E2
:1006500057D0DF91CF910895CF93DF931F921F92D0
:10066000CDB7DEB78A83F5D283E0B9D28A81B7D21B
:10067000CCD28983DED289810F900F90DF91CF9108
:100680000895CF93DF931F921F92CDB7DEB7898372
:100690006A83DFD282E0A3D28981A1D28A819FD2EC
:1006A000C8D20F900F90DF91CF910895CF93DF9331
:1006B0001F92CDB7DEB78983CCD2898187708983B9
:1006C000898180588CD2B5D20F90DF91CF91089557
:1006D000CF93DF9300D0CDB7DEB789836A834B8396
:1006E000B8D285E07CD289817AD28A8178D28B8116
:1006F00076D29FD20F900F900F90DF91CF910895F7
:10070000CF93DF93CDB7DEB7A4D280EC68D291D27D
:10071000DF91CF910895CF93DF93CDB7DEB786E811
:1007200090E021EE34E0FC013183208388E890E002
:100730002EE530E0FC013183208384E290E024E266
:1007400030E0F90120812062FC01208380E890E004
:1007500020E830E0F90120812E7FFC01208380E831
:1007600090E020E830E0F90120812260FC01208344
:1007700081E890E021E830E0F90120812861FC0166
:10078000208380E890E020E830E0F90120812F7B91
:10079000FC01208380E890E020E830E0F90120812E
:1007A0002068FC01208381E890E021E830E0F90135
:1007B00020812C7FFC01208381E890E021E830E05B
:1007C000F90120812460FC012083DF91CF910895FD
:1007D0000F931F93CF93DF9300D0CDB7DEB78B83FA
:1007E0008B818F3F41F488E890E023E830E0FC0102
:1007F000318320836EC08B81882341F488E890E0A8
:1008000029E330E0FC013183208363C08B8183398D
:1008100058F18B818F57898308E810E089819927E7
:1008200087FD9095A92FB92FBC01CD019BD4DC0188
:10083000CB0120E030E040E650E4BC01CD01FCD328
:10084000DC01CB0120E030E04CEB52E4BC01CD01F7
:100850008BD3DC01CB01BC01CD0156D4DC01CB0133
:10086000F8019183808335C08B818C3658F58B815C
:100870008F578A8308E810E08A81992787FD909531
:10088000A92FB92FBC01CD016DD4DC01CB0120E033
:1008900030E040E650E4BC01CD01CED3DC01CB0119
:1008A00020E030E04CEB52E4BC01CD015DD3DC0133
:1008B000CB01BC01CD0128D4DC01CB01F80191832F
:1008C000808307C088E890E02EE530E0FC013183AA
:1008D00020830F900F900F90DF91CF911F910F9178
:1008E0000895CF93DF93CDB7DEB72F970FB6F89467
:1008F000DEBF0FBECDBF2DDE89838981282F332730
:1009000027FD309580912202909123022817390704
:1009100009F483C08981282F332727FD30958091E2
:10092000200290912102820F931F909321028093C5
:1009300020028981992787FD9095909323028093C7
:10094000220280E090E0AAE7B4E48A839B83AC8330
:10095000BD8320E030E04AE755E46A817B818C81E9
:100960009D81B4D4DC01CB018E839F83A887B98796
:1009700020E030E040E85FE36E817F8188859985E3
:1009800057D388232CF481E090E09B878A873BC073
:1009900020E03FEF4FE757E46E817F81888599859E
:1009A00091D418163CF520E030E040E251E46A8131
:1009B0007B818C819D818AD4DC01CB01BC01CD017E
:1009C000A3D3DC01CB019B878A870FC080E991E02C
:1009D0009D878C878C859D850197F1F79D878C87F6
:1009E0008A859B8501979B878A878A859B85009747
:1009F00069F713C06E817F818885998585D3DC0175
:100A0000CB019B878A878A859B859F878E878E856A
:100A10009F850197F1F79F878E878981992787FDA9
:100A200090952F960FB6F894DEBF0FBECDBFDF9125
:100A3000CF910895CF93DF93CDB7DEB78AE091E0F1
:100A40002AE031E0F90120812068FC0120838BE05D
:100A500091E02BE031E0F90120812068FC01208346
:100A6000DF91CF910895CF93DF93CDB7DEB72E9767
:100A70000FB6F894DEBF0FBECDBF8BE091E02BE048
:100A800031E0F90120812F77FC01208380E090E0A4
:100A9000AFE2B4E489839A83AB83BC8320E030E087
:100AA0004AE753E469817A818B819C810FD4DC0110
:100AB000CB018D839E83AF83B88720E030E040E890
:100AC0005FE36D817E818F819885B2D288232CF47B
:100AD00081E090E09A8789873BC020E03FEF4FE7B5
:100AE00057E46D817E818F819885ECD318163CF593
:100AF00020E030E040E251E469817A818B819C8181
:100B0000E5D3DC01CB01BC01CD01FED2DC01CB0180
:100B10009A8789870FC089E190E09C878B878B85B6
:100B20009C850197F1F79C878B8789859A8501972A
:100B30009A87898789859A85009769F713C06D819F
:100B40007E818F819885E0D2DC01CB019A878987ED
:100B500089859A859E878D878D859E850197F1F77A
:100B60009E878D878BE091E02BE031E0F9012081B9
:100B70002068FC0120832E960FB6F894DEBF0FBECE
:100B8000CDBFDF91CF910895CF93DF93CDB7DEB77F
:100B900084E290E024E230E0F90120812768FC0142
:100BA000208384E290E024E230E0F9012081277F75
:100BB000FC01208385E290E025E230E0F90120810C
:100BC0002860FC0120838CE490E02CE430E0F90103
:100BD00020812265FC012083DF91CF910895CF937E
:100BE000DF931F92CDB7DEB789838EE490E0298131
:100BF000FC01208300008DE490E0FC0180818823CB
:100C0000D4F70F90DF91CF910895CF93DF93CDB7B5
:100C1000DEB78FEFE4DF00008DE490E0FC0180811F
:100C20008823D4F78EE490E0FC018081DF91CF919E
:100C30000895CF93DF93CDB7DEB785E290E025E24C
:100C400030E0F90120812068FC012083DF91CF9101
:100C50000895CF93DF93CDB7DEB785E290E025E22C
:100C600030E0F90120812F77FC012083DF91CF91C3
:100C70000895CF93DF93CDB7DEB788EB90E02CE0FB
:100C8000FC0120838BEB90E02FEFFC0120838CEBA9
:100C900090E024E0FC012083DF91CF910895CF9371
:100CA000DF93CDB7DEB78CEB90E0FC0180818170E3
:100CB000DF91CF910895CF93DF9300D01F92CDB7EE
:100CC000DEB79B838A836C830000E9DF8823E9F722
:100CD0008C81809328028A819B81FC018081809392
:100CE00024028A819B81FC018081882F90E08170A1
:100CF00099270097D1F481E0898313C08981882FD7
:100D000090E02981222F30E04A815B81240F351F3A
:100D1000F90120818C5D9D4FFC01208389818F5FCB
:100D2000898399818C81981748F31092290288EF62
:100D3000809306028CEB90E025EAFC0120830F9063
:100D40000F900F900F90DF91CF9108951F920F9207
:100D500000905F000F92112400905B000F922F9380
:100D60003F934F935F938F939F93AF93BF93EF9373
:100D7000FF93CF93DF93CDB7DEB789EB90E0FC0113
:100D80008081882F90E0AA2797FDA095BA2F48E090
:100D900050E020E530E0841B950B2817390708F454
:100DA00072C08E589F4FFC01F4C210922A0290919B
:100DB0002A02809128029817B0F48BEB90E02091E2
:100DC0002A0231E0320F30932A02222F30E02C5DCC
:100DD0003D4FF9012081FC0120838CEB90E025E858
:100DE000FC0120835BC080912902816080932902ED
:100DF0008CEB90E024E9FC01208350C080912A0212
:100E000091E0980F90932A02882F90E02BEB30E02E
:100E1000F90120818C5D9D4FFC01208380912A0285
:100E2000282F30E080912802882F90E00197281722
:100E3000390734F48CEB90E025ECFC0120832EC0C4
:100E40008CEB90E025E8FC01208328C080912A02E9
:100E5000882F90E02BEB30E0F90120818C5D9D4FD5
:100E6000FC012083809129028160809329028CEB10
:100E700090E024E9FC01208311C08CEB90E025EA8E
:100E8000FC0120830BC089EB90E0FC018081809302
:100E900006028CEB90E024E0FC012083DF91CF91EF
:100EA000FF91EF91BF91AF919F918F915F914F9182
:100EB0003F912F910F9000925B000F9000925F0086
:100EC0000F901F901895CF93DF931F921F92CDB76D
:100ED000DEB79A83898385EC90E029813A81232FBC
:100EE0003327FC01208384EC90E02981FC012083DE
:100EF00081EC90E028E1FC01208361EA77E087E85B
:100F000097E04DD20F900F90DF91CF910895CF933E
:100F1000DF931F92CDB7DEB78983000080EC90E0AD
:100F2000FC018081882F90E0807299270097B1F3AF
:100F300086EC90E02981FC0120830F90DF91CF9116
:100F40000895CF93DF93CDB7DEB7000080EC90E03B
:100F5000FC0180818823D4F786EC90E0FC0180813D
:100F6000DF91CF9108955058BB27AA270ED070C1AA
:100F700061D130F066D120F031F49F3F11F41EF4BE
:100F800056C10EF4E095E7FB4CC1E92F72D180F316
:100F9000BA17620773078407950718F071F49EF576
:100FA0008AC10EF4E0950B2EBA2FA02D0B01B901CA
:100FB00090010C01CA01A0011124FF27591B99F0CF
:100FC000593F50F4503E68F11A16F040A22F232FDB
:100FD000342F4427585FF3CF469537952795A7952B
:100FE000F0405395C9F77EF41F16BA0B620B730BD2
:100FF000840BBAF09150A1F0FF0FBB1F661F771F43
:10100000881FC2F70EC0BA0F621F731F841F48F4F7
:10101000879577956795B795F7959E3F08F0B3CF7D
:101020009395880F08F09927EE0F97958795089567
:10103000D4D008F481E008950CD00AC102D140F068
:10104000F9D030F021F45F3F19F0EBC0511134C1F9
:10105000EEC00FD198F39923C9F35523B1F3951B33
:10106000550BBB27AA2762177307840738F09F5FC9
:101070005F4F220F331F441FAA1FA9F333D00E2E38
:101080003AF0E0E830D091505040E695001CCAF7A5
:1010900029D0FE2F27D0660F771F881FBB1F26176A
:1010A00037074807AB07B0E809F0BB0B802DBF013D
:1010B000FF2793585F4F2AF09E3F510568F0B1C05B
:1010C000FBC05F3FECF3983EDCF386957795679520
:1010D000B795F7959F5FC9F7880F911D96958795EE
:1010E00097F90895E1E0660F771F881FBB1F62170D
:1010F00073078407BA0720F0621B730B840BBA0BCB
:10110000EE1F88F7E0950895BCD088F09F5790F0C7
:10111000B92F9927B751A0F0D1F0660F771F881F1C
:10112000991F1AF0BA95C9F712C0B13081F0C3D037
:10113000B1E00895C0C0672F782F8827B85F39F0D5
:10114000B93FCCF3869577956795B395D9F73EF47B
:1011500090958095709561957F4F8F4F9F4F089523
:10116000E89409C097FB3EF4909580957095619541
:101170007F4F8F4F9F4F9923A9F0F92F96E9BB27F7
:101180009395F695879577956795B795F111F8CF73
:10119000FAF4BB0F11F460FF1BC06F5F7F4F8F4FDE
:1011A0009F4F16C0882311F096E911C0772321F0D4
:1011B0009EE8872F762F05C0662371F096E8862F6C
:1011C00070E060E02AF09A95660F771F881FDAF7C3
:1011D000880F9695879597F90895990F0008550FF0
:1011E000AA0BE0E8FEEF16161706E807F907C0F0AD
:1011F00012161306E407F50798F0621B730B840BB5
:10120000950B39F40A2661F0232B242B252B21F48E
:1012100008950A2609F4A140A6958FEF811D811D2E
:10122000089597F99F6780E870E060E008959FEF68
:1012300080EC089500240A9416161706180609066D
:10124000089500240A94121613061406050608953C
:10125000092E0394000C11F4882352F0BB0F40F4C4
:10126000BF2B11F460FF04C06F5F7F4F8F4F9F4F04
:10127000089557FD9058440F551F59F05F3F71F086
:101280004795880F97FB991F61F09F3F79F08795ED
:101290000895121613061406551FF2CF4695F1DF76
:1012A00008C0161617061806991FF1CF8695710506
:1012B000610508940895E894BB2766277727CB013A
:1012C00097F908958ADF08F48FEF08950BD0C0CF07
:1012D000B1DF28F0B6DF18F0952309F0A2CFA7CF31
:1012E0001124EACFC6DFA0F3959FD1F3950F50E00C
:1012F000551F629FF001729FBB27F00DB11D639FC8
:10130000AA27F00DB11DAA1F649F6627B00DA11D6D
:10131000661F829F2227B00DA11D621F739FB00D13
:10132000A11D621F839FA00D611D221F749F332783
:10133000A00D611D231F849F600D211D822F762F1C
:101340006A2F11249F5750408AF0E1F088234AF019
:10135000EE0FFF1FBB1F661F771F881F9150504065
:10136000A9F79E3F510570F05CCFA6CF5F3FECF32D
:10137000983EDCF3869577956795B795F795E79551
:101380009F5FC1F7FE2B880F911D9695879597F962
:101390000895EE0FFF1F0590F491E02D19940F931F
:1013A0001F93CF93DF93EC018B01009731F461150C
:1013B000710519F480E090E037C06EE070E081E0E4
:1013C00090E064D0FC010097A9F380E883830115C5
:1013D000110571F01387028781E8838380912B02C6
:1013E00090912C02892B21F4F0932C02E0932B0294
:1013F0002097C9F0D187C0878381826083838091E1
:101400002D0290912E02892B71F4F0932E02E0931D
:101410002D0280912F0290913002892B21F4F093BC
:101420003002E0932F02CF01DF91CF911F910F91F6
:1014300008950F931F93CF93DF93E0912D02F091C6
:101440002E02238121FF1BC0EC0100E010E08991F6
:1014500060912D0270912E02DB011896ED91FC91A6
:101460001997882331F01995892B89F30FEF1FEF16
:10147000EECF8AE01995892B11F4C80102C08FEFD5
:101480009FEFDF91CF911F910F9108950F931F93BD
:10149000CF93DF93869F8001879F100D969F100D3D
:1014A0001124C8010DD0EC01009721F0A80160E0E3
:1014B00070E02DD1CE01DF91CF911F910F91089552
:1014C000CF93DF938230910510F482E090E0E091B9
:1014D0003302F091340220E030E0A0E0B0E0309739
:1014E00039F14081518148175907B8F04817590719
:1014F00071F482819381109729F013969C938E93B7
:1015000012972CC0909334028093330227C0211588
:10151000310531F04217530718F0A901DB0101C072
:10152000EF019A01BD01DF010280F381E02DD7CFE9
:1015300021153105F9F0281B390B2430310580F4D1
:101540008A819B816115710521F0FB019383828360
:1015500004C09093340280933302FE01329644C05B
:10156000FE01E20FF31F81939193225031093983D9
:1015700028833AC02091310230913202232B41F46A
:101580002091020230910302309332022093310203
:1015900020910002309101022115310541F42DB74F
:1015A0003EB74091040250910502241B350BE09197
:1015B0003102F0913202E217F307A0F42E1B3F0B29
:1015C0002817390778F0AC014E5F5F4F24173507B5
:1015D00048F04E0F5F1F50933202409331028193C7
:1015E000919302C0E0E0F0E0CF01DF91CF91089548
:1015F000CF93DF93009709F487C0FC0132971382E1
:101600001282C0913302D0913402209781F420815C
:101610003181280F391F8091310290913202821757
:10162000930779F5F0933202E09331026DC0DE0149
:1016300020E030E0AE17BF0750F412964D915C9158
:1016400013979D014115510509F1DA01F3CFB383D9
:10165000A28340815181840F951F8A179B0771F4E3
:101660008D919C911197840F951F02969183808391
:1016700012968D919C911397938382832115310546
:1016800029F4F0933402E09333023EC0D90113965B
:10169000FC93EE9312974D915D91A40FB51FEA173D
:1016A000FB0779F480819181840F951F0296D901FF
:1016B00011969C938E938281938113969C938E9323
:1016C0001297E0E0F0E08A819B81009719F0FE011B
:1016D000EC01F9CFCE01029628813981820F931F48
:1016E00020913102309132022817390769F430977E
:1016F00029F4109234021092330202C01382128233
:10170000D0933202C0933102DF91CF910895DC0172
:1017100001C06D9341505040E0F70895F894FFCF19
:10172000000035022000F841746D6567613235367E
:10173000302073746172742E00616C6976650000EC
:00000001FF
