S01A000041726475696E6F5F41746D656761323536302E73726563BD
S1130000C2C00000E0C00000DEC00000DCC0000090
S1130010DAC00000D8C00000D6C00000D4C0000080
S1130020D2C00000D0C00000CEC00000CCC0000090
S1130030CAC00000C8C00000C6C00000C4C00000A0
S1130040C2C00000C0C00000BEC00000BCC00000B0
S1130050BAC00000B8C00000B6C00000B4C00000C0
S1130060B2C00000B0C00000AEC00000ACC00000D0
S1130070AAC00000A8C00000A6C00000A4C00000E0
S1130080A2C00000A0C000009EC000009CC00000F0
S11300909AC0000098C0000096C0000092C60000FC
S11300A092C0000090C000008EC000008CC0000010
S11300B08AC0000088C0000086C0000084C0000020
S11300C082C0000080C000007EC000007CC0000030
S11300D07AC0000078C0000076C0000074C0000040
S11300E072C0000010077E077E077E077E077E072A
S11300F07E077E0710077E077E077E077E077E0742
S11301007E077E0712077E077E077E077E077E072F
S11301107E077E077E077E077E077E077E077E07B3
S11301207E077E0712077E077E077E077E077E070F
S11301307E077E077E077E077E077E077E077E0793
S11301407E077E0778077E077E077E077E077E0789
S11301507E077E0749077E077E077E077E077E07A8
S11301607E077E077E077E077E077E077E077E0763
S11301707E077E0739077E077E077E077E077E0798
S11301807E077E07610711241FBECFEFD1E2DEBFD9
S1130190CDBF00E00CBF12E0A0E0B2E0E0EFF7E179
S11301A000E00BBF02C007900D92AC31B107D9F744
S11301B022E0ACE1B2E001C01D92A133B207E1F745
S11301C003D00C94F60B1CCFCF93DF93CDB7DEB7DF
S11301D0A2970FB6F894DEBF0FBECDBF87E690E0BE
S11301E0ADD689E092E00E94810A8CD011D15DD411
S11301F0CE0141969FD08989823009F46FD48989D0
S1130200813081F48B899C8989838981DAD24AE09F
S113021057ED63E27CE3898135D38A838A81882F11
S113022090E0B4D280E090E0A0E2B1E48B839C83C0
S1130230AD83BE8320E030E04AE755E46B817C81E6
S11302408D819E810E94A109DC01CB018F83988757
S1130250A987BA8720E030E040E85FE36F817885C2
S113026089859A8520D788232CF481E090E09C87A7
S11302708B873DC020E03FEF4FE757E46F817885DF
S113028089859A850E949D09181644F520E030E07E
S113029040E251E46B817C818D819E810E94A109A1
S11302A0DC01CB01BC01CD016AD7DC01CB019C8709
S11302B08B870FC080E991E09E878D878D859E8511
S11302C00197F1F79E878D878B859C8501979C8785
S11302D08B878B859C85009769F78ACF6F8178859A
S11302E089859A854CD7DC01CB019C878B878B85CC
S11302F09C85988B8F878F8598890197F1F7988BC8
S11303008F8776CFCF93DF93CDB7DEB77AD24FEF17
S113031060E680E694D240E064E080E690D241E07A
S113032065E08BE28CD240E060EF8FE088D2DF9111
S1130330CF9108951F93CF93DF9300D01F92CDB731
S1130340DEB79C838B838B819C81FC011382128298
S11303508B819C81FC0110828B819C81FC01118228
S113036000008CE257D2882F90E081709927009783
S1130370C1F381E64FD2882F90E0880F991F880F30
S1130380991F880F991F182F82E644D2829586956B
S11303908770812B282F8B819C81FC01208385E62B
S11303A039D2282F2F708B819C81FC0121831A82E2
S11303B0198217C089818A592DD2882F90E09C0117
S11303C04B815C8189819A810196880F991F840FE2
S11303D0951FFC013183208389819A8101969A8338
S11303E089838B819C81FC018181282F30E0898164
S11303F09A8182179307F4F240E061E08CE21FD205
S11304000F900F900F900F90DF91CF911F9108954F
S1130410CF93DF93CDB7DEB767D474DF8AE290E081
S11304202AE230E0F90120812360FC01208387E087
S113043091E0FC01108288EB90E02CE0FC01208329
S113044081E091E02FEFFC01208382E091E022E043
S113045031E0F90120812265FC0120837894DF9149
S1130460CF910895CF93DF93CDB7DEB7AC970FB696
S1130470F894DEBF0FBECDBF82E091E022E031E010
S1130480F9012081277DFC01208380E090E0A0EA2F
S1130490B1E48B839C83AD83BE8320E030E04AE7E4
S11304A055E46B817C818D819E814BD7DC01CB012E
S11304B08F839887A987BA8720E030E040E85FE31C
S11304C06F81788589859A85EED588232CF481E01F
S11304D090E09C878B873BC020E03FEF4FE757E4D9
S11304E06F81788589859A8528D718163CF520E090
S11304F030E040E251E46B817C818D819E8121D783
S1130500DC01CB01BC01CD013AD6DC01CB019C87D7
S11305108B870FC080E991E09E878D878D859E85AE
S11305200197F1F79E878D878B859C8501979C8722
S11305308B878B859C85009769F713C06F817885BD
S113054089859A851CD6DC01CB019C878B878B859A
S11305509C85988B8F878F8598890197F1F7988B65
S11305608F8786E091E0FC018081882F90E0982FAE
S113057088279A83898382E091E022E031E0F901BF
S113058020812860FC01208380E090E0A0EAB1E4AF
S1130590898B9A8BAB8BBC8B20E030E04AE755E427
S11305A069897A898B899C89CCD6DC01CB018D8BB6
S11305B09E8BAF8BB88F20E030E040E85FE36D891D
S11305C07E898F89988D6FD588232CF481E090E003
S11305D09A8F898F3BC020E03FEF4FE757E46D8946
S11305E07E898F89988DA9D618163CF520E030E0D5
S11305F040E251E469897A898B899C89A2D6DC011D
S1130600CB01BC01CD01BBD5DC01CB019A8F898F15
S11306100FC080E991E09C8F8B8F8B8D9C8D01970F
S1130620F1F79C8F8B8F898D9A8D01979A8F898F83
S1130630898D9A8D009769F713C06D897E898F899A
S1130640988D9DD5DC01CB019A8F898F898D9A8DE8
S11306509E8F8D8F8D8D9E8D0197F1F79E8F8D8F3F
S113066086E091E0FC018081882F90E09927298120
S11306703A81822B932B9A83898382E091E022E052
S113068031E0F90120812F7BFC01208380E090E0A0
S1130690A0EAB0E48F8F98A3A9A3BAA320E030E026
S11306A04AE755E46F8D78A189A19AA14AD6DC0165
S11306B0CB018BA39CA3ADA3BEA320E030E040E814
S11306C05FE36BA17CA18DA19EA1EDD488232CF4C2
S11306D081E090E098A78FA33BC020E03FEF4FE775
S11306E057E46BA17CA18DA19EA127D618163CF5D9
S11306F020E030E040E251E46F8D78A189A19AA115
S113070020D6DC01CB01BC01CD0139D5DC01CB0104
S113071098A78FA30FC080E991E09AA789A789A51C
S11307209AA50197F1F79AA789A78FA198A5019790
S113073098A78FA38FA198A5009769F713C06BA101
S11307407CA18DA19EA11BD5DC01CB0198A78FA311
S11307508FA198A59CA78BA78BA59CA50197F1F7C2
S11307609CA78BA782E091E022E031E0F90120818F
S11307702066FC01208389819A81AC960FB6F89497
S1130780DEBF0FBECDBFDF91CF910895CF93DF932E
S113079000D000D0CDB7DEB78E838E81898380E50B
S11307A08A831B8289818C83CE01029663E0BED248
S11307B026960FB6F894DEBF0FBECDBFDF91CF9162
S11307C00895CF93DF931F92CDB7DEB789838981D4
S11307D0181654F482E091E022E031E0F90120811E
S11307E02260FC01208309C082E091E022E031E034
S11307F0F90120812D7FFC0120830F90DF91CF919F
S11308000895CF93DF93CDB7DEB7F9D130D0DF9120
S1130810CF910895CF93DF931F921F92CDB7DEB788
S11308208A8352D283E016D28A8114D229D2898350
S11308303BD289810F900F90DF91CF910895CF9390
S1130840DF9300D0CDB7DEB789836A834B833CD274
S113085085E000D28981FED18A81FCD18B81FAD1D5
S113086023D20F900F900F90DF91CF910895CF93E3
S1130870DF93CDB7DEB728D280ECECD115D2DF916F
S1130880CF910895CF93DF93CDB7DEB7A6970FB678
S1130890F894DEBF0FBECDBF8C8F4D8F5E8F6F8FF0
S11308A078A3E0DD99231CF49195819591099B83AC
S11308B08A831C821D821E821F828C8D992787FD4C
S11308C09095873F2FEF92074CF08C8D992787FDE9
S11308D090958A30910514F480E0DEC08C8D9927C0
S11308E087FD909599231CF491958195910924E6AF
S11308F030E0F901E81BF90B8091060290910702A0
S113090024E630E0B90180D5CB019C01E29FC0010F
S1130910E39F900DF29F900D1124AA2797FDA095B7
S1130920BA2FBC01CD0159D4DC01CB01888799874A
S1130930AA87BB878A819B81AA2797FDA095BA2F96
S1130940BC01CD014AD4DC01CB019C01AD01688519
S113095079858A859B8542D3DC01CB018C839D8379
S1130960AE83BF832CEA35EC47E257EB6C817D8183
S11309708E819F81E6D4DC01CB018C879D87AE8775
S1130980BF8780911C0290911D02A0911E02B0911C
S11309901F029C01AD016C817D818E819F811FD3DB
S11309A0DC01CB01888B998BAA8BBB8B2889398975
S11309B04A895B896D8D7E8D8F8D98A1C2D4DC01AF
S11309C0CB012AE037ED43EA5BEBBC01CD01B9D49E
S11309D0DC01CB018C8B9D8BAE8BBF8B80911C0279
S11309E090911D02A0911E02B0911F022C813D81A5
S11309F04E815F81BC01CD01F2D2DC01CB01809339
S1130A001C0290931D02A0931E02B0931F022C8916
S1130A103D894E895F896C857D858E859F85DFD272
S1130A20DC01CB01888F998FAA8FBB8F888D998D1C
S1130A30AA8DBB8DBC01CD0114D5FC0180910602A9
S1130A40909107022FEF30E0B901DED4CB019C0175
S1130A50CF01B901D9D4CB01898389818536D8F0F6
S1130A608981882F90E0AA2797FDA095BA2FBC0111
S1130A70CD01B3D3DC01CB012AE939E949E95FE3CC
S1130A80BC01CD0114D3DC01CB01BC01CD0177D372
S1130A90DC01CB0189838981A6960FB6F894DEBF69
S1130AA00FBECDBFDF91CF910895CF93DF93CDB724
S1130AB0DEB78AE091E02AE031E0F9012081206884
S1130AC0FC0120838BE091E02BE031E0F9012081EF
S1130AD02068FC012083DF91CF910895CF93DF93A9
S1130AE0CDB7DEB72E970FB6F894DEBF0FBECDBFDD
S1130AF08BE091E02BE031E0F90120812F77FC01BC
S1130B00208380E090E0AFE2B4E489839A83AB83EE
S1130B10BC8320E030E04AE753E469817A818B8129
S1130B209C810FD4DC01CB018D839E83AF83B88776
S1130B3020E030E040E85FE36D817E818F8198851D
S1130B40B2D288232CF481E090E09A8789873BC055
S1130B5020E03FEF4FE757E46D817E818F819885D8
S1130B60ECD318163CF520E030E040E251E4698112
S1130B707A818B819C81E5D3DC01CB01BC01CD0161
S1130B80FED2DC01CB019A8789870FC089E190E00E
S1130B909C878B878B859C850197F1F79C878B8736
S1130BA089859A8501979A87898789859A85009787
S1130BB069F713C06D817E818F819885E0D2DC0155
S1130BC0CB019A87898789859A859E878D878D85AC
S1130BD09E850197F1F79E878D878BE091E02BE04E
S1130BE031E0F90120812068FC0120832E960FB6A4
S1130BF0F894DEBF0FBECDBFDF91CF910895CF93A0
S1130C00DF93CDB7DEB784E290E024E230E0F9016F
S1130C1020812768FC01208384E290E024E230E014
S1130C20F9012081277FFC01208385E290E025E201
S1130C3030E0F90120812860FC0120838CE490E0FD
S1130C402CE430E0F90120812265FC012083DF914E
S1130C50CF910895CF93DF931F92CDB7DEB78983E9
S1130C608EE490E02981FC01208300008DE490E073
S1130C70FC0180818823D4F70F90DF91CF910895F0
S1130C80CF93DF93CDB7DEB78FEFE4DF00008DE4C1
S1130C9090E0FC0180818823D4F78EE490E0FC018D
S1130CA08081DF91CF910895CF93DF93CDB7DEB7E5
S1130CB085E290E025E230E0F90120812068FC0122
S1130CC02083DF91CF910895CF93DF93CDB7DEB723
S1130CD085E290E025E230E0F90120812F77FC01E4
S1130CE02083DF91CF910895CF93DF93CDB7DEB703
S1130CF088EB90E02CE0FC0120838BEB90E02FEF5D
S1130D00FC0120838CEB90E024E0FC012083DF9144
S1130D10CF910895CF93DF93CDB7DEB78CEB90E0FE
S1130D20FC0180818170DF91CF910895CF93DF938F
S1130D3000D01F92CDB7DEB79B838A836C830000FB
S1130D40E9DF8823E9F78C81809324028A819B81DF
S1130D50FC018081809320028A819B81FC01808137
S1130D60882F90E0817099270097D1F481E08983DE
S1130D7013C08981882F90E02981222F30E04A8195
S1130D805B81240F351FF9012081805E9D4FFC019A
S1130D90208389818F5F898399818C81981748F397
S1130DA01092250288EF809308028CEB90E025EAEC
S1130DB0FC0120830F900F900F900F90DF91CF9143
S1130DC008951F920F9200905F000F9211240090DB
S1130DD05B000F922F933F934F935F938F939F9357
S1130DE0AF93BF93EF93FF93CF93DF93CDB7DEB76A
S1130DF089EB90E0FC018081882F90E0AA2797FD81
S1130E00A095BA2F48E050E020E530E0841B950B14
S1130E102817390708F472C08E589F4FFC0107C386
S1130E201092260290912602809124029817B0F421
S1130E308BEB90E02091260231E0320F30932602B2
S1130E40222F30E0205E3D4FF9012081FC012083F8
S1130E508CEB90E025E8FC0120835BC080912502A7
S1130E608160809325028CEB90E024E9FC012083CF
S1130E7050C08091260291E0980F90932602882F0B
S1130E8090E02BEB30E0F9012081805E9D4FFC0166
S1130E90208380912602282F30E080912402882F1D
S1130EA090E001972817390734F48CEB90E025EC97
S1130EB0FC0120832EC08CEB90E025E8FC0120830C
S1130EC028C080912602882F90E02BEB30E0F901B6
S1130ED02081805E9D4FFC012083809125028160EA
S1130EE0809325028CEB90E024E9FC01208311C05F
S1130EF08CEB90E025EAFC0120830BC089EB90E0A9
S1130F00FC018081809308028CEB90E024E0FC01DA
S1130F102083DF91CF91FF91EF91BF91AF919F918A
S1130F208F915F914F913F912F910F9000925B00B1
S1130F300F9000925F000F901F901895CF93DF934E
S1130F401F921F92CDB7DEB79A83898385EC90E018
S1130F5029813A81232F3327FC01208384EC90E0FC
S1130F602981FC01208381EC90E028E1FC012083AD
S1130F706CED77E082EC97E07AD20F900F90DF91DE
S1130F80CF910895CF93DF931F92CDB7DEB78983B6
S1130F90000080EC90E0FC018081882F90E080725A
S1130FA099270097B1F386EC90E02981FC01208316
S1130FB00F90DF91CF910895CF93DF93CDB7DEB734
S1130FC0000080EC90E0FC0180818823D4F786EC5B
S1130FD090E0FC018081DF91CF9108955058BB27A8
S1130FE0AA270ED070C161D130F066D120F031F45F
S1130FF09F3F11F41EF456C10EF4E095E7FB4CC17B
S1131000E92F72D180F3BA17620773078407950733
S113101018F071F49EF58AC10EF4E0950B2EBA2FE8
S1131020A02D0B01B90190010C01CA01A0011124EA
S1131030FF27591B99F0593F50F4503E68F11A1696
S1131040F040A22F232F342F4427585FF3CF469527
S113105037952795A795F0405395C9F77EF41F1649
S1131060BA0B620B730B840BBAF09150A1F0FF0F13
S1131070BB1F661F771F881FC2F70EC0BA0F621FFF
S1131080731F841F48F4879577956795B795F795EF
S11310909E3F08F0B3CF9395880F08F09927EE0F81
S11310A0979587950895D4D008F481E008950CD0DD
S11310B00AC102D140F0F9D030F021F45F3F19F0B9
S11310C0EBC0511134C1EEC00FD198F39923C9F389
S11310D05523B1F3951B550BBB27AA27621773073A
S11310E0840738F09F5F5F4F220F331F441FAA1FEE
S11310F0A9F333D00E2E3AF0E0E830D091505040AE
S1131100E695001CCAF729D0FE2F27D0660F771F5B
S1131110881FBB1F261737074807AB07B0E809F03D
S1131120BB0B802DBF01FF2793585F4F2AF09E3FD2
S1131130510568F0B1C0FBC05F3FECF3983EDCF3AF
S1131140869577956795B795F7959F5FC9F7880F4B
S1131150911D9695879597F90895E1E0660F771F9D
S1131160881FBB1F621773078407BA0720F0621B2E
S1131170730B840BBA0BEE1F88F7E0950895BCD06F
S113118088F09F5790F0B92F9927B751A0F0D1F06C
S1131190660F771F881F991F1AF0BA95C9F712C0F6
S11311A0B13081F0C3D0B1E00895C0C0672F782F6B
S11311B08827B85F39F0B93FCCF386957795679562
S11311C0B395D9F73EF490958095709561957F4FCE
S11311D08F4F9F4F0895E89409C097FB3EF4909574
S11311E08095709561957F4F8F4F9F4F9923A9F0FC
S11311F0F92F96E9BB279395F6958795779567958B
S1131200B795F111F8CFFAF4BB0F11F460FF1BC0CE
S11312106F5F7F4F8F4F9F4F16C0882311F096E961
S113122011C0772321F09EE8872F762F05C066230F
S113123071F096E8862F70E060E02AF09A95660FC8
S1131240771F881FDAF7880F9695879597F9089581
S1131250990F0008550FAA0BE0E8FEEF16161706C3
S1131260E807F907C0F012161306E407F50798F02B
S1131270621B730B840B950B39F40A2661F0232B44
S1131280242B252B21F408950A2609F4A140A695C0
S11312908FEF811D811D089597F99F6780E870E0A5
S11312A060E008959FEF80EC089500240A941616D8
S11312B0170618060906089500240A941216130640
S11312C0140605060895092E0394000C11F48823CE
S11312D052F0BB0F40F4BF2B11F460FF04C06F5FEA
S11312E07F4F8F4F9F4F089557FD9058440F551FC0
S11312F059F05F3F71F04795880F97FB991F61F094
S11313009F3F79F087950895121613061406551F0A
S1131310F2CF4695F1DF08C0161617061806991F76
S1131320F1CF86957105610508940895E894BB276B
S113133066277727CB0197F908958ADF08F48FEFA2
S113134008950BD0C0CFB1DF28F0B6DF18F0952395
S113135009F0A2CFA7CF1124EACFC6DFA0F3959F4F
S1131360D1F3950F50E0551F629FF001729FBB2788
S1131370F00DB11D639FAA27F00DB11DAA1F649F34
S11313806627B00DA11D661F829F2227B00DA11DE7
S1131390621F739FB00DA11D621F839FA00D611D6D
S11313A0221F749F3327A00D611D231F849F600D8E
S11313B0211D822F762F6A2F11249F5750408AF0C7
S11313C0E1F088234AF0EE0FFF1FBB1F661F771F53
S11313D0881F91505040A9F79E3F510570F05CCF93
S11313E0A6CF5F3FECF3983EDCF38695779567953F
S11313F0B795F795E7959F5FC1F7FE2B880F911D71
S11314009695879597F9089597FB072E16F40094FF
S113141006D077FD08D011D007FC05D03EF4909596
S113142081959F4F0895709561957F4F0895EE0FB4
S1131430FF1F0590F491E02D1994AA1BBB1B51E1E9
S113144007C0AA1FBB1FA617B70710F0A61BB70B30
S1131450881F991F5A95A9F780959095BC01CD01D5
S1131460089597FF03C091958195910908950F936D
S11314701F93CF93DF93EC018B01009731F4611537
S1131480710519F480E090E037C06EE070E081E00F
S113149090E064D0FC010097A9F380E883830115F0
S11314A0110571F01387028781E8838380912702F5
S11314B090912802892B21F4F0932802E0932702CB
S11314C02097C9F0D187C08783818260838380910C
S11314D0290290912A02892B71F4F0932A02E09355
S11314E0290280912B0290912C02892B21F4F093F4
S11314F02C02E0932B02CF01DF91CF911F910F912A
S113150008950F931F93CF93DF93E0912902F091F5
S11315102A02238121FF1BC0EC0100E010E0899125
S11315206091290270912A02DB011896ED91FC91D9
S11315301997882331F01995892B89F30FEF1FEF41
S1131540EECF8AE01995892B11F4C80102C08FEF00
S11315509FEFDF91CF911F910F9108950F931F93E8
S1131560CF93DF93869F8001879F100D969F100D68
S11315701124C8010DD0EC01009721F0A80160E00E
S113158070E02DD1CE01DF91CF911F910F9108957D
S1131590CF93DF938230910510F482E090E0E091E4
S11315A02F02F091300220E030E0A0E0B0E030976C
S11315B039F14081518148175907B8F04817590744
S11315C071F482819381109729F013969C938E93E2
S11315D012972CC09093300280932F0227C02115BC
S11315E0310531F04217530718F0A901DB0101C09E
S11315F0EF019A01BD01DF010280F381E02DD7CF15
S113160021153105F9F0281B390B2430310580F4FC
S11316108A819B816115710521F0FB01938382838B
S113162004C09093300280932F02FE01329644C08E
S1131630FE01E20FF31F8193919322503109398304
S113164028833AC020912D0230912E02232B41F49D
S1131650209102023091030230932E0220932D0236
S113166020910002309101022115310541F42DB77A
S11316703EB74091040250910502241B350BE091C2
S11316802D02F0912E02E217F307A0F42E1B3F0B5C
S11316902817390778F0AC014E5F5F4F24173507E0
S11316A048F04E0F5F1F50932E0240932D028193FA
S11316B0919302C0E0E0F0E0CF01DF91CF91089573
S11316C0CF93DF93009709F487C0FC01329713820C
S11316D01282C0912F02D0913002209781F4208190
S11316E03181280F391F80912D0290912E0282178B
S11316F0930779F5F0932E02E0932D026DC0DE017D
S113170020E030E0AE17BF0750F412964D915C9183
S113171013979D014115510509F1DA01F3CFB38304
S1131720A28340815181840F951F8A179B0771F40E
S11317308D919C911197840F951F029691838083BC
S113174012968D919C911397938382832115310571
S113175029F4F0933002E0932F023EC0D90113968E
S1131760FC93EE9312974D915D91A40FB51FEA1768
S1131770FB0779F480819181840F951F0296D9012A
S113178011969C938E938281938113969C938E934E
S11317901297E0E0F0E08A819B81009719F0FE0146
S11317A0EC01F9CFCE01029628813981820F931F73
S11317B020912D0230912E022817390769F43097B1
S11317C029F41092300210922F0202C01382128266
S11317D0D0932E02C0932D02DF91CF910895DC01A6
S11317E001C06D9341505040E0F70895F894FFCF45
S11317F0000031022000B80BF841746D6567613256
S10F18003536302073746172742E0000C1
S9030000FC
