S01A000041726475696E6F5F41746D656761323536302E73726563BD
S1130000C2C00000DFC00000DDC00000DBC0000093
S1130010D9C00000D7C00000D5C00000D3C0000084
S1130020D1C00000CFC00000CDC00000CBC0000094
S1130030C9C00000C7C00000C5C00000C3C00000A4
S1130040C1C00000BFC00000BDC00000BBC00000B4
S1130050B9C00000B7C00000B5C00000B3C00000C4
S1130060B1C00000AFC00000ADC00000ABC00000D4
S1130070A9C00000A7C00000A5C00000A3C00000E4
S1130080A1C000009FC000009DC000009BC00000F4
S113009099C0000097C0000095C00000F9C100009D
S11300A091C000008FC000008DC000008BC0000014
S11300B089C0000087C0000085C0000083C0000024
S11300C081C000007FC000007DC000007BC0000034
S11300D079C0000077C0000075C0000073C0000044
S11300E071C000006302B502B502B502B502B502E3
S11300F0B502B5026302B502B502B502B502B50296
S1130100B502B5026502B502B502B502B502B50283
S1130110B502B502B502B502B502B502B502B50223
S1130120B502B5026502B502B502B502B502B50263
S1130130B502B502B502B502B502B502B502B50203
S1130140B502B502B102B502B502B502B502B502F7
S1130150B502B5028E02B502B502B502B502B5020A
S1130160B502B502B502B502B502B502B502B502D3
S1130170B502B5028202B502B502B502B502B502F6
S1130180B502B502A00211241FBECFEFD1E2DEBF3B
S1130190CDBF00E00CBF12E0A0E0B2E0E8EAFEE070
S11301A000E00BBF02C007900D92AA34B107D9F743
S11301B022E0AAE4B2E001C01D92AB35B207E1F738
S11301C022D070C61DCFECE7F0E080818068808388
S11301D080818F7B808380818F7D80838098ABE753
S11301E0B0E08C91877F8C938081807E8083EAE766
S11301F0F0E08081876080838C91887F8C938081FC
S113020080688083089587E690E0D5D187E092E006
S113021040D281D082D02FEF85EA9EE021508040E9
S11302209040E1F700C000008AD0F5CFE9D04FEF4D
S113023060E680E6CCD040E064E080E6C8D041E0EF
S113024065E08BE2C4D040E060EF8FE0C0C0089569
S11302509F92AF92BF92CF92DF92EF92FF920F9351
S11302601F93CF93DF93CDB7DEB762970FB6F894A1
S1130270DEBF0FBECDBF6C018CE29CD080FFFCCFF3
S113028081E698D0982E82E695D0990C990C990C19
S1130290829586958770982A85E68CD08F70A82ED3
S11302A0C9F08E010D5F1F4FE82EF12CEE0CFF1CE0
S11302B0E00EF11E0F2EF6E6BF2EF02D8B2D7AD018
S11302C0282F30E0F801219331938F01B394EE1578
S11302D0FF05A1F740E061E08CE279D09982AA821F
S11302E082E1FE013196D60101900D928A95E1F7E3
S11302F0C60162960FB6F894DEBF0FBECDBFDF9184
S1130300CF911F910F91FF90EF90DF90CF90BF900E
S1130310AF909F90089557CF08958ED087DF8AB10C
S113032083608AB98CE08093B8008FEF80930101D9
S1130330E0E0F1E080818F79808378940895FF92E2
S11303400F931F93CF93DF93CDB7DEB766970FB6A6
S1130350F894DEBF0FBECDBF00E011E0F80180814C
S113036080618083CE01019673DFFB808C818F9343
S1130370FF928CE392E09F938F937AD180E58B8BED
S11303801C8AF80180818D7F8083FD8A63E0CE0121
S113039043965CD00F900F900F900F9066960FB617
S11303A0F894DEBF0FBECDBFDF91CF911F910F91A7
S11303B0FF900895CF93C82F3DD083E02DD08C2F8C
S11303C02BD02FD0C82F34D08C2FCF9108951F93CA
S11303D0CF93DF93182FD62FC42F2CD085E01CD0B9
S11303E0812F1AD08D2F18D08C2F16D021D0DF91C9
S11303F0CF911F9108951ED080EC0ED019C008959E
S113040002D0F9CF089584B1876884B923982B9AD0
S11304108CB582658CBD08958EBD0DB407FEFDCFED
S113042008958FEFF9DF0DB407FEFDCF8EB5089563
S11304302F9A08952F9808958CE08093B8008FEF39
S11304408093BB0084E08093BC000895ECEBF0E063
S1130450208120FDFDCF60934C02FC01208120937C
S11304604D0220FD0CC0623050F0DC011196EEE428
S1130470F2E081E09D9191938F5F8613FBCF109200
S11304804B0288EF8093060285EA8093BC000895AE
S11304901F920F920FB60F9211240BB60F922F9347
S11304A03F938F939F93AF93BF93EF93FF93809169
S11304B0B90090E0FC013897E135F10508F055C02A
S11304C0EE58FF4F85C010924A02E0914A02809193
S11304D04C02E81770F481E08E0F80934A02F0E03A
S11304E0E35BFD4F80818093BB0085E88093BC0073
S11304F043C080914B02816080934B0284E98093D6
S1130500BC003AC0E0914A0281E08E0F80934A0217
S11305108091BB00F0E0E35BFD4F808320914A02B1
S113052030E080914C0290E001972817390724F4B9
S113053085EC8093BC0020C085E88093BC001CC07F
S11305408091BB00E0914A02F0E0E35BFD4F8083C1
S113055080914B02816080934B0284E98093BC00BC
S11305600BC085EA8093BC0007C08091B9008093DA
S1130570060284E08093BC00FF91EF91BF91AF919C
S11305809F918F913F912F910F900BBE0F900FBEB3
S11305900F901F901895E0ECF0E0908195FFFDCF4F
S11305A08093C6000895E0ECF0E080818823ECF7A6
S11305B08091C60008959093C5008093C40088E19B
S11305C08093C10063ED72E08BEC92E007C0089564
S11305D0EE0FFF1F0590F491E02D19940F931F93D4
S11305E0CF93DF93EC018B01009731F46115710512
S11305F019F480E090E037C06EE070E081E090E0B4
S113060063D2FC010097A9F380E8838301151105E7
S113061071F01387028781E883838091510290915E
S11306205202892B21F4F0935202E0935102209755
S1130630C9F0D187C087838182608383809153020C
S113064090915402892B71F4F0935402E093530275
S11306508091550290915602892B21F4F093560211
S1130660E0935502CF01DF91CF911F910F9108952F
S1130670CF93DF93CDB7DEB7FE01369661917191CA
S1130680AF01809153029091540230D0DF91CF9109
S113069008950F931F93CF93DF93E0915302F0914A
S11306A05402238121FF1BC0EC0100E010E089917A
S11306B06091530270915402DB011896ED91FC9104
S11306C01997882331F01995892B89F30FEF1FEFC0
S11306D0EECF8AE01995892B11F4C80102C08FEF7F
S11306E09FEFDF91CF911F910F9108952F923F9229
S11306F04F925F926F927F928F929F92AF92BF922E
S1130700CF92DF92EF92FF920F931F93CF93DF93D9
S1130710CDB7DEB72C970FB6F894DEBF0FBECDBFB2
S11307207C016B018A01FC0117821682838181FF9F
S1130730B0C1CE0101964C01F7019381F60193FDFE
S1130740859193FF81916F01882309F49EC18532BD
S113075039F493FD859193FF81916F01853221F4E2
S1130760B70190E00FD3E8CF512C312C20E0203298
S1130770A0F48B3269F030F4803259F0833269F49A
S113078020612CC08D3239F0803339F4216026C0C9
S11307902260246023C0286021C027FD27C030EDDB
S11307A0380F3A3078F426FF06C0FAE05F9E300D29
S11307B01124532E13C08AE0389E300D1124332E99
S11307C020620CC08E3221F426FD5FC1206406C075
S11307D08C3611F4206802C0883641F4F60193FD8A
S11307E0859193FF81916F018111C1CF982F9F7DD6
S11307F09554933028F40C5F1F4FFFE3F9830DC029
S1130800833631F0833771F0833509F057C021C046
S1130810F801808189830E5F1F4F44244394512C37
S1130820540114C03801F2E06F0E711CF801A0806D
S1130830B18026FF03C0652D70E002C06FEF7FEF2B
S1130840C5012C8794D22C0183012C852F77222E6D
S113085016C03801F2E06F0E711CF801A080B1805F
S113086026FF03C0652D70E002C06FEF7FEFC50166
S11308702C876BD22C012C852068222E830123FC2B
S113088019C0832D90E048165906A0F4B70180E200
S113089090E078D23A94F5CFF50127FC859127FEB4
S11308A081915F01B70190E06DD231103A94F1E08B
S11308B04F1A51084114510479F7DEC0843611F0FF
S11308C0893631F5F80127FF07C060817181828183
S11308D093810C5F1F4F08C060817181882777FD69
S11308E08095982F0E5F1F4F2F76B22E97FF09C069
S11308F090958095709561957F4F8F4F9F4F20689D
S1130900B22E2AE030E0A4016FD2A82EA81843C06A
S1130910853729F42F7EB22E2AE030E025C0F22F4D
S1130920F97FBF2E8F36C1F018F4883579F0ADC049
S1130930803719F0883721F0A8C02F2F2061B22EFC
S1130940B4FE0DC08B2D8460B82E09C024FF0AC0EC
S11309509F2F9660B92E06C028E030E005C020E144
S113096030E002C020E132E0F801B7FE07C0608148
S11309707181828193810C5F1F4F06C060817181F8
S113098080E090E00E5F1F4FA4012ED2A82EA8187D
S1130990FB2DFF77BF2EB6FE0BC02B2D2E7FA5148B
S11309A050F4B4FE0AC0B2FC08C02B2D2E7E05C044
S11309B07A2C2B2D03C07A2C01C0752C24FF0DC07A
S11309C0FE01EA0DF11D8081803311F4297E09C0F6
S11309D022FF06C07394739404C0822F867809F0B2
S11309E0739423FD12C020FF06C05A2C731418F40C
S11309F0530C5718732C731460F4B70180E290E021
S1130A002C87C0D173942C85F6CF731410F4371847
S1130A1001C0312C24FF11C0B70180E390E02C8782
S1130A20B1D12C8522FF16C021FF03C088E590E0D8
S1130A3002C088E790E0B7010CC0822F867851F09D
S1130A4021FD02C080E201C08BE227FD8DE2B701E7
S1130A5090E098D1A51430F4B70180E390E092D1EE
S1130A605A94F8CFAA94F401EA0DF11D8081B701DC
S1130A7090E088D1A110F6CF332009F45DCEB70100
S1130A8080E290E07FD13A94F7CFF7018681978195
S1130A9002C08FEF9FEF2C960FB6F894DEBF0FBE07
S1130AA0CDBFDF91CF911F910F91FF90EF90DF9019
S1130AB0CF90BF90AF909F908F907F906F905F90FA
S1130AC04F903F902F9008950F931F93CF93DF93F0
S1130AD0869F8001879F100D969F100D1124C801D9
S1130AE00DD0EC01009721F0A80160E070E038D14E
S1130AF0CE01DF91CF911F910F910895CF93DF9392
S1130B008230910510F482E090E0E0915902F09176
S1130B105A0220E030E0A0E0B0E0309739F14081A3
S1130B20518148175907B8F04817590771F4828161
S1130B309381109729F013969C938E9312972CC04F
S1130B4090935A028093590227C02115310531F040
S1130B504217530718F0A901DB0101C0EF019A0104
S1130B60BD01DF010280F381E02DD7CF21153105CE
S1130B70F9F0281B390B2430310580F48A819B81DC
S1130B806115710521F0FB019383828304C0909366
S1130B905A0280935902FE01329644C0FE01E20FCC
S1130BA0F31F8193919322503109398328833AC0EA
S1130BB02091570230915802232B41F420910202D4
S1130BC0309103023093580220935702209100027F
S1130BD0309101022115310541F42DB73EB7409102
S1130BE0040250910502241B350BE0915702F09149
S1130BF05802E217F307A0F42E1B3F0B28173907FE
S1130C0078F0AC014E5F5F4F2417350748F04E0F64
S1130C105F1F50935802409357028193919302C0EF
S1130C20E0E0F0E0CF01DF91CF910895CF93DF931F
S1130C30009709F487C0FC01329713821282C09195
S1130C405902D0915A02209781F420813181280FD2
S1130C50391F80915702909158028217930779F5B2
S1130C60F0935802E09357026DC0DE0120E030E0BB
S1130C70AE17BF0750F412964D915C9113979D01E6
S1130C804115510509F1DA01F3CFB383A283408101
S1130C905181840F951F8A179B0771F48D919C9144
S1130CA01197840F951F02969183808312968D91DC
S1130CB09C911397938382832115310529F4F09332
S1130CC05A02E09359023EC0D9011396FC93EE9365
S1130CD012974D915D91A40FB51FEA17FB0779F4A4
S1130CE080819181840F951F0296D90111969C935E
S1130CF08E938281938113969C938E931297E0E056
S1130D00F0E08A819B81009719F0FE01EC01F9CF94
S1130D10CE01029628813981820F931F20915702B8
S1130D20309158022817390769F4309729F4109242
S1130D305A021092590202C013821282D0935802AE
S1130D40C0935702DF91CF910895FC010590615043
S1130D5070400110D8F7809590958E0F9F1F0895CD
S1130D60DC0101C06D9341505040E0F70895FC014F
S1130D706150704001900110D8F7809590958E0FC6
S1130D809F1F08950F931F93CF93DF93182F092F5D
S1130D90EB018B8181FD03C08FEF9FEF20C082FFA9
S1130DA010C04E815F812C813D81421753077CF432
S1130DB0E881F9819F012F5F3F4F39832883108396
S1130DC006C0E885F985812F1995892B29F72E818D
S1130DD03F812F5F3F4F3F832E83812F902FDF91E1
S1130DE0CF911F910F910895FA01AA27283051F14C
S1130DF0203181F1E8946F936E7F6E5F7F4F8F4F48
S1130E009F4FAF4FB1E03ED0B4E03CD0670F781FA6
S1130E10891F9A1FA11D680F791F8A1F911DA11D8B
S1130E206A0F711D811D911DA11D20D009F46894C4
S1130E303F912AE0269F11243019305D3193DEF66C
S1130E40CF010895462F4770405D4193B3E00FD022
S1130E50C9F7F6CF462F4F70405D4A3318F0495D0D
S1130E6031FD4052419302D0A9F7EACFB4E0A695F0
S1130E709795879577956795BA95C9F70097610512
S1130E80710508959B01AC010A2E06945795479568
S1130E9037952795BA95C9F7620F731F841F951F5D
S10B0EA0A01D0895F894FFCF92
S1130EA800005B022000F841746D656761323536D5
S1130EB8302073746172742E006A6F7966756C6C75
S1130EC82E646174615B305D3A2025780A0070777E
S1130ED86D20647574793A2025690A00506F736926
S10D0EE874696F6E202578200A005B
S9030000FC
