S01A000041726475696E6F5F41746D656761323536302E73726563BD
S113000071C000008EC000008CC000008AC00000D7
S113001088C0000086C0000084C0000082C00000C8
S113002080C000007EC000007CC000007AC00000D8
S113003078C0000076C0000074C0000072C00000E8
S113004070C000006EC000006CC000006AC00000F8
S113005068C0000066C0000064C0000062C0000008
S113006060C000005EC000005CC000005AC0000018
S113007058C0000056C0000054C0000052C0000028
S113008050C000004EC000004CC000004AC0000038
S113009048C0000046C0000044C0000042C0000048
S11300A040C000003EC000003CC000003AC0000058
S11300B038C0000036C0000034C0000032C0000068
S11300C030C000002EC000002CC000002AC0000078
S11300D028C0000026C0000024C0000022C0000088
S11300E020C0000011241FBECFEFD1E2DEBFCDBF80
S11300F000E00CBF12E0A0E0B2E0EEE3F7E000E0C5
S11301000BBF02C007900D92AA30B107D9F722E0C5
S1130110AAE0B2E001C01D92A431B207E1F702D017
S11301200CC36ECF85E090E034D186E092E090D1AC
S113013084D080E090E0089500D140E060EE8FE04C
S1130140E3D04FEF60E680E6DFD040E064E080E695
S1130150DBD04FEF61E08BE2D7C008958F929F927E
S1130160AF92BF92CF92DF92EF92FF920F931F93C1
S1130170CF93DF93CDB7DEB762970FB6F894DEBFA7
S11301800FBECDBF89829A82AB82BC82CD82DE82D1
S1130190EF82F88609871A872B873C874D875E870D
S11301A06F87788B898B9A8B44E063E080E3ACD0D3
S11301B069816295660F607E82E38DD06981669560
S11301C06695669581E387D06A8185E384D0BE0114
S11301D06D5F7F4F86E37FD08A818823A9F07E01FB
S11301E083E0E80EF11C00E010E0F7016081F2E02A
S11301F0EF0EF11C86E3800F6ED00F5F1F4F8A81D4
S113020090E0081719078CF381E074D080E356D08E
S11302108370E1F762960FB6F894DEBF0FBECDBFD0
S1130220DF91CF911F910F91FF90EF90DF90CF90CE
S1130230BF90AF909F908F900895CF93DF93CDB7E9
S1130240DEB762970FB6F894DEBF0FBECDBF74DF82
S113025083E0898388E08A838BE490E09C838B83AA
S113026081E490E09E838D8322E530E038872F83FC
S11302702CE430E03A87298723E530E03C872B875C
S113028024E530E03E872D87988B8F8784E490E0C7
S11302909A8B898B89809A80AB80BC80CD80DE80EC
S11302A0EF80F88409851A852B853C854D855E850C
S11302B06F85788989899A8951DFECCFCF93C82FCC
S11302C056D083E046D08C2F44D048D0C82F4DD090
S11302D08C2FCF910895CF93DF93D82FC62F47D07B
S11302E082E037D08D2F35D08C2F33D03ED0DF91A4
S11302F0CF910895CF93C82F3AD08C2F8770805810
S113030028D033D0CF9108951F93CF93DF93182F24
S1130310D62FC42F2CD085E01CD0812F1AD08D2F3E
S113032018D08C2F16D021D0DF91CF911F91089532
S11303301ED080EC0ED019C00895FADF01C00895D4
S113034084B1876084B923982B9A8CB581658CBD60
S113035008958EBD0DB407FEFDCF08958FEFF9DF2C
S11303600DB407FEFDCF8EB50895289A08952898F8
S11303700895E0ECF0E0908195FFFDCF8093C600F6
S11303800895E0ECF0E080818823ECF78091C600CA
S113039008959093C5008093C400E4E0F1E0808167
S11303A08460808380EC8093C20088E18093C100E4
S11303B061EC71E089EB91E001C008950F931F9304
S11303C0CF93DF93EC018B01009731F46115710534
S11303D019F480E090E037C06EE070E081E090E0D6
S11303E064D0FC010097A9F380E88383011511050B
S11303F071F01387028781E8838380910A029091C8
S11304000B02892B21F4F0930B02E0930A0220974C
S1130410C9F0D187C08783818260838380910C0275
S113042090910D02892B71F4F0930D02E0930C026C
S113043080910E0290910F02892B21F4F0930F0208
S1130440E0930E02CF01DF91CF911F910F91089598
S11304500F931F93CF93DF93E0910C02F0910D0261
S1130460238121FF1BC0EC0100E010E08991609121
S11304700C0270910D02DB011896ED91FC91199715
S1130480882331F01995892B89F30FEF1FEFEECFF5
S11304908AE01995892B11F4C80102C08FEF9FEFF0
S11304A0DF91CF911F910F9108950F931F93CF93D5
S11304B0DF93869F8001879F100D969F100D112456
S11304C0C8010DD0EC01009721F0A80160E070E0B4
S11304D02DD1CE01DF91CF911F910F910895CF932C
S11304E0DF938230910510F482E090E0E0911202F3
S11304F0F091130220E030E0A0E0B0E0309739F151
S11305004081518148175907B8F04817590771F4C9
S113051082819381109729F013969C938E9312975E
S11305202CC0909313028093120227C02115310529
S113053031F04217530718F0A901DB0101C0EF01A4
S11305409A01BD01DF010280F381E02DD7CF21158F
S11305503105F9F0281B390B2430310580F48A81E8
S11305609B816115710521F0FB019383828304C093
S11305709093130280931202FE01329644C0FE014E
S1130580E20FF31F81939193225031093983288319
S11305903AC02091100230911102232B41F4209192
S11305A00202309103023093110220931002209131
S11305B00002309101022115310541F42DB73EB7F7
S11305C04091040250910502241B350BE091100266
S11305D0F0911102E217F307A0F42E1B3F0B28172A
S11305E0390778F0AC014E5F5F4F2417350748F0A8
S11305F04E0F5F1F50931102409310028193919309
S113060002C0E0E0F0E0CF01DF91CF910895CF93F5
S1130610DF93009709F487C0FC013297138212829A
S1130620C0911202D0911302209781F4208131816C
S1130630280F391F8091100290911102821793079D
S113064079F5F0931102E09310026DC0DE0120E011
S113065030E0AE17BF0750F412964D915C9113979A
S11306609D014115510509F1DA01F3CFB383A2834A
S113067040815181840F951F8A179B0771F48D91D6
S11306809C911197840F951F0296918380831296F3
S11306908D919C911397938382832115310529F4BD
S11306A0F0931302E09312023EC0D9011396FC9317
S11306B0EE9312974D915D91A40FB51FEA17FB07B6
S11306C079F480819181840F951F0296D901119646
S11306D09C938E938281938113969C938E9312970D
S11306E0E0E0F0E08A819B81009719F0FE01EC01C3
S11306F0F9CFCE01029628813981820F931F209170
S11307001002309111022817390769F4309729F43F
S1130710109213021092120202C013821282D0931A
S11307201102C0931002DF91CF910895DC0101C042
S11107306D9341505040E0F70895F894FFCFC8
S10D073E0000140220006865690041
S9030000FC
