:100000000C94F6000C9417040C9468040C941301DF
:100010000C9413010C9413010C9413010C94130110
:100020000C9413010C9413010C9413010C94130100
:100030000C9413010C9413010C9413010C941301F0
:100040000C9413010C9413010C9413010C941301E0
:100050000C9413010C9413010C9413010C941301D0
:100060000C9413010C9413010C9413010C941301C0
:1000700000000000005C00000C000C007C287C28C4
:1000800058DC68002410480028542840000C000068
:10009000007884008478000054385400107C1000EC
:1000A00080400000101010000040000060100C00A4
:1000B00038543800487C40004864580044542C00B0
:1000C0001C107C005C5424003854240064140C0080
:1000D00068542C0048543800004800008048000054
:1000E0001028440028282800442810000454080040
:1000F00038445C00781478007C5428003844280088
:100100007C4438007C5444007C140400384474005F
:100110007C107C00447C440020403C007C106C003F
:100120007C4040007C187C0078103C00384438004B
:100130007C1408003844B8007C146800485424003B
:10014000047C04007C407C003C603C007C307C00F3
:100150006C106C000C700C0064544C00007C44006B
:100160000C106000447C00000804080080808000BF
:1001700000040800304878007C48300030484800CF
:1001800030487C00306850001078140090A8780047
:100190007C08700050744000808074007C106800FF
:1001A000447C4000781078007808700030483000B7
:1001B000F82810003048F80078100800505828003F
:1001C000083C4800384078003840380078207800F3
:1001D0004830480098A0780048685800107884009B
:1001E000007C0000847810000804080411241FBE5D
:1001F000CFEFD4E0DEBFCDBF12E0A0E0B1E0E4E697
:10020000F6E102C005900D92AA31B107D9F722E0BC
:10021000AAE1B2E001C01D92AB39B207E1F70E943A
:1002200015010C94300B0C940000CF93DF93CDB7E5
:10023000DEB7A4970FB6F894DEBF0FBECDBF13E0B4
:1002400016B98FEF8ABB1BBA82E087B98FE190E0C5
:100250000E94680686E091E00E94E8060E945B0624
:100260000E9443030E94AF010E9422060E94630283
:100270000E9445038BE0898384E08A831B8B8C8BEF
:100280001A8619861E8A1D8A188E1F8A1A8E198E42
:100290006894CC24C7F808E512E0EE24E394F12C2E
:1002A0001C821B821E821D8218861F820E9474027D
:1002B00080917102909172028C519240D9F5F801AF
:1002C0008081992787FD90959C838B8386E00E948F
:1002D0002E06D82E282F332727FD30954C2D552755
:1002E00047FD5095BA01665F7F4F2617370744F4E4
:1002F0004A505109421753072CF4DC2C20E003C06C
:10030000282F01C0282F332727FD30953E832D83CA
:1003100080917002813021F4F886EF821092700291
:100320002B8D3C8D232B79F083E790E00E9496047F
:10033000CD2C0AC00E94C40387EA91E60197F1F729
:1003400000C0000001C0CD2CCE0101960E94C60164
:100350001C8E1B8ECE0143960E941102A1CF0E94DB
:1003600037034FEF60E680E60E94150340E064E04B
:1003700080E60E94150345E065E08BE20E941503CC
:1003800040E060EE8FE00E9415030895EF92FF9227
:100390000F931F93CF93DF937C01C1E006C080E3EE
:1003A0000E94E20285FDC093790280E30E94E2028E
:1003B00083FDF5CFF70160816295660F607E82E371
:1003C0000E94F402F701608166956695669581E367
:1003D0000E94F402F701618185E30E94F402F701B3
:1003E00081818823A1F087010E5F1F4FC0E0D0E01C
:1003F000F80160810E5F1F4F8C2F8A5C0E94F4020F
:100400002196F701218130E0C217D3078CF381E0F8
:100410000E940803DF91CF911F910F91FF90EF9001
:100420000895EF92FF920F931F93CF93DF937C0178
:10043000FC0113821282108211828CE20E94E2027D
:1004400080FFFBCF81E60E94E202C82F82E60E9475
:10045000E202CC0FCC0FCC0F829586958770C82B0B
:10046000F701C08385E60E94E2028F70F701818365
:100470008823B1F087010E5F1F4FC0E0D0E08C2FC2
:100480008A590E94E202282F30E0F801219331932B
:100490008F012196F701218130E0C217D3077CF349
:1004A00040E061E08CE20E941503DF91CF911F9143
:1004B0000F91FF90EF90089580930014B399FECFB1
:1004C00080910014089584E00E945C0290E0909373
:1004D0007B0280937A0285E00E945C0290E0909318
:1004E0007D0280937C0208951F93CF93DF9384E075
:1004F0000E945C02282F30E040917A0250917B02EA
:10050000241B350B13E6129FC001139F900D11247D
:10051000CFE7D0E0BE010E94750670935902609348
:10052000580285E00E945C02282F30E040917C0256
:1005300050917D02241B350B129FC001139F900D1B
:100540001124BE010E94750670935B0260935A02EB
:10055000DF91CF911F910895809158029091590297
:1005600020915A0230915B02BC01992324F4662742
:100570007727681B790BA901332324F444275527D7
:10058000421B530B461757077CF49C012C5E3F4FD0
:100590002932310520F0449724F082E003C080E046
:1005A00001C081E090E00895C9014496899728F040
:1005B0002431310524F083E003C080E001C084E0F1
:1005C00090E00895CF93C82F0E944B0683E00E94CD
:1005D0003E068C2F0E943E060E944206C82F0E94B3
:1005E00049068C2FCF910895CF93DF93D82FC62F34
:1005F0000E944B0682E00E943E068D2F0E943E061E
:100600008C2F0E943E060E944906DF91CF910895EB
:10061000CF93C82F0E944B068C2F877080580E9462
:100620003E060E944906CF9108951F93CF93DF9312
:10063000182FD62FC42F0E944B0685E00E943E063D
:10064000812F0E943E068D2F0E943E068C2F0E9415
:100650003E060E944906DF91CF911F9108950E94A6
:100660004B0680EC0E943E060E94490608950E94B7
:1006700035060E942F03089585B7806885BF80B72F
:10068000806280BF0895BB9808950E944B0586E163
:1006900091E09093410280934002E0E3F2E0F18325
:1006A000E083E2E3F2E080E492E011921192E81735
:1006B000F907D9F78CE192E09093330280933202EC
:1006C000ECE5F2E0F0933502E093340284E492E04A
:1006D00090933902809338028EE291E09093430226
:1006E000809342028FE691E090936D0280936C02BA
:1006F00080E392E091838083EEE5F2E08CE692E085
:1007000011921192E817F907D9F788E891E09093D0
:100710006F0280936E0289EA91E090935502809374
:10072000540280E392E09093450280934402E6E411
:10073000F2E084E592E011921192E817F907D9F7F7
:1007400086EC91E090932D0280932C0280E392E05E
:1007500090931D0280931C02EEE1F2E08CE292E0A5
:1007600011921192E817F907D9F78DED91E0909366
:100770002F0280932E028CE192E09093720280937C
:10078000710210927E0208950E9409050E94AC0237
:100790000097E1F08330910579F480917E0290E03A
:1007A000019787709078992324F40197886F9F6F41
:1007B000019680937E020AC0049741F480917E02E4
:1007C00090E001968770907880937E0280917E02FF
:1007D0000E94080608950E943C05E0917102F09184
:1007E000720262E0808991890E947D05E091710228
:1007F000F091720262E0828993890E947D05809166
:1008000071029091720221E032E08434930709F47E
:1008100020E0211107C021E08C51924009F420E032
:10082000222321F080917E020E94080608951F92E3
:100830000F920FB60F9211242F933F934F935F9314
:100840006F937F938F939F93AF93BF93EF93FF9398
:10085000E0917102F091720282E0EC31F80721F42C
:1008600081E08093700223C082E0E434F80719F439
:100870000E943C051CC080917E02811107C08081CE
:10088000918190937202809371020DC090E0880F65
:10089000991FE80FF91F80819181009721F09093B3
:1008A00072028093710210927E020E94EB03FF910C
:1008B000EF91BF91AF919F918F917F916F915F91D8
:1008C0004F913F912F910F900FBE0F901F90189551
:1008D0001F920F920FB60F9211242F933F934F93B5
:1008E0005F936F937F938F939F93AF93BF93EF9398
:1008F000FF93E0917102F091720280819181909357
:100900007202809371020E94EB03FF91EF91BF91FD
:10091000AF919F918F917F916F915F914F913F9197
:100920002F910F900FBE0F901F9018950F931F934C
:10093000CF93DF93CDB7DEB72A970FB6F894DEBF1B
:100940000FBECDBF182F80E00E94DD041F921F93C1
:100950008FEE91E09F938F938E010F5F1F4F1F9338
:100960000F930E94150762E082EF91E00E947D05DF
:1009700064E1C8010E947D050F900F900F900F90C9
:100980000F900F902A960FB6F894DEBF0FBECDBF22
:10099000DF91CF911F910F91089580E790E09093A0
:1009A00077028093760284E08093730286E08093DE
:1009B000740280E2809375020895877080931A0212
:1009C000805580930010089590917302899F902D17
:1009D0001124292F2F70E0E0F0E1208392959F7081
:1009E000905F908380931B02089580E00E94DD0455
:1009F00080E00E94E4040895982F9F70E0E0F0E109
:100A00009083982F92959F70905F908380931B02A4
:100A10000895DF92EF92FF920F931F93CF93DF938E
:100A2000D0901A02E0901B0200E0F12CC0E0D2E16D
:100A3000802F0E94DD041F2D812F0E94FC0418824C
:100A40001F5F1830C9F70F5F083091F7D0921A0274
:100A5000E0921B02DF91CF911F910F91FF90EF90D9
:100A6000DF9008950E94DD0480E0E0E0F2E1108272
:100A70008F5F8038E1F70895CF9380E48093001072
:100A8000C0E08C2F0E943205CF5FC830D1F70E94A2
:100A9000F504CF910895E0E0F0E18EEA808381EAE9
:100AA00080838AED808382E1808388EC808388EA7A
:100AB00080838FE3808385ED808380E8808381E875
:100AC000808380E5808389ED808381E2808380E27A
:100AD000808382E080838BED808380E380838DEA56
:100AE0008083108284EA808386EA80838FEA808311
:100AF0000E943C050E94CD0408953F924F925F9260
:100B00006F927F928F929F92AF92BF92CF92DF921D
:100B1000EF92FF920F931F93CF93DF93EC01362E4A
:100B2000862F0E94E404FE0101900020E9F731972E
:100B30003F016C1A7D0A161417040CF057C04E01C1
:100B4000A12CB12CC3E7D2E0512C412C0F2EF6E79B
:100B5000CF2EF2E0DF2EF02D0F2EF5E7EF2EF2E094
:100B6000FF2EF02D00E012E1D4014D914D014A30ED
:100B700031F0288130E0121613066CF030C08091FD
:100B80001A0290E00196877090780E94DD04832D10
:100B90000E94E40424C0852D942D50E0F70160816B
:100BA000DA01A61BB1092A9FF0012B9FF00D3A9F95
:100BB000F00D1124E80FF91FD6012D913C91E20FA1
:100BC000F31FE491D801EC9330911B022881320F7E
:100BD00030931B02019630E082179307FCF2BFEFBF
:100BE000AB1ABB0A6A147B0409F0BECFDF91CF9128
:100BF0001F910F91FF90EF90DF90CF90BF90AF903B
:100C00009F908F907F906F905F904F903F9008954E
:100C1000CF93C0911A020E94DD0481E00E94FC047F
:100C2000E0E0F2E198E1908390838EE780838CE3AB
:100C30008083908388E080931B028C2F0E94DD04C8
:100C4000CF91089581B3837F81BBF89485B78A6083
:100C500085BF8BB7806C8BBF789408958093001408
:100C6000B399FECF80910014089587B3806B87BB42
:100C7000BE98C69A8DB181658DB908958FB9779B5D
:100C8000FECF08958FEF0E943E06779BFECF8FB177
:100C90000895C49A0895C498089520E030E080E053
:100CA00090E0F901F85E108201969C01811548E000
:100CB0009407B9F708950E943C030E944D060895D9
:100CC0005D9BFECF8CB908955F9BFECF8CB10895DC
:100CD00090BD89B988E18AB98EE880BD64E676E086
:100CE00080E696E00E949D06089597FB072E16F475
:100CF000009407D077FD09D00E94890607FC05D033
:100D00003EF4909581959F4F0895709561957F4F22
:100D10000895AA1BBB1B51E107C0AA1FBB1FA61742
:100D2000B70710F0A61BB70B881F991F5A95A9F794
:100D300080959095BC01CD0108950F931F93CF939B
:100D4000DF93EC018B01009731F46115710519F403
:100D500080E090E038C06EE070E081E090E00E94BA
:100D60000909FC010097A1F380E8838301151105AF
:100D700071F01387028781E88383809191029091BB
:100D80009202892B21F4F0939202E0939102209732
:100D9000C9F0D187C0878381826083838091930269
:100DA00090919402892B71F4F0939402E093930252
:100DB0008091950290919602892B21F4F0939602EE
:100DC000E0939502CF01DF91CF911F910F9108958C
:100DD0000F931F93CF93DF93E0919302F0919402CE
:100DE000238121FF1BC0EC0100E010E0899160919C
:100DF000930270919402DB011896ED91FC91199782
:100E0000882331F00995892B89F30FEF1FEFEECF7F
:100E10008AE00995892B11F4C80102C08FEF9FEF7A
:100E2000DF91CF911F910F910895AEE0B0E0EBE11B
:100E3000F7E00C94070B0D891E8986E08C831A83DA
:100E400009838FEF9FE79E838D83AE01475E5F4FDF
:100E50006F89788DCE0101960E943707EF81F88562
:100E6000E00FF11F10822E96E4E00C94230BACE00F
:100E7000B0E0EDE3F7E00C94F90A7C016B018A0124
:100E8000FC0117821682838181FFBDC1CE010196CC
:100E90004C01F7019381F60193FD859193FF8191B8
:100EA0006F01882309F4ABC1853239F493FD859134
:100EB00093FF81916F01853229F4B70190E00E9480
:100EC000690AE7CF512C312C20E02032A0F48B327C
:100ED00069F030F4803259F0833269F420612CC01B
:100EE0008D3239F0803339F4216026C022602460CD
:100EF00023C0286021C027FD27C030ED380F3A30CD
:100F000078F426FF06C0FAE05F9E300D1124532EC0
:100F100013C08AE0389E300D1124332E20620CC09D
:100F20008E3221F426FD6BC1206406C08C3611F48C
:100F3000206802C0883641F4F60193FD859193FF45
:100F400081916F018111C1CF982F9F7D955493306E
:100F500028F40C5F1F4FFFE3F9830DC0833631F097
:100F6000833771F0833509F05BC022C0F8018081BE
:100F700089830E5F1F4F44244394512C540115C0A4
:100F80003801F2E06F0E711CF801A080B18026FFDD
:100F900003C0652D70E002C06FEF7FEFC5012C87A5
:100FA0000E945E0A2C0183012C852F77222E17C008
:100FB0003801F2E06F0E711CF801A080B18026FFAD
:100FC00003C0652D70E002C06FEF7FEFC5012C8775
:100FD0000E944C0A2C012C852068222E830123FCC0
:100FE0001BC0832D90E048165906B0F4B70180E28B
:100FF00090E00E94690A3A94F4CFF50127FC8591AC
:1010000027FE81915F01B70190E00E94690A3110CB
:101010003A94F1E04F1A51084114510471F7E5C0B8
:10102000843611F0893639F5F80127FF07C0608151
:101030007181828193810C5F1F4F08C06081718133
:10104000882777FD8095982F0E5F1F4F2F76B22E41
:1010500097FF09C090958095709561957F4F8F4F50
:101060009F4F2068B22E2AE030E0A4010E949B0A24
:10107000A82EA81844C0853729F42F7EB22E2AE066
:1010800030E025C0F22FF97FBF2E8F36C1F018F463
:10109000883579F0B4C0803719F0883721F0AFC0B7
:1010A0002F2F2061B22EB4FE0DC08B2D8460B82E80
:1010B00009C024FF0AC09F2F9660B92E06C028E001
:1010C00030E005C020E130E002C020E132E0F8016C
:1010D000B7FE07C060817181828193810C5F1F4FD1
:1010E00006C06081718180E090E00E5F1F4FA40117
:1010F0000E949B0AA82EA818FB2DFF77BF2EB6FED4
:101100000BC02B2D2E7FA51450F4B4FE0AC0B2FCE8
:1011100008C02B2D2E7E05C07A2C2B2D03C07A2CD7
:1011200001C0752C24FF0DC0FE01EA0DF11D808168
:10113000803311F4297E09C022FF06C07394739492
:1011400004C0822F867809F0739423FD13C020FF1A
:1011500006C05A2C731418F4530C5718732C7314BC
:1011600068F4B70180E290E02C870E94690A7394CA
:101170002C85F5CF731410F4371801C0312C24FFDF
:1011800012C0B70180E390E02C870E94690A2C8589
:1011900022FF17C021FF03C088E590E002C088E766
:1011A00090E0B7010CC0822F867859F021FD02C073
:1011B00080E201C08BE227FD8DE2B70190E00E9442
:1011C000690AA51438F4B70180E390E00E94690A27
:1011D0005A94F7CFAA94F401EA0DF11D8081B7016A
:1011E00090E00E94690AA110F5CF332009F451CE96
:1011F000B70180E290E00E94690A3A94F6CFF701C5
:101200008681978102C08FEF9FEF2C96E2E10C94CC
:10121000150B0F931F93CF93DF93869F8001879FBA
:10122000100D969F100D1124C8010E942509EC0194
:10123000009729F0A80160E070E00E94570ACE01F3
:10124000DF91CF911F910F910895CF93DF9382305B
:10125000910510F482E090E0E0919902F0919A02F9
:1012600020E030E0A0E0B0E0309739F140815181DA
:1012700048175907B8F04817590771F482819381CC
:10128000109729F013969C938E9312972CC09093ED
:101290009A028093990227C02115310531F0421737
:1012A000530718F0A901DB0101C0EF019A01BD014C
:1012B000DF010280F381E02DD7CF21153105F9F050
:1012C000281B390B2430310580F48A819B816115FC
:1012D000710521F0FB019383828304C090939A02ED
:1012E00080939902FE01329644C0FE01E20FF31F83
:1012F0008193919322503109398328833AC02091F8
:10130000970230919802232B41F4209102013091F1
:1013100003013093980220939702209100013091AD
:1013200001012115310541F42DB73EB7409104016B
:1013300050910501241B350BE0919702F091980222
:10134000E217F307A0F42E1B3F0B2817390778F09C
:10135000AC014E5F5F4F2417350748F04E0F5F1FFB
:1013600050939802409397028193919302C0E0E0DA
:10137000F0E0CF01DF91CF910895CF93DF930097F5
:1013800009F487C0FC01329713821282C09199023E
:10139000D0919A02209781F420813181280F391F42
:1013A00080919702909198028217930779F5F093B4
:1013B0009802E09397026DC0DE0120E030E0AE17A6
:1013C000BF0750F412964D915C9113979D01411502
:1013D000510509F1DA01F3CFB383A2834081518132
:1013E000840F951F8A179B0771F48D919C9111971B
:1013F000840F951F02969183808312968D919C9104
:101400001397938382832115310529F4F0939A026F
:10141000E09399023EC0D9011396FC93EE93129784
:101420004D915D91A40FB51FEA17FB0779F48081F8
:101430009181840F951F0296D90111969C938E93EA
:101440008281938113969C938E931297E0E0F0E053
:101450008A819B81009719F0FE01EC01F9CFCE0142
:10146000029628813981820F931F20919702309133
:1014700098022817390769F4309729F410929A02D4
:101480001092990202C013821282D0939802C093E4
:101490009702DF91CF910895FC0105906150704053
:1014A0000110D8F7809590958E0F9F1F0895DC014D
:1014B00001C06D9341505040E0F70895FC01615028
:1014C000704001900110D8F7809590958E0F9F1F66
:1014D00008950F931F93CF93DF93182F092FEB01DC
:1014E0008B8181FD03C08FEF9FEF20C082FF10C072
:1014F0004E815F812C813D81421753077CF4E88146
:10150000F9819F012F5F3F4F39832883108306C0E5
:10151000E885F985812F0995892B29F72E813F814F
:101520002F5F3F4F3F832E83812F902FDF91CF91ED
:101530001F910F910895FA01AA27283051F1203107
:1015400081F1E8946F936E7F6E5F7F4F8F4F9F4F57
:10155000AF4FB1E03ED0B4E03CD0670F781F891F99
:101560009A1FA11D680F791F8A1F911DA11D6A0F67
:10157000711D811D911DA11D20D009F468943F911A
:101580002AE0269F11243019305D3193DEF6CF0119
:101590000895462F4770405D4193B3E00FD0C9F7DF
:1015A000F6CF462F4F70405D4A3318F0495D31FD4C
:1015B0004052419302D0A9F7EACFB4E0A69597959F
:1015C000879577956795BA95C9F700976105710575
:1015D00008959B01AC010A2E0694579547953795BF
:1015E0002795BA95C9F7620F731F841F951FA01D19
:1015F00008952F923F924F925F926F927F928F92B7
:101600009F92AF92BF92CF92DF92EF92FF920F9391
:101610001F93CF93DF93CDB7DEB7CA1BDB0B0FB69B
:10162000F894DEBF0FBECDBF09942A883988488858
:101630005F846E847D848C849B84AA84B984C884EE
:10164000DF80EE80FD800C811B81AA81B981CE0FE5
:10165000D11D0FB6F894DEBF0FBECDBFED010895CA
:04166000F894FFCF2C
:1016640000009B02200041746D65676131363220B1
:1016740073746172740020202020202020203E20DA
:101684004D61696E206D656E75203C200A00506CBA
:1016940061792050696E672D506F6E672067616DA8
:1016A40065200A4869676873636F726573200A531B
:1016B400657474696E6773200A44726177206120CF
:1016C400646F6F646C65200A496E666F200A00427D
:1016D40061636B20202020203E2048696768736383
:1016E4006F7265203C200A00506C6179657231206C
:1016F40073636F72652E200A506C617965723220B3
:1017040073636F72652E200A002020202020202081
:1017140020203E2044726177696E6720626F617297
:1017240064203C200A002020202020202020203E6D
:1017340020496E2D67616D65203C200A000A4375BF
:101744007272656E742073636F72653A200A0025A5
:1017540069002020202020202020203E20496E2DBA
:1017640067616D65203C200A0A43757272656E7468
:0A1774002073636F72653A200000D5
:00000001FF
