S01D00004279676765726E5F7465726D5F70726F6A5F3136322E7372656310
S11300000C94F6000C9442050C94D6040C94130141
S11300100C9413010C9413010C9413010C9413010C
S11300200C9413010C9413010C9413010C941301FC
S11300300C9413010C9413010C9413010C941301EC
S11300400C9413010C9413010C9413010C941301DC
S11300500C9413010C9413010C9413010C941301CC
S11300600C9413010C9413010C9413010C941301BC
S113007000000000005C00000C000C007C287C28C0
S113008058DC68002410480028542840000C000064
S1130090007884008478000054385400107C1000E8
S11300A080400000101010000040000060100C00A0
S11300B038543800487C40004864580044542C00AC
S11300C01C107C005C5424003854240064140C007C
S11300D068542C0048543800004800008048000050
S11300E0102844002828280044281000045408003C
S11300F038445C00781478007C5428003844280084
S11301007C4438007C5444007C140400384474005B
S11301107C107C00447C440020403C007C106C003B
S11301207C4040007C187C0078103C003844380047
S11301307C1408003844B8007C1468004854240037
S1130140047C04007C407C003C603C007C307C00EF
S11301506C106C000C700C0064544C00007C440067
S11301600C106000447C00000804080080808000BB
S113017000040800304878007C48300030484800CB
S113018030487C00306850001078140090A8780043
S11301907C08700050744000808074007C106800FB
S11301A0447C4000781078007808700030483000B3
S11301B0F82810003048F80078100800505828003B
S11301C0083C4800384078003840380078207800EF
S11301D04830480098A07800486858001078840097
S11301E0007C0000847810000804080411241FBE59
S11301F0CFEFD4E0DEBFCDBF11E0A0E0B1E0EEE28E
S1130200F8E102C005900D92AE3FB107D9F722E0A4
S1130210AEEFB1E001C01D92A636B207E1F70E942D
S113022015010C94150C0C940000CF93DF93CDB7FB
S1130230DEB7A4970FB6F894DEBF0FBECDBF13E0B0
S113024016B98FEF8ABB1BBA82E087B98FE190E0C1
S11302500E94390786E091E00E94CD070E942C0796
S11302600E9408040E94DB010E94F3060E942803F6
S11302700E9488020E940A048BE0898384E08A83B6
S11302801B8B8C8B109235021A8619861E8A1D8A46
S1130290188E1F8A1A8E198E0E94AA04B12C689493
S11302A0992497F80F2EF4E2EF2EF2E0FF2EF02DB2
S11302B0CC24C394D12C06E111E01C821B821E8243
S11302C01D8218861F820E943903209136023091C4
S11302D0370282E020303807D1F5F7018081992771
S11302E087FD90959C838B8386E00E94FF06A82E51
S11302F0282F332727FD3095492D552747FD509545
S1130300CA010A962817390744F44A50510942177A
S113031053072CF4A92C20E003C02A2D01C02A2D58
S1130320332727FD30953E832D838091340281301D
S113033021F4D886CF82109234028B8D9C8D009745
S113034011F1B82E99270E940B059A2C1DC080919B
S11303503502813031F48B2D0E94950210923502C2
S113036013C02852324019F40E94C7020DC00E94E3
S113037083042FE788E391E0215080409040E1F727
S113038000C0000001C09A2CCE0101960E94F20127
S11303901C8E1B8ECE0143960E943D028C8D8F9342
S11303A08B8D8F931F930F930E94B9070F900F901B
S11303B00F900F9082CF0E94FC034FEF60E680E61F
S11303C00E94DA0340E064E080E60E94DA0345E03C
S11303D065E08BE20E94DA0340E060EE8FE00E9469
S11303E0DA030895EF92FF920F931F93CF93DF9355
S11303F07C01C1E006C080E30E94A70385FDC09391
S11304003E0280E30E94A70383FDF5CFF7016081DC
S11304106295660F607E82E30E94B903F7016081F2
S113042066956695669581E30E94B903F70161813B
S113043085E30E94B903F70181818823A1F0870134
S11304400E5F1F4FC0E0D0E0F80160810E5F1F4FC8
S11304508C2F8A5C0E94B9032196F701218130E038
S1130460C217D3078CF381E00E94CD03DF91CF91B3
S11304701F910F91FF90EF900895EF92FF920F93C9
S11304801F93CF93DF937C01FC01138212821082AD
S113049011828CE20E94A70380FFFBCF81E60E94B9
S11304A0A703C82F82E60E94A703CC0FCC0FCC0F62
S11304B0829586958770C82BF701C08385E60E94D4
S11304C0A7038F70F70181838823B1F087010E5F42
S11304D01F4FC0E0D0E08C2F8A590E94A703282F19
S11304E030E0F801219331938F012196F7012181A6
S11304F030E0C217D3077CF340E061E08CE20E9455
S1130500DA03DF91CF911F910F91FF90EF9008953F
S113051010923F0210924002109241021092420245
S113052010924302109244020895482F552747FD24
S1130530509560913F02262F30E0241735075CF078
S1130540A0E4B2E0E1E0F0E06D91262F30E0241762
S1130550350764F402C0E0E0F0E0DF01A15CBD4FC8
S11305608C933196E630F10534F008953196E630F7
S1130570F10551F70895E15CFD4F85E492E0208197
S11305806193E817F90711F0622FF9CF0895AF923C
S1130590BF92CF92DF92EF92FF920F931F93CF936C
S11305A0DF93CDB7DEB727970FB6F894DEBF0FBE43
S11305B0CDBF0E940D0680E00E94AE0562E08CE291
S11305C091E00E944E060F2EFFE3EF2EF2E0FF2E85
S11305D0F02D0F2EF5E4AF2EF2E0BF2EF02D0F2EEE
S11305E0F2E2CF2EF1E0DF2EF02D8E010F5F1F4FD0
S11305F0F70181917F011F928F93DF92CF921F9316
S11306000F930E94FA0762E0C8010E944E060F9001
S11306100F900F900F900F900F90EA14FB0441F786
S113062027960FB6F894DEBF0FBECDBFDF91CF91F2
S11306301F910F91FF90EF90DF90CF90BF90AF90FC
S1130640089580930014B399FECF80910014089507
S113065084E00E94210390E0909346028093450237
S113066085E00E94210390E0909348028093470222
S113067008951F93CF93DF9384E00E942103282FD2
S113068030E04091450250914602241B350B13E69D
S1130690129FC001139F900D1124CFE7D0E0BE013B
S11306A00E944607709325026093240285E00E940D
S11306B02103282F30E04091470250914802241B27
S11306C0350B129FC001139F900D1124BE010E948F
S11306D046077093270260932602DF91CF911F9102
S11306E00895809124029091250220912602309150
S11306F02702BC01992324F466277727681B790B0A
S1130700A901332324F444275527421B530B4617CE
S113071057077CF49C012C5E3F4F2932310520F0B1
S1130720449724F082E003C080E001C081E090E0BF
S11307300895C9014496899728F02431310524F09D
S113074083E003C080E001C084E090E00895CF938B
S1130750C82F0E941C0783E00E940F078C2F0E9461
S11307600F070E941307C82F0E941A078C2FCF91DE
S11307700895CF93DF93D82FC62F0E941C0782E0E1
S11307800E940F078D2F0E940F078C2F0E940F07C6
S11307900E941A07DF91CF910895CF93C82F0E942A
S11307A01C078C2F877080580E940F070E941A071D
S11307B0CF9108951F93CF93DF93182FD62FC42F73
S11307C00E941C0785E00E940F07812F0E940F07DB
S11307D08D2F0E940F078C2F0E940F070E941A076B
S11307E0DF91CF911F9108950E941C0780EC0E9415
S11307F00F070E941A0708950E9406070E94F40337
S1130800089585B7806885BF80B7806280BF0895EA
S1130810BB980895CF93DF930E941C0685E491E072
S11308209093150280931402ECE0F2E0F183E083EC
S113083040E052E050930F0240930E0288E292E0AF
S11308409093110280931002C8E1D2E0D093130276
S1130850C09312022DE531E0309317022093160263
S11308602CE231E03093310220933002DC01ED932D
S1130870FC9310922B0210922A0210922D021092D5
S11308802C0210922F0210922E028CEF91E0909382
S11308903302809332028EE891E090932102809398
S11308A02002F983E88310921B0210921A0210921C
S11308B01D0210921C0210921F0210921E028BEA5B
S11308C091E09093090280930802DA01ED93FC937E
S11308D01092030210920202109205021092040276
S11308E0109207021092060282EC91E090930B02A0
S11308F080930A02F0933702E09336021092490281
S1130900DF91CF9108950E94DA050E947103009748
S1130910E1F08330910579F48091490290E00197E8
S113092087709078992324F40197886F9F6F0196BC
S1130930809349020AC0049741F48091490290E0EF
S113094001968770907880934902809149020E94B1
S1130950D90608950E940D06E0913602F0913702FF
S113096062E0808591850E944E06E0913602F09106
S1130970370262E0828593850E944E06809136029A
S11309809091370221E032E08831930709F420E0A6
S1130990211107C021E08050924009F420E0222375
S11309A021F0809149020E94D90608951F920F9266
S11309B00FB60F9211242F933F934F935F936F932E
S11309C07F938F939F93AF93BF93EF93FF93E091A4
S11309D03602F091370282E0E030F80719F481E042
S11309E080933502808191819093370280933602FF
S11309F00E94AA04FF91EF91BF91AF919F918F91B3
S1130A007F916F915F914F913F912F910F900FBE06
S1130A100F901F9018950F931F93CF93DF93CDB72B
S1130A20DEB72A970FB6F894DEBF0FBECDBF182FDE
S1130A3080E00E94AE051F921F9384ED91E09F9386
S1130A408F938E010F5F1F4F1F930F930E94FA071E
S1130A5062E087ED91E00E944E0664E1C8010E94C5
S1130A604E060F900F900F900F900F900F902A96B4
S1130A700FB6F894DEBF0FBECDBFDF91CF911F91AB
S1130A800F9108951F920F920FB60F9211242F9376
S1130A903F934F935F936F937F938F939F93AF9302
S1130AA0BF93EF93FF93E0913602F091370222E077
S1130AB0E030F20721F481E0809334022EC082E01A
S1130AC0E831F80719F40E940D0627C08091490205
S1130AD0811107C0808191819093370280933602FF
S1130AE00DC090E0880F991FE80FF91F8081918154
S1130AF0009721F0909337028093360210924902B6
S1130B000E94AA048091360290913702805092404C
S1130B1021F480E090E00E940B05FF91EF91BF91DA
S1130B20AF919F918F917F916F915F914F913F9181
S1130B302F910F900FBE0F901F90189580E790E0B3
S1130B4090933C0280933B0284E08093380286E0D9
S1130B508093390280E280933A02089587708093EB
S1130B60FE01805580930010089590913802899F6A
S1130B70902D1124292F2F70E0E0F0E1208392952D
S1130B809F70905F90838093FF01089580E00E949E
S1130B90AE0580E00E94B5050895982F9F70E0E0AF
S1130BA0F0E19083982F92959F70905F908380934B
S1130BB0FF010895DF92EF92FF920F931F93CF935B
S1130BC0DF93D090FE01E090FF0100E0F12CC0E043
S1130BD0D2E1802F0E94AE051F2D812F0E94CD05EA
S1130BE018821F5F1830C9F70F5F083091F7D09251
S1130BF0FE01E092FF01DF91CF911F910F91FF90D1
S1130C00EF90DF9008950E94AE0580E0E0E0F2E10D
S1130C1010828F5F8038E1F70895CF9380E480934A
S1130C200010C0E08C2F0E940306CF5FC830D1F7BC
S1130C300E94C605CF910895E0E0F0E18EEA80833A
S1130C4081EA80838AED808382E1808388EC8083DB
S1130C5088EA80838FE3808385ED808380E88083C6
S1130C6081E8808380E5808389ED808381E28083CD
S1130C7080E2808382E080838BED808380E38083C5
S1130C808DEA8083108284EA808386EA80838FEAF7
S1130C9080830E940D060E949E0508953F924F9204
S1130CA05F926F927F928F929F92AF92BF92CF92F8
S1130CB0DF92EF92FF920F931F93CF93DF93EC0198
S1130CC0362E862F0E94B505FE0101900020E9F71B
S1130CD031973F016C1A7D0A161417040CF057C0A3
S1130CE04E01A12CB12CC8E3D2E0512C412C0F2E83
S1130CF0FBE3CF2EF2E0DF2EF02D0F2EFAE3EF2EE2
S1130D00F2E0FF2EF02D00E012E1D4014D914D01EF
S1130D104A3031F0288130E0121613066CF030C0EE
S1130D208091FE0190E00196877090780E94AE0554
S1130D30832D0E94B50524C0852D942D50E0F70124
S1130D406081DA01A61BB1092A9FF0012B9FF00DE7
S1130D503A9FF00D1124E80FF91FD6012D913C9113
S1130D60E20FF31FE491D801EC933091FF01288145
S1130D70320F3093FF01019630E082179307FCF2A3
S1130D80BFEFAB1ABB0A6A147B0409F0BECFDF9134
S1130D90CF911F910F91FF90EF90DF90CF90BF9074
S1130DA0AF909F908F907F906F905F904F903F9007
S1130DB00895CF93C091FE010E94AE0581E00E9488
S1130DC0CD05E0E0F2E198E1908390838EE78083A3
S1130DD08CE38083908388E08093FF018C2F0E94B2
S1130DE0AE05CF91089581B3837F81BBF89485B715
S1130DF08A6085BF8BB7806C8BBF7894089580938D
S1130E000014B399FECF80910014089587B3806BCA
S1130E1087BBBE98C69A8DB181658DB908958FB987
S1130E20779BFECF08958FEF0E940F07779BFECF2D
S1130E308FB10895C49A0895C498089520E030E0CD
S1130E4080E090E0F901F85E108201969C01811522
S1130E5048E09407B9F708950E9401040E941E0710
S1130E6008955D9BFECF8CB908955F9BFECF8CB136
S1130E70089590BD89B988E18AB98EE880BD65E39B
S1130E8077E081E397E00E946E07089597FB072EB1
S1130E9016F4009407D077FD09D00E945A0707FC86
S1130EA005D03EF4909581959F4F08957095619576
S1130EB07F4F0895AA1BBB1B51E107C0AA1FBB1F8C
S1130EC0A617B70710F0A61BB70B881F991F5A95D2
S1130ED0A9F780959095BC01CD0108950F931F93B8
S1130EE0CF93DF93EC018B01009731F46115710509
S1130EF019F480E090E038C06EE070E081E090E0AA
S1130F000E94EE09FC010097A1F380E88383011598
S1130F10110571F01387028781E8838380915C0255
S1130F2090915D02892B21F4F0935D02E0935C02C1
S1130F302097C9F0D187C0878381826083838091A1
S1130F405E0290915F02892B71F4F0935F02E0934B
S1130F505E028091600290916102892B21F4F093EA
S1130F606102E0936002CF01DF91CF911F910F9155
S1130F700895A0E0B0E0EFEBF7E00C94EE0BFE0177
S1130F80359661917191AF0180915E0290915F02FB
S1130F900E941C08E2E00C940A0C0F931F93CF9359
S1130FA0DF93E0915E02F0915F02238121FF1BC079
S1130FB0EC0100E010E0899160915E0270915F02A3
S1130FC0DB011896ED91FC911997882331F009956E
S1130FD0892B89F30FEF1FEFEECF8AE00995892B58
S1130FE011F4C80102C08FEF9FEFDF91CF911F91E1
S1130FF00F910895AEE0B0E0E0E0F8E00C94EC0B63
S11310000D891E8986E08C831A8309838FEF9FE7FD
S11310109E838D83AE01475E5F4F6F89788DCE01CD
S113102001960E941C08EF81F885E00FF11F1082E1
S11310302E96E4E00C94080CACE0B0E0E2E2F8E0B8
S11310400C94DE0B7C016B018A01FC011782168271
S1131050838181FFBDC1CE0101964C01F7019381CB
S1131060F60193FD859193FF81916F01882309F423
S1131070ABC1853239F493FD859193FF81916F0162
S1131080853229F4B70190E00E944E0BE7CF512C32
S1131090312C20E02032A0F48B3269F030F480321D
S11310A059F0833269F420612CC08D3239F08033D9
S11310B039F4216026C02260246023C0286021C046
S11310C027FD27C030ED380F3A3078F426FF06C0EC
S11310D0FAE05F9E300D1124532E13C08AE0389E2F
S11310E0300D1124332E20620CC08E3221F426FDE3
S11310F06BC1206406C08C3611F4206802C08836A7
S113110041F4F60193FD859193FF81916F01811163
S1131110C1CF982F9F7D9554933028F40C5F1F4FB7
S1131120FFE3F9830DC0833631F0833771F08335E3
S113113009F05BC022C0F801808189830E5F1F4FD4
S113114044244394512C540115C03801F2E06F0E2D
S1131150711CF801A080B18026FF03C0652D70E0EA
S113116002C06FEF7FEFC5012C870E94430B2C0157
S113117083012C852F77222E17C03801F2E06F0EE1
S1131180711CF801A080B18026FF03C0652D70E0BA
S113119002C06FEF7FEFC5012C870E94310B2C0139
S11311A02C852068222E830123FC1BC0832D90E014
S11311B048165906B0F4B70180E290E00E944E0B45
S11311C03A94F4CFF50127FC859127FE81915F01C4
S11311D0B70190E00E944E0B31103A94F1E04F1A9F
S11311E051084114510471F7E5C0843611F0893671
S11311F039F5F80127FF07C06081718182819381ED
S11312000C5F1F4F08C060817181882777FD80952E
S1131210982F0E5F1F4F2F76B22E97FF09C090951F
S11312208095709561957F4F8F4F9F4F2068B22EA8
S11312302AE030E0A4010E94800BA82EA81844C024
S1131240853729F42F7EB22E2AE030E025C0F22F14
S1131250F97FBF2E8F36C1F018F4883579F0B4C009
S1131260803719F0883721F0AFC02F2F2061B22EBC
S1131270B4FE0DC08B2D8460B82E09C024FF0AC0B3
S11312809F2F9660B92E06C028E030E005C020E10B
S113129030E002C020E132E0F801B7FE07C060810F
S11312A07181828193810C5F1F4F06C060817181BF
S11312B080E090E00E5F1F4FA4010E94800BA82ED7
S11312C0A818FB2DFF77BF2EB6FE0BC02B2D2E7F4B
S11312D0A51450F4B4FE0AC0B2FC08C02B2D2E7E17
S11312E005C07A2C2B2D03C07A2C01C0752C24FF49
S11312F00DC0FE01EA0DF11D8081803311F4297EB9
S113130009C022FF06C07394739404C0822F8678A8
S113131009F0739423FD13C020FF06C05A2C7314E4
S113132018F4530C5718732C731468F4B70180E243
S113133090E02C870E944E0B73942C85F5CF731488
S113134010F4371801C0312C24FF12C0B70180E318
S113135090E02C870E944E0B2C8522FF17C021FFA2
S113136003C088E590E002C088E790E0B7010CC0B4
S1131370822F867859F021FD02C080E201C08BE201
S113138027FD8DE2B70190E00E944E0BA51438F4BE
S1131390B70180E390E00E944E0B5A94F7CFAA94D1
S11313A0F401EA0DF11D8081B70190E00E944E0B1B
S11313B0A110F5CF332009F451CEB70180E290E0BB
S11313C00E944E0B3A94F6CFF7018681978102C0B2
S11313D08FEF9FEF2C96E2E10C94FA0B0F931F937F
S11313E0CF93DF93869F8001879F100D969F100DEA
S11313F01124C8010E940A0AEC01009729F0A801EF
S113140060E070E00E943C0BCE01DF91CF911F9110
S11314100F910895CF93DF938230910510F482E009
S113142090E0E0916402F091650220E030E0A0E0F9
S1131430B0E0309739F14081518148175907B8F02D
S11314404817590771F482819381109729F01396F4
S11314509C938E9312972CC09093650280936402A0
S113146027C02115310531F04217530718F0A9019F
S1131470DB0101C0EF019A01BD01DF010280F381AC
S1131480E02DD7CF21153105F9F0281B390B243075
S1131490310580F48A819B816115710521F0FB017E
S11314A09383828304C09093650280936402FE0157
S11314B0329644C0FE01E20FF31F819391932250B0
S11314C03109398328833AC0209162023091630242
S11314D0232B41F4209102013091030130936302E4
S11314E02093620220910001309101012115310500
S11314F041F42DB73EB74091040150910501241BDE
S1131500350BE0916202F0916302E217F307A0F455
S11315102E1B3F0B2817390778F0AC014E5F5F4F45
S11315202417350748F04E0F5F1F50936302409312
S113153062028193919302C0E0E0F0E0CF01DF9179
S1131540CF910895CF93DF93009709F487C0FC01EE
S1131550329713821282C0916402D091650220975F
S113156081F420813181280F391F8091620290918A
S113157063028217930779F5F0936302E0936202A2
S11315806DC0DE0120E030E0AE17BF0750F41296C4
S11315904D915C9113979D014115510509F1DA01B3
S11315A0F3CFB383A28340815181840F951F8A179F
S11315B09B0771F48D919C911197840F951F02964E
S11315C09183808312968D919C9113979383828348
S11315D02115310529F4F0936502E09364023EC0BD
S11315E0D9011396FC93EE9312974D915D91A40F3C
S11315F0B51FEA17FB0779F480819181840F951F49
S11316000296D90111969C938E93828193811396AD
S11316109C938E931297E0E0F0E08A819B8100977F
S113162019F0FE01EC01F9CFCE010296288139812F
S1131630820F931F209162023091630228173907A9
S113164069F4309729F4109265021092640202C082
S113165013821282D0936302C0936202DF91CF910E
S11316600895FC010590615070400110D8F78095F1
S113167090958E0F9F1F0895DC0101C06D9341501A
S11316805040E0F70895FC01615070400190011052
S1131690D8F7809590958E0F9F1F08950F931F93F1
S11316A0CF93DF93182F092FEB018B8181FD03C0AA
S11316B08FEF9FEF20C082FF10C04E815F812C818D
S11316C03D81421753077CF4E881F9819F012F5F24
S11316D03F4F39832883108306C0E885F985812F1D
S11316E00995892B29F72E813F812F5F3F4F3F8337
S11316F02E83812F902FDF91CF911F910F91089509
S1131700FA01AA27283051F1203181F1E8946F932E
S11317106E7F6E5F7F4F8F4F9F4FAF4FB1E03ED0D4
S1131720B4E03CD0670F781F891F9A1FA11D680F72
S1131730791F8A1F911DA11D6A0F711D811D911DA5
S1131740A11D20D009F468943F912AE0269F11241A
S11317503019305D3193DEF6CF010895462F47707E
S1131760405D4193B3E00FD0C9F7F6CF462F4F70D9
S1131770405D4A3318F0495D31FD4052419302D037
S1131780A9F7EACFB4E0A6959795879577956795DD
S1131790BA95C9F700976105710508959B01AC01DD
S11317A00A2E06945795479537952795BA95C9F704
S11317B0620F731F841F951FA01D08952F923F92DF
S11317C04F925F926F927F928F929F92AF92BF924D
S11317D0CF92DF92EF92FF920F931F93CF93DF93F9
S11317E0CDB7DEB7CA1BDB0B0FB6F894DEBF0FBE56
S11317F0CDBF09942A88398848885F846E847D84A3
S11318008C849B84AA84B984C884DF80EE80FD80A4
S11318100C811B81AA81B981CE0FD11D0FB6F8941A
S1111820DEBF0FBECDBFED010895F894FFCFDB
S113182E00006602200041746D6567613136322016
S113183E7374617274004869676873636F726520AC
S113184E3A2025690A0025692C200A004261636B3F
S113185E20202020203E204869676873636F7265DC
S113186E203C200A0020202020202020203E204D35
S113187E61696E206D656E75203C200A00506C61A6
S113188E792050696E672D506F6E672067616D65A4
S113189E200A4869676873636F726573200A44721D
S11318AE6177206120646F6F646C65200A002020CC
S11318BE202020202020203E2044726177696E670C
S11318CE20626F617264203C200A002020202020B8
S11318DE202020203E20496E2D67616D65203C201E
S11318EE0A000A43757272656E742073636F7265B3
S11318FE3A200A00256900202020202020202020C4
S113190E3E20496E2D67616D65203C200A0A4375A1
S111191E7272656E742073636F72653A2000F6
S9030000FC
