S01D00004279676765726E5F7465726D5F70726F6A5F3136322E7372656310
S11300000C94F6000C948A040C9420050C941301AF
S11300100C9413010C9413010C9413010C9413010C
S11300200C9413010C9413010C9413010C941301FC
S11300300C9413010C9413010C9413010C941301EC
S11300400C9413010C9413010C9413010C941301DC
S11300500C9413010C9413010C9413010C941301CC
S11300600C9413010C9413010C9413010C941301BC
S113007000000000005C00000C000C007C287C28C0
S113008058DC68002410480028542840000C000064
S1130090007884008478000054385400107C1000E8
S11300A080400000101010000040000060100C00A0
S11300B038543800487C40004864580044542C00AC
S11300C01C107C005C5424003854240064140C007C
S11300D068542C0048543800004800008048000050
S11300E0102844002828280044281000045408003C
S11300F038445C00781478007C5428003844280084
S11301007C4438007C5444007C140400384474005B
S11301107C107C00447C440020403C007C106C003B
S11301207C4040007C187C0078103C003844380047
S11301307C1408003844B8007C1468004854240037
S1130140047C04007C407C003C603C007C307C00EF
S11301506C106C000C700C0064544C00007C440067
S11301600C106000447C00000804080080808000BB
S113017000040800304878007C48300030484800CB
S113018030487C00306850001078140090A8780043
S11301907C08700050744000808074007C106800FB
S11301A0447C4000781078007808700030483000B3
S11301B0F82810003048F80078100800505828003B
S11301C0083C4800384078003840380078207800EF
S11301D04830480098A07800486858001078840097
S11301E0007C0000847810000804080411241FBE59
S11301F0CFEFD4E0DEBFCDBF13E0A0E0B1E0ECE68A
S1130200F7E102C005900D92A034B107D9F723E0BD
S1130210A0E4B3E001C01D92AA3EB207E1F70E9438
S113022015010C94B40B0C94000083E086B98FEF95
S11302308ABB1BBA82E087B98FE190E00E94D8069E
S113024086E091E00E946C070E942B020E943F020C
S113025080E090E008950E9476034FEF60E680E628
S11302600E94540340E064E080E60E94540345E0A9
S113027065E08BE20E94540340E060EE8FE00E9450
S1130280540308959F92AF92BF92CF92DF92EF9260
S1130290FF920F931F93CF93DF93CDB7DEB762978F
S11302A00FB6F894DEBF0FBECDBF6C018CE20E9486
S11302B0210380FFFBCF81E60E942103982E82E672
S11302C00E942103990C990C990C8295869587704C
S11302D0982A85E60E9421038F70A82ED1F08E0102
S11302E00D5F1F4FE82EF12CEE0CFF1CE00EF11EEB
S11302F00F2EF6E6BF2EF02D8B2D0E942103282F02
S113030030E0F801219331938F01B394EE15FF058A
S113031099F7911003C08B818093D90340E061E089
S11303208CE20E9454031092DA039982AA8282E139
S1130330FE013196D60101900D928A95E1F7C6012E
S113034062960FB6F894DEBF0FBECDBFDF91CF919A
S11303501F910F91FF90EF90DF90CF90BF90AF90DF
S11303609F9008958F929F92AF92BF92CF92DF9207
S1130370EF92FF920F931F93CF93DF93CDB7DEB726
S1130380A4970FB6F894DEBF0FBECDBF89829A82C0
S1130390AB82BC82CD82DE82EF82F88609871A871F
S11303A02B873C874D875E876F87788B898B9A8BE9
S11303B0C92C11E00BC080E30E94210385FF06C015
S11303C01093DA03CE0143960E94420180E30E9417
S11303D0210383FDF0CF682D6295660F607E82E372
S11303E00E943303682D66956695669581E30E94A5
S11303F033036C2D85E30E943303D12C1C141D049C
S1130400A4F47E0183E0E80EF11C00E010E0F701A3
S11304106081F2E0EF0EF11C86E3800F0E9433034B
S11304200F5F1F4F0C151D0594F381E00E944703D5
S1130430A4960FB6F894DEBF0FBECDBFDF91CF9167
S11304401F910F91FF90EF90DF90CF90BF90AF90EE
S11304509F908F90089583E086B982E087B98FEFEB
S11304608ABB1BBA1092DA030E947B030E942B0101
S11304700E94AC060E9482030E94C80208953F9223
S11304804F925F926F927F928F929F92AF92BF92A0
S1130490CF92DF92EF92FF920F931F93CF93DF934C
S11304A0CDB7DEB762970FB6F894DEBF0FBECDBFEF
S11304B00E945E041092DA038091D2039091D303D8
S11304C08A56934009F04CC00F2EFAEB4F2EF3E0FE
S11304D05F2EF02D332433940F2EF6E16F2EF1E0CE
S11304E07F2EF02D09C08091DA03882329F08091B2
S11304F0D90390E00E944E050E94E502F20180813A
S1130500082F112707FD10951F923F921F938F9379
S11305101F923F927F926F920E945807A02E1C83D5
S11305200B83832C932CBC80CD80DE80EF80F884F9
S113053009851A852B853C854D855E856F8578896F
S113054089899A890E94B2010FB6F894DEBF0FBE62
S1130550CDBF8091D2039091D3038A56934019F270
S113056062960FB6F894DEBF0FBECDBFDF91CF9178
S11305701F910F91FF90EF90DF90CF90BF90AF90BD
S11305809F908F907F906F905F904F903F900895D1
S113059085E0809300148DE08A95F1F70000E0E097
S11305A0F4E1808190E09093DC038093DB0384E0AA
S11305B080838DE08A95F1F700008091001490E02B
S11305C09093DE038093DD03089584E08093001408
S11305D08DE08A95F1F70000E0E0F4E1208130E05D
S11305E08091DD039091DE03281B390B43E6429F83
S11305F0C001439F900D11246FE770E00E94E5064F
S11306007093BD036093BC0385E080838DE08A957D
S1130610F1F700002091001430E08091DB03909109
S1130620DC03281B390B429FC001439F900D11240A
S11306306FE770E00E94E5067093BB036093BA0312
S11306400895CF93C82F0E94CE0683E00E94C1066E
S11306508C2F0E94C1060E94C506C82F0E94CC069A
S11306608C2FCF910895CF93DF93D82FC62F0E945C
S1130670CE0682E00E94C1068D2F0E94C1068C2FF7
S11306800E94C1060E94CC06DF91CF910895CF93BA
S1130690C82F0E94CE068C2F877080580E94C106F6
S11306A00E94CC06CF9108951F93CF93DF93182F08
S11306B0D62FC42F0E94CE0685E00E94C106812F4A
S11306C00E94C1068D2F0E94C1068C2F0E94C10674
S11306D00E94CC06DF91CF911F9108950E94CE060F
S11306E080EC0E94C1060E94CC0608950E94B806C0
S11306F00E946E03089585B7806885BF80B78062C5
S113070080BF08950E94D50589E491E090938F03FA
S113071080938E03EEE7F3E0F183E083E0E8F3E017
S11307208EE893E011921192E817F907D9F7E6E5FC
S1130730F3E0F0938103E09380038EEB93E09093D6
S113074083038093820382E493E0909385038093F0
S1130750840382E993E0909387038093860381E680
S113076091E090939103809390038CE991E09093AE
S11307706703809366038EE793E091838083E8E5C3
S1130780F3E086E693E011921192E817F907D9F79E
S11307908AE693E0909359038093580383EB91E0A6
S11307A090936903809368038FEB91E09093CF0358
S11307B08093CE038EE793E09093BF038093BE03B0
S11307C0E0ECF3E08EEC93E011921192E817F90754
S11307D0D9F788ED91E09093D1038093D00389EF0A
S11307E091E090935303809352038EE793E09093A8
S11307F0430380934203E4E4F3E082E593E011923F
S11308001192E817F907D9F781E192E09093550323
S1130810809354038BE592E09093A3038093A20307
S11308208EE793E09093930380939203E4E9F3E0DB
S113083082EA93E011921192E817F907D9F788E751
S113084092E09093B7038093B60382E493E090938D
S1130850A7038093A603E8EAF3E086EB93E0119202
S11308601192E817F907D9F78AE992E09093B9034E
S11308708093B8038CED92E090937B0380937A038A
S113088086E593E090936B0380936A03ECE6F3E0D0
S11308908AE793E011921192E817F907D9F783EFE9
S11308A092E090937D0380937C038AE693E0909397
S11308B0D3038093D2031092DF0308950E94C605E8
S11308C0E091D203F091D30362E0808991890E9480
S11308D00706E091D203F091D30362E08289938901
S11308E00E9407068091D2039091D30321E033E064
S11308F08239930709F420E0211107C021E08A56C8
S1130900934009F420E0222321F08091DF030E9428
S1130910920608951F920F920FB60F9211248F9290
S11309209F92AF92BF92CF92DF92EF92FF920F937A
S11309301F932F933F934F935F936F937F938F9363
S11309409F93AF93BF93EF93FF93CF93DF93CDB771
S1130950DEB76297DEBFCDBFE091D203F091D3033F
S113096083E0EA36F80769F51F9281E08F931F92BE
S11309701F921F9282E08F9385E093E09F938F9361
S11309800E9458071C821B826894882481F8992449
S11309909394A12CBC80CD80DE80EF80F8840985FF
S11309A01A852B853C854D855E856F857889898977
S11309B09A890E94B2010FB6F894DEBF0FBECDBF74
S11309C01CC08091DF03811107C0808191819093C5
S11309D0D3038093D2030DC090E0880F991FE80FD2
S11309E0F91F80819181009721F09093D303809324
S11309F0D2031092DF030E945E0462960FB6F8944D
S1130A00DEBF0FBECDBFDF91CF91FF91EF91BF91BC
S1130A10AF919F918F917F916F915F914F913F9192
S1130A202F911F910F91FF90EF90DF90CF90BF9087
S1130A30AF909F908F900F900FBE0F901F901895BE
S1130A401F920F920FB60F9211242F933F934F933F
S1130A505F936F937F938F939F93AF93BF93EF9322
S1130A60FF93E091D203F091D3038081918190931D
S1130A70D3038093D2030E945E04FF91EF91BF9150
S1130A80AF919F918F917F916F915F914F913F9122
S1130A902F910F900FBE0F901F9018950F931F93D7
S1130AA0CF93DF93CDB7DEB72A970FB6F894DEBFA6
S1130AB00FBECDBF182F82E00E9490051F921F9396
S1130AC08CE393E09F938F938E010F5F1F4F1F93CF
S1130AD00F930E9499076FE0C8010E9407060F90C8
S1130AE00F900F900F900F900F902A960FB6F894D6
S1130AF0DEBF0FBECDBFDF91CF911F910F9108953F
S1130B0080E790E09093D8038093D70384E08093A8
S1130B10D40386E08093D50380E28093D6030895BE
S1130B2087708093400380558093001008959091BE
S1130B30D403899F902D1124292F2F70E0E0F0E138
S1130B40208392959F70905F9083809341030895D2
S1130B5080E00E94900580E00E9497050895982FF8
S1130B609F70E0E0F0E19083982F92959F70905FE2
S1130B7090838093410308950E94900580E0E0E013
S1130B80F2E110828F5F8038E1F70895CF9380E41B
S1130B9080930010C0E08C2F0E94BC05CF5FC8304A
S1130BA0D1F70E94A805CF910895E0E0F0E18EEA24
S1130BB0808381EA80838AED808382E1808388EC6C
S1130BC0808388EA80838FE3808385ED808380E857
S1130BD0808381E8808380E5808389ED808381E25E
S1130BE0808380E2808382E080838BED808380E356
S1130BF080838DEA8083108284EA808386EA8083FE
S1130C008FEA80830E94C6050E94800508953F9262
S1130C104F925F926F927F928F929F92AF92BF9208
S1130C20CF92DF92EF92FF920F931F93CF93DF93B4
S1130C30EC01362E862F0E949705FE0101900020BC
S1130C40E9F731973F016C1A7D0A161417040CF06A
S1130C5057C04E01A12CB12CC4EDD3E0512C412C32
S1130C600F2EF7EDCF2EF3E0DF2EF02D0F2EF6ED45
S1130C70EF2EF3E0FF2EF02D00E012E1D4014D91B0
S1130C804D014A3031F0288130E0121613066CF021
S1130C9030C08091400390E00196877090780E9464
S1130CA09005832D0E94970524C0852D942D50E036
S1130CB0F7016081DA01A61BB1092A9FF0012B9F7D
S1130CC0F00D3A9FF00D1124E80FF91FD6012D9174
S1130CD03C91E20FF31FE491D801EC93309141036E
S1130CE02881320F30934103019630E08217930735
S1130CF0FCF2BFEFAB1ABB0A6A147B0409F0BECF47
S1130D00DF91CF911F910F91FF90EF90DF90CF90E3
S1130D10BF90AF909F908F907F906F905F904F9017
S1130D203F900895CF93C09140030E94900581E0C5
S1130D300E94AF05E0E0F2E198E1908390838EE7B2
S1130D4080838CE38083908388E0809341038C2F9D
S1130D500E949005CF91089581B3837F81BBF8945D
S1130D6085B78A6085BF8BB7806C8BBF78940895F4
S1130D7087B3806B87BBBE98C69A8DB181658DB9E8
S1130D8008958FB9779BFECF08958FEF0E94C10617
S1130D90779BFECF8FB10895C49A0895C49808959F
S1130DA05D9BFECF8CB908955F9BFECF8CB10895F7
S1130DB090BD89B988E18AB98EE880BD64ED76E09A
S1130DC080ED96E00E940D07089597FB072E16F418
S1130DD0009407D077FD09D00E94F90607FC05D0DE
S1130DE03EF4909581959F4F0895709561957F4F3E
S1130DF00895AA1BBB1B51E107C0AA1FBB1FA6175E
S1130E00B70710F0A61BB70B881F991F5A95A9F7AF
S1130E1080959095BC01CD0108950F931F93CF93B6
S1130E20DF93EC018B01009731F46115710519F41E
S1130E3080E090E038C06EE070E081E090E00E94D5
S1130E408D09FC010097A1F380E883830115110546
S1130E5071F01387028781E883838091E003909186
S1130E60E103892B21F4F093E103E093E00320975D
S1130E70C9F0D187C0878381826083838091E20334
S1130E809091E303892B71F4F093E303E093E2037D
S1130E908091E4039091E503892B21F4F093E50319
S1130EA0E093E403CF01DF91CF911F910F91089557
S1130EB0A0E0B0E0EEE5F7E00C948D0BFE01359672
S1130EC061917191AF018091E2039091E3030E94DB
S1130ED0BB07E2E00C94A90B0F931F93CF93DF930E
S1130EE0E091E203F091E303238121FF1BC0EC01B5
S1130EF000E010E089916091E2037091E303DB016B
S1130F001896ED91FC911997882331F00995892B56
S1130F1089F30FEF1FEFEECF8AE00995892B11F4C7
S1130F20C80102C08FEF9FEFDF91CF911F910F9106
S1130F300895AEE0B0E0EFE9F7E00C948B0B0D8977
S1130F401E8986E08C831A8309838FEF9FE79E8333
S1130F508D83AE01475E5F4F6F89788DCE01019618
S1130F600E94BB07EF81F885E00FF11F10822E96D7
S1130F70E4E00C94A70BACE0B0E0E1ECF7E00C94F7
S1130F807D0B7C016B018A01FC011782168283812F
S1130F9081FFBDC1CE0101964C01F7019381F60199
S1130FA093FD859193FF81916F01882309F4ABC16F
S1130FB0853239F493FD859193FF81916F018532D8
S1130FC029F4B70190E00E94ED0AE7CF512C312CAF
S1130FD020E02032A0F48B3269F030F4803259F0F2
S1130FE0833269F420612CC08D3239F0803339F4B6
S1130FF0216026C02260246023C0286021C027FD10
S113100027C030ED380F3A3078F426FF06C0FAE0F6
S11310105F9E300D1124532E13C08AE0389E300D8C
S11310201124332E20620CC08E3221F426FD6BC1B4
S1131030206406C08C3611F4206802C0883641F45E
S1131040F60193FD859193FF81916F018111C1CFC9
S1131050982F9F7D9554933028F40C5F1F4FFFE326
S1131060F9830DC0833631F0833771F0833509F08D
S11310705BC022C0F801808189830E5F1F4F442426
S11310804394512C540115C03801F2E06F0E711CC9
S1131090F801A080B18026FF03C0652D70E002C076
S11310A06FEF7FEFC5012C870E94E20A2C018301B8
S11310B02C852F77222E17C03801F2E06F0E711C99
S11310C0F801A080B18026FF03C0652D70E002C046
S11310D06FEF7FEFC5012C870E94D00A2C012C856D
S11310E02068222E830123FC1BC0832D90E0481628
S11310F05906B0F4B70180E290E00E94ED0A3A94F8
S1131100F4CFF50127FC859127FE81915F01B7019A
S113111090E00E94ED0A31103A94F1E04F1A510820
S11311204114510471F7E5C0843611F0893639F55C
S1131130F80127FF07C060817181828193810C5F70
S11311401F4F08C060817181882777FD8095982F93
S11311500E5F1F4F2F76B22E97FF09C09095809592
S1131160709561957F4F8F4F9F4F2068B22E2AE074
S113117030E0A4010E941F0BA82EA81844C0853794
S113118029F42F7EB22E2AE030E025C0F22FF97F19
S1131190BF2E8F36C1F018F4883579F0B4C080378B
S11311A019F0883721F0AFC02F2F2061B22EB4FE82
S11311B00DC08B2D8460B82E09C024FF0AC09F2F58
S11311C09660B92E06C028E030E005C020E130E08A
S11311D002C020E132E0F801B7FE07C060817181EE
S11311E0828193810C5F1F4F06C06081718180E012
S11311F090E00E5F1F4FA4010E941F0BA82EA81899
S1131200FB2DFF77BF2EB6FE0BC02B2D2E7FA51412
S113121050F4B4FE0AC0B2FC08C02B2D2E7E05C0CB
S11312207A2C2B2D03C07A2C01C0752C24FF0DC001
S1131230FE01EA0DF11D8081803311F4297E09C07D
S113124022FF06C07394739404C0822F867809F039
S1131250739423FD13C020FF06C05A2C731418F492
S1131260530C5718732C731468F4B70180E290E0A0
S11312702C870E94ED0A73942C85F5CF731410F417
S1131280371801C0312C24FF12C0B70180E390E06D
S11312902C870E94ED0A2C8522FF17C021FF03C072
S11312A088E590E002C088E790E0B7010CC0822F87
S11312B0867859F021FD02C080E201C08BE227FD4F
S11312C08DE2B70190E00E94ED0AA51438F4B7014D
S11312D080E390E00E94ED0A5A94F7CFAA94F401B7
S11312E0EA0DF11D8081B70190E00E94ED0AA11082
S11312F0F5CF332009F451CEB70180E290E00E948B
S1131300ED0A3A94F6CFF7018681978102C08FEFF8
S11313109FEF2C96E2E10C94990B0F931F93CF93BC
S1131320DF93869F8001879F100D969F100D1124D7
S1131330C8010E94A909EC01009729F0A80160E006
S113134070E00E94DB0ACE01DF91CF911F910F91D3
S11313500895CF93DF938230910510F482E090E0FA
S1131360E091E803F091E90320E030E0A0E0B0E090
S1131370309739F14081518148175907B8F048171F
S1131380590771F482819381109729F013969C93E5
S11313908E9312972CC09093E9038093E80327C09F
S11313A02115310531F04217530718F0A901DB016B
S11313B001C0EF019A01BD01DF010280F381E02D3C
S11313C0D7CF21153105F9F0281B390B243031050D
S11313D080F48A819B816115710521F0FB0193835F
S11313E0828304C09093E9038093E803FE0132965C
S11313F044C0FE01E20FF31F8193919322503109FF
S1131400398328833AC02091E6033091E703232BE4
S113141041F420910201309103013093E7032093BA
S1131420E60320910001309101012115310541F4B9
S11314302DB73EB74091040150910501241B350B93
S1131440E091E603F091E703E217F307A0F42E1B03
S11314503F0B2817390778F0AC014E5F5F4F241714
S1131460350748F04E0F5F1F5093E7034093E603A0
S11314708193919302C0E0E0F0E0CF01DF91CF913E
S11314800895CF93DF93009709F487C0FC01329746
S113149013821282C091E803D091E903209781F46A
S11314A020813181280F391F8091E6039091E70351
S11314B08217930779F5F093E703E093E6036DC091
S11314C0DE0120E030E0AE17BF0750F412964D91D4
S11314D05C9113979D014115510509F1DA01F3CF90
S11314E0B383A28340815181840F951F8A179B0780
S11314F071F48D919C911197840F951F029691839D
S1131500808312968D919C911397938382832115E6
S1131510310529F4F093E903E093E8033EC0D901CF
S11315201396FC93EE9312974D915D91A40FB51F02
S1131530EA17FB0779F480819181840F951F029645
S1131540D90111969C938E938281938113969C93D7
S11315508E931297E0E0F0E08A819B81009719F066
S1131560FE01EC01F9CFCE01029628813981820F68
S1131570931F2091E6033091E7032817390769F494
S1131580309729F41092E9031092E80302C0138201
S11315901282D093E703C093E603DF91CF910895BD
S11315A0FC010590615070400110D8F7809590952A
S11315B08E0F9F1F0895DC0101C06D934150504070
S11315C0E0F70895FC016150704001900110D8F7D4
S11315D0809590958E0F9F1F08950F931F93CF931F
S11315E0DF93182F092FEB018B8181FD03C08FEF4F
S11315F09FEF20C082FF10C04E815F812C813D810E
S1131600421753077CF4E881F9819F012F5F3F4F14
S113161039832883108306C0E885F985812F0995CD
S1131620892B29F72E813F812F5F3F4F3F832E83E4
S1131630812F902FDF91CF911F910F910895FA017F
S1131640AA27283051F1203181F1E8946F936E7FFD
S11316506E5F7F4F8F4F9F4FAF4FB1E03ED0B4E0EE
S11316603CD0670F781F891F9A1FA11D680F791F2F
S11316708A1F911DA11D6A0F711D811D911DA11D40
S113168020D009F468943F912AE0269F1124301950
S1131690305D3193DEF6CF010895462F4770405DEB
S11316A04193B3E00FD0C9F7F6CF462F4F70405D9A
S11316B04A3318F0495D31FD4052419302D0A9F7F5
S11316C0EACFB4E0A6959795879577956795BA95EF
S11316D0C9F700976105710508959B01AC010A2EB5
S11316E006945795479537952795BA95C9F7620F8C
S11316F0731F841F951FA01D08952F923F924F9230
S11317005F926F927F928F929F92AF92BF92CF928D
S1131710DF92EF92FF920F931F93CF93DF93CDB796
S1131720DEB7CA1BDB0B0FB6F894DEBF0FBECDBF0E
S113173009942A88398848885F846E847D848C84DF
S11317409B84AA84B984C884DF80EE80FD800C81E8
S11317501B81AA81B981CE0FD11D0FB6F894DEBFCB
S10F17600FBECDBFED010895F894FFCF3B
S113176C0000EA03200041746D6567613136322054
S113177C7374617274002053656E64696E672074AF
S113178C686973206D6573736167652049443A20F9
S113179C25692C20646174613A2025692C206C65C0
S11317AC6E6774682025690A0020202020202020E0
S11317BC203E204D61696E206D656E75203C200ABB
S11317CC00506C61792050696E672D506F6E6720E4
S11317DC67616D65200A4869676873636F72657326
S11317EC200A53657474696E6773200A44726177B6
S11317FC206120646F6F646C65200A004261636B26
S113180C202020203E204E65772067616D65203CAA
S113181C200A00506C61792067616D65200A0042D2
S113182C61636B20202020203E2048696768736325
S113183C6F7265203C200A00506C6179657231200E
S113184C73636F72652E200A506C61796572322055
S113185C73636F72652E200A004261636B20202033
S113186C20203E2053657474696E6773203C200AF3
S113187C00436C656172206869676873636F726595
S113188C200A43616C696272617465206A6F7973B2
S113189C7469636B200A54657374205352414D2050
S11318AC0A43616C696272617465206D6F746F7246
S11318BC20656E636F646572200A0020202020204E
S11318CC202020203E2044726177696E6720626F6D
S11318DC617264203C200A0020202020202020203B
S11318EC203E2043616C696272617465206A6F7971
S11318FC737469636B203C200A0052657365742011
S113190C61786973206F6666736574200A496E6327
S113191C7265617365206E65757472616C207A6F83
S113192C6E65200A4465637265617365206E657526
S113193C7472616C207A6F6E65200A00202020205E
S113194C20202020203E20496E2D67616D65203CAF
S113195C200A000A43757272656E742073636F7289
S113196C653A200A0053656E64696E6720666F6C75
S113197C6C6F77696E67206D657373616765203A68
S113198C0A2049443A202569200A20646174613A8A
S113199C2025690A206C656E67746820256900002F
S9030000FC
