S01D00004279676765726E5F7465726D5F70726F6A5F3136322E7372656310
S11300000C94F6000C94A5040C9433050C94130181
S11300100C9413010C9413010C9413010C9413010C
S11300200C9413010C9413010C9413010C941301FC
S11300300C9413010C9413010C9413010C941301EC
S11300400C9413010C9413010C9413010C941301DC
S11300500C9413010C9413010C9413010C941301CC
S11300600C9413010C9413010C9413010C941301BC
S113007000000000005C00000C000C007C287C28C0
S113008058DC68002410480028542840000C000064
S1130090007884008478000054385400107C1000E8
S11300A080400000101010000040000060100C00A0
S11300B038543800487C40004864580044542C00AC
S11300C01C107C005C5424003854240064140C007C
S11300D068542C0048543800004800008048000050
S11300E0102844002828280044281000045408003C
S11300F038445C00781478007C5428003844280084
S11301007C4438007C5444007C140400384474005B
S11301107C107C00447C440020403C007C106C003B
S11301207C4040007C187C0078103C003844380047
S11301307C1408003844B8007C1468004854240037
S1130140047C04007C407C003C603C007C307C00EF
S11301506C106C000C700C0064544C00007C440067
S11301600C106000447C00000804080080808000BB
S113017000040800304878007C48300030484800CB
S113018030487C00306850001078140090A8780043
S11301907C08700050744000808074007C106800FB
S11301A0447C4000781078007808700030483000B3
S11301B0F82810003048F80078100800505828003B
S11301C0083C4800384078003840380078207800EF
S11301D04830480098A07800486858001078840097
S11301E0007C0000847810000804080411241FBE59
S11301F0CFEFD4E0DEBFCDBF13E0A0E0B1E0E2E595
S1130200F2E102C005900D92A23EB107D9F724E0B5
S1130210A2EEB3E001C01D92A43BB207E1F70E9435
S113022015010C9427090C94000083E086B98FEF24
S11302308ABB1BBA82E087B98FE190E00E94300745
S113024086E091E00E94B0070E9436020E94790481
S11302500E9450040E944A022FE788E391E0215053
S113026080409040E1F700C00000F2CF0E944703B5
S11302704FEF60E680E60E94250340E064E080E6FC
S11302800E94250345E065E08BE20E94250340E0DF
S113029060EE8FE00E94250308959F92AF92BF9273
S11302A0CF92DF92EF92FF920F931F93CF93DF933E
S11302B0CDB7DEB762970FB6F894DEBF0FBECDBFE1
S11302C06C018CE20E94F20280FFFBCF81E60E9467
S11302D0F202982E82E60E94F202990C990C990C73
S11302E0829586958770982A85E60E94F2028F701F
S11302F0A82ED1F08E010D5F1F4FE82EF12CEE0CCD
S1130300FF1CE00EF11E0F2EF6E6BF2EF02D8B2DF6
S11303100E94F202282F30E0F801219331938F01DB
S1130320B394EE15FF0599F7911003C08B81809368
S1130330A30440E061E08CE20E9425031092A4042F
S11303409982AA8282E1FE013196D60101900D9232
S11303508A95E1F7C60162960FB6F894DEBF0FBE28
S1130360CDBFDF91CF911F910F91FF90EF90DF9060
S1130370CF90BF90AF909F9008958F929F92AF922D
S1130380BF92CF92DF92EF92FF920F931F93CF937E
S1130390DF93CDB7DEB7A4970FB6F894DEBF0FBED8
S11303A0CDBF89829A82AB82BC82CD82DE82EF820B
S11303B0F88609871A872B873C874D875E876F8766
S11303C0788B898B9A8BC92C11E00BC080E30E9437
S11303D0F20285FF06C01093A404CE0143960E9446
S11303E04D0180E30E94F20283FDF0CF682D6295F7
S11303F0660F607E82E30E940403682D669566950D
S1130400669581E30E9404036C2D85E30E94040336
S1130410D12C1C141D04A4F47E0183E0E80EF11C0D
S113042000E010E0F7016081F2E0EF0EF11C86E3DA
S1130430800F0E9404030F5F1F4F0C151D0594F3DA
S113044081E00E941803A4960FB6F894DEBF0FBE95
S1130450CDBFDF91CF911F910F91FF90EF90DF906F
S1130460CF90BF90AF909F908F90089583E086B90E
S113047082E087B98FEF8ABB1BBA1092A4040E9452
S11304804C030E9436010E9404070E9463020E94EA
S1130490530308950E9479048091880490918904FB
S11304A08453944079F40E94FB0687EA91E601970D
S11304B0F1F700C00000809188049091890484536E
S11304C0944089F3089585E0809300148DE08A9523
S11304D0F1F70000E0E0F4E1808190E09093A6045D
S11304E08093A50484E080838DE08A95F1F7000071
S11304F08091001490E09093A8048093A704089539
S113050084E0809300148DE08A95F1F70000E0E028
S1130510F4E1208130E08091A7049091A804281B85
S1130520390B43E6429FC001439F900D11246FE7AE
S113053070E00E943D0770935F0460935E0485E061
S113054080838DE08A95F1F700002091001430E05B
S11305508091A5049091A604281B390B429FC001E9
S1130560439F900D11246FE770E00E943D07709344
S11305705D0460935C04089580915C0490915D0433
S113058020915E0430915F04BC01992324F4662712
S11305907727681B790BA901332324F444275527B3
S11305A0421B530B461757077CF49C012C5E3F4FAC
S11305B02932310520F0449724F082E003C080E022
S11305C001C081E090E00895C9014496899728F01C
S11305D02431310524F083E003C080E001C084E0CD
S11305E090E00895CF93C82F0E94260783E00E94CD
S11305F019078C2F0E9419070E941D07C82F0E94FB
S113060024078C2FCF910895CF93DF93D82FC62F33
S11306100E94260782E00E9419078D2F0E94190765
S11306208C2F0E9419070E942407DF91CF9108950F
S1130630CF93C82F0E9426078C2F877080580E9462
S113064019070E942407CF9108951F93CF93DF9336
S1130650182FD62FC42F0E94260785E00E94190761
S1130660812F0E9419078D2F0E9419078C2F0E9439
S113067019070E942407DF91CF911F9108950E94CA
S1130680260780EC0E9419070E94240708950E94FF
S113069010070E943F03089585B7806885BF80B71F
S11306A0806280BF08950E94E30586E191E0909303
S11306B0310480933004E0E2F4E0F183E083E2E289
S11306C0F4E080E394E011921192E817F907D9F766
S11306D08CE094E09093230480932204E0E6F4E019
S11306E0F0932504E093240484EE93E0909327048C
S11306F08093260484E394E090932904809328044F
S113070084E794E090932B0480932A048AE894E08D
S113071090932D0480932C048EE291E09093330403
S1130720809332048FE691E0909371048093700477
S113073080E294E091838083E2E6F4E080E794E051
S113074011921192E817F907D9F788E891E090938C
S113075073048093720489EA91E09093F503809383
S1130760F40380E294E09093E5038093E403E6EEDF
S1130770F3E084EF93E011921192E817F907D9F7A7
S113078081EC91E09093F7038093F6038BE092E081
S1130790909345048093440480E294E0909335045C
S11307A080933404E6E3F4E084E494E0119211923B
S11307B0E817F907D9F788E292E0909359048093F7
S11307C0580484EE93E09093490480934804EAE447
S11307D0F4E088E594E011921192E817F907D9F74B
S11307E08BE492E090935B0480935A048DE892E04A
S11307F090931D0480931C0480E294E090930D0474
S113080080930C04EEE0F4E08CE194E011921192F8
S1130810E817F907D9F784EA92E090931F048093CC
S11308201E0486EB92E090939B0480939A0480E2EA
S113083094E090938B0480938A04ECE8F4E08AE9D2
S113084094E011921192E817F907D9F781ED92E03B
S113085090939D0480939C0489E393E09093850492
S11308608093840480E294E09093750480937404EC
S1130870E6E7F4E084E894E011921192E817F907AE
S1130880D9F78DE493E0909387048093860480E203
S113089094E090938904809388041092A9040895A5
S11308A00E94A1050E9480020E94BC020097E1F010
S11308B08330910579F48091A90490E001978770C1
S11308C09078992324F40197886F9F6F0196809301
S11308D0A9040AC0049741F48091A90490E0019608
S11308E0877090788093A9048091A9040E94A0063F
S11308F008950E94D405E0918804F091890462E08F
S1130900808991890E941506E0918804F0918904F8
S113091062E0828993890E941506809188049091EF
S1130920890421E034E08433930709F420E02111A1
S113093007C021E08C50944009F420E0222321F0E8
S11309408091A9040E94A00608951F920F920FB6E9
S11309500F9211248F929F92AF92BF92CF92DF9207
S1130960EF92FF920F931F932F933F934F935F93B5
S11309706F937F938F939F93AF93BF93EF93FF9363
S1130980CF93DF93CDB7DEB76297DEBFCDBF8DECDB
S113099093E00E94B007E0918804F091890484E018
S11309A0EC30F807D1F41C821B826894882481F807
S11309B099249394A12CBC80CD80DE80EF80F884B0
S11309C009851A852B853C854D855E856F857889DB
S11309D089899A890E94BD0123C084E0E433F80721
S11309E019F40E94D4051CC08091A904811107C088
S11309F08081918190938904809388040DC090E054
S1130A00880F991FE80FF91F80819181009721F0C9
S1130A1090938904809388041092A9040E94790415
S1130A2062960FB6F894DEBF0FBECDBFDF91CF91B3
S1130A30FF91EF91BF91AF919F918F917F916F91B2
S1130A405F914F913F912F911F910F91FF90EF90E4
S1130A50DF90CF90BF90AF909F908F900F900FBE7C
S1130A600F901F9018951F920F920FB60F9211249A
S1130A702F933F934F935F936F937F938F939F93A2
S1130A80AF93BF93EF93FF938DEC93E00E94B00775
S1130A90E0918804F0918904808191819093890484
S1130AA0809388040E947904FF91EF91BF91AF91E4
S1130AB09F918F917F916F915F914F913F912F9172
S1130AC00F900FBE0F901F90189580E790E09093C1
S1130AD0A2048093A10484E080939E0486E0809322
S1130AE09F0480E28093A004089587708093E203BA
S1130AF0805580930010089590919E04899F902DB5
S1130B001124292F2F70E0E0F0E1208392959F704B
S1130B10905F90838093E303089580E00E947505BD
S1130B2080E00E947C050895982F9F70E0E0F0E13A
S1130B309083982F92959F70905F90838093E303A6
S1130B400895DF92EF92FF920F931F93CF93DF9359
S1130B50D090E203E090E30300E0F12CC0E0D2E1A6
S1130B60802F0E9475051F2D812F0E9494051882E5
S1130B701F5F1830C9F70F5F083091F7D092E20376
S1130B80E092E303DF91CF911F910F91FF90EF90DB
S1130B90DF9008950E94750580E0E0E0F2E11082A4
S1130BA08F5F8038E1F70895CF9380E4809300103D
S1130BB0C0E08C2F0E94CA05CF5FC830D1F70E94D5
S1130BC08D05CF910895E0E0F0E18EEA808381EA1B
S1130BD080838AED808382E1808388EC808388EA45
S1130BE080838FE3808385ED808380E8808381E840
S1130BF0808380E5808389ED808381E2808380E245
S1130C00808382E080838BED808380E380838DEA20
S1130C108083108284EA808386EA80838FEA8083DB
S1130C200E94D4050E94650508953F924F925F92F9
S1130C306F927F928F929F92AF92BF92CF92DF92E8
S1130C40EF92FF920F931F93CF93DF93EC01362E15
S1130C50862F0E947C05FE0101900020E9F7319760
S1130C603F016C1A7D0A161417040CF057C04E018C
S1130C70A12CB12CCEE9D4E0512C412C0F2EF1EA59
S1130C80CF2EF4E0DF2EF02D0F2EF0EAEF2EF4E05D
S1130C90FF2EF02D00E012E1D4014D914D014A30B8
S1130CA031F0288130E0121613066CF030C08091C8
S1130CB0E20390E00196877090780E947505832D79
S1130CC00E947C0524C0852D942D50E0F70160819D
S1130CD0DA01A61BB1092A9FF0012B9FF00D3A9F60
S1130CE0F00D1124E80FF91FD6012D913C91E20F6C
S1130CF0F31FE491D801EC933091E3032881320F80
S1130D003093E303019630E082179307FCF2BFEFC0
S1130D10AB1ABB0A6A147B0409F0BECFDF91CF91F2
S1130D201F910F91FF90EF90DF90CF90BF90AF9005
S1130D309F908F907F906F905F904F903F90089519
S1130D40CF93C091E2030E94750581E00E9494054F
S1130D50E0E0F2E198E1908390838EE780838CE376
S1130D608083908388E08093E3038C2F0E94750531
S1130D70CF910895CF93C62F0E9475058C2F0E94A2
S1130D809405E0E0F2E18FEF8083808380838083A9
S1130D90CF9108950E94800280915C0490915D043B
S1130DA09C012C5E3F4F2932310568F0449734F0A2
S1130DB08091E3038F5F0E94940505C08091E30353
S1130DC081500E94940580915E0490915F049C017F
S1130DD02C5E3F4F2932310568F0449734F08091FE
S1130DE0E20381500E94750508958091E2038F5FAC
S1130DF00E94750508950E94CA066091E3038091DC
S1130E00E2030E94BA06089581B3837F81BBF894FC
S1130E1085B78A6085BF8BB7806C8BBF7894089543
S1130E2087B3806B87BBBE98C69A8DB181658DB937
S1130E3008958FB9779BFECF08958FEF0E9419070D
S1130E40779BFECF8FB10895C49A0895C4980895EE
S1130E505D9BFECF8CB908955F9BFECF8CB1089546
S1130E6090BD89B988E18AB98EE880BD6CE277E0EB
S1130E7088E297E00E946507089597FB072E16F411
S1130E80009407D077FD09D00E94510707FC05D0D4
S1130E903EF4909581959F4F0895709561957F4F8D
S1130EA00895AA1BBB1B51E107C0AA1FBB1FA617AD
S1130EB0B70710F0A61BB70B881F991F5A95A9F7FF
S1130EC080959095BC01CD0108950F931F93CF9306
S1130ED0DF93EC018B01009731F46115710519F46E
S1130EE080E090E038C06EE070E081E090E00E9425
S1130EF0DD07FC010097A1F380E883830115110548
S1130F0071F01387028781E883838091AA0490910A
S1130F10AB04892B21F4F093AB04E093AA0420974B
S1130F20C9F0D187C0878381826083838091AC04B8
S1130F309091AD04892B71F4F093AD04E093AC046B
S1130F408091AE049091AF04892B21F4F093AF0407
S1130F50E093AE04CF01DF91CF911F910F910895DB
S1130F600F931F93CF93DF93E091AC04F091AD0402
S1130F70238121FF1BC0EC0100E010E08991609106
S1130F80AC047091AD04DB011896ED91FC911997B6
S1130F90882331F00995892B89F30FEF1FEFEECFEA
S1130FA08AE00995892B11F4C80102C08FEF9FEFE5
S1130FB0DF91CF911F910F9108950F931F93CF93BA
S1130FC0DF93869F8001879F100D969F100D11243B
S1130FD0C8010E94F907EC01009729F0A80160E01C
S1130FE070E00E942009CE01DF91CF911F910F91F3
S1130FF00895CF93DF938230910510F482E090E05E
S1131000E091B204F091B30420E030E0A0E0B0E05D
S1131010309739F14081518148175907B8F0481782
S1131020590771F482819381109729F013969C9348
S11310308E9312972CC09093B3048093B20427C06C
S11310402115310531F04217530718F0A901DB01CE
S113105001C0EF019A01BD01DF010280F381E02D9F
S1131060D7CF21153105F9F0281B390B2430310570
S113107080F48A819B816115710521F0FB019383C2
S1131080828304C09093B3048093B204FE01329629
S113109044C0FE01E20FF31F819391932250310962
S11310A0398328833AC02091B0043091B104232BB2
S11310B041F420910201309103013093B104209353
S11310C0B00420910001309101012115310541F452
S11310D02DB73EB74091040150910501241B350BF7
S11310E0E091B004F091B104E217F307A0F42E1BD1
S11310F03F0B2817390778F0AC014E5F5F4F241778
S1131100350748F04E0F5F1F5093B1044093B0046D
S11311108193919302C0E0E0F0E0CF01DF91CF91A1
S11311200895CF93DF93009709F487C0FC013297A9
S113113013821282C091B204D091B304209781F437
S113114020813181280F391F8091B0049091B1041E
S11311508217930779F5F093B104E093B0046DC05E
S1131160DE0120E030E0AE17BF0750F412964D9137
S11311705C9113979D014115510509F1DA01F3CFF3
S1131180B383A28340815181840F951F8A179B07E3
S113119071F48D919C911197840F951F0296918300
S11311A0808312968D919C9113979383828321154A
S11311B0310529F4F093B304E093B2043EC0D9019D
S11311C01396FC93EE9312974D915D91A40FB51F66
S11311D0EA17FB0779F480819181840F951F0296A9
S11311E0D90111969C938E938281938113969C933B
S11311F08E931297E0E0F0E08A819B81009719F0CA
S1131200FE01EC01F9CFCE01029628813981820FCB
S1131210931F2091B0043091B1042817390769F461
S1131220309729F41092B3041092B20402C01382CE
S11312301282D093B104C093B004DF91CF9108958A
S1131240DC0101C06D9341505040E0F70895F894DB
S1051250FFCFCA
S11312520000B404200041746D65676131363220A8
S113126273746172740020202020202020203E20EC
S11312724D61696E206D656E75203C200A00506CCC
S113128261792050696E672D506F6E672067616DBA
S113129265200A4869676873636F726573200A532D
S11312A2657474696E6773200A44726177206120E1
S11312B2646F6F646C65200A496E666F200A00428F
S11312C261636B20202020203E2048696768736395
S11312D26F7265203C200A00506C6179657231207E
S11312E273636F72652E200A506C617965723220C5
S11312F273636F72652E200A004261636B202020A3
S113130220203E2053657474696E6773203C200A62
S113131200436C656172206869676873636F726504
S1131322200A43616C696272617465206A6F797321
S11313327469636B200A54657374205352414D20BF
S11313420A43616C696272617465206D6F746F72B5
S113135220656E636F646572200A002020202020BD
S1131362202020203E2044726177696E6720626FDC
S1131372617264203C200A004261636B20202020B9
S113138220203E2043616C696272617465206A6F39
S113139279737469636B203C200A00526573657427
S11313A22061786973206F6666736574200A496EDA
S11313B2637265617365206E65757472616C207AFF
S11313C26F6E65200A4465637265617365206E659C
S11313D2757472616C207A6F6E65200A0020202079
S11313E22020202020203E20496E2D67616D65203B
S11313F23C200A000A43757272656E742073636F2F
S113140272653A200A004261636B20202020203E4C
S113141220486F7720746F20706C6179203C200A19
S113142200557365206A6F79737469636B20746FF6
S113143220636F6E74726F6C206D6F746F722E20E6
S11314420A557365206C65667420627574746F6ED8
S113145220746F2070757368207468652062616CF3
S11314626C2E200A557365206C65667420736C6952
S113147264657220746F20636F6E74726F6C207374
S11314826572766F2E200A0A004261636B20202067
S113149220203E20496E666F203C200A002A5573A4
S11314A265206A6F79737469636B2075702F646F3A
S11314B2776E20746F0A206E617669676174652E97
S11314C2200A2A557365206C6566742062757474EB
S11314D26F6E20746F2073656C6563742E200A2A04
S11314E255736520726967687420627574746F6ECF
S11314F220746F2072657475726E0A20746F207086
S1131502726576696F7573206D656E7520617420DE
S1131512616E790A2074696D652E200A0042757421
S1131522746F6E20696E746572727570742E002504
S105153269004A
S9030000FC
