S01D00004279676765726E5F7465726D5F70726F6A5F3136322E7372656310
S11300000C94F6000C944D050C94DF040C9413012D
S11300100C9413010C9413010C9413010C9413010C
S11300200C9413010C9413010C9413010C941301FC
S11300300C9413010C9413010C9413010C941301EC
S11300400C9413010C9413010C9413010C941301DC
S11300500C9413010C9413010C9413010C941301CC
S11300600C9413010C9413010C9413010C941301BC
S113007000000000005C00000C000C007C287C28C0
S113008058DC68002410480028542840000C000064
S1130090007884008478000054385400107C1000E8
S11300A080400000101010000040000060100C00A0
S11300B038543800487C40004864580044542C00AC
S11300C01C107C005C5424003854240064140C007C
S11300D068542C0048543800004800008048000050
S11300E0102844002828280044281000045408003C
S11300F038445C00781478007C5428003844280084
S11301007C4438007C5444007C140400384474005B
S11301107C107C00447C440020403C007C106C003B
S11301207C4040007C187C0078103C003844380047
S11301307C1408003844B8007C1468004854240037
S1130140047C04007C407C003C603C007C307C00EF
S11301506C106C000C700C0064544C00007C440067
S11301600C106000447C00000804080080808000BB
S113017000040800304878007C48300030484800CB
S113018030487C00306850001078140090A8780043
S11301907C08700050744000808074007C106800FB
S11301A0447C4000781078007808700030483000B3
S11301B0F82810003048F80078100800505828003B
S11301C0083C4800384078003840380078207800EF
S11301D04830480098A07800486858001078840097
S11301E0007C0000847810000804080411241FBE59
S11301F0CFEFD4E0DEBFCDBF11E0A0E0B1E0E0EB93
S1130200F8E102C005900D92A83FB107D9F722E0AA
S1130210A8EFB1E001C01D92AF35B207E1F70E942B
S113022015010C94560C0C940000CF93DF93CDB7BA
S1130230DEB7A4970FB6F894DEBF0FBECDBF13E0B0
S113024016B98FEF8ABB1BBA82E087B98FE190E0C1
S11302500E948E0786E091E00E940E080E948107AA
S11302600E9411040E94E8010E9448070E94310381
S11302700E9491020E9413048BE0898384E08A83A4
S11302801B8B8C8B10922F021A8619861E8A1D8A4C
S1130290188E1F8A1A8E198E0E94B304D12C68946A
S11302A0BB24B7F80EE112E0EE24E394F12C86E1CE
S11302B091E00E940E081C821B821E821D821886F9
S11302C01F820E944203209130023091310281E06A
S11302D02A3F3807F1F5F8018081992787FD909529
S11302E09C838B8386E00E945407C82E282F3327D3
S11302F027FD30954B2D552747FD5095CA0105968E
S11303002817390744F445505109421753072CF470
S1130310CB2C20E003C02C2D01C02C2D332727FD2E
S113032030953E832D8380912E02813021F4F8860E
S1130330EF8210922E022B8D3C8D21153105E1F1B7
S1130340C9018D0D911DD82E99270E941605BC2C2C
S113035034C080912F02813039F48D2D0E949E0289
S113036010922F02D12C29C0F2E022323F0761F40F
S11303700E94D0022FE788E391E021508040904012
S1130380E1F700C0000019C02251324049F40E9434
S11303903F078FE493EC0197F1F700C000000DC014
S11303A00E948C049FE7E8E3F1E09150E040F040C4
S11303B0E1F700C0000001C0BC2CCE0101960E94F0
S11303C0FF011C8E1B8ECE0143960E9446026FCF06
S11303D00E9405044FEF60E680E60E94E30340E0DC
S11303E064E080E60E94E30345E065E08BE20E945E
S11303F0E30340E060EE8FE00E94E3030895EF9290
S1130400FF920F931F93CF93DF937C0103C080E38C
S11304100E94B00380E30E94B00383FDF8CFF7018C
S113042060816295660F607E82E30E94C203F701D9
S1130430608166956695669581E30E94C203F70123
S1130440618185E30E94C203F70181818823A1F0C1
S113045087010E5F1F4FC0E0D0E0F80160810E5F9E
S11304601F4F8C2F8A5C0E94C2032196F7012181C1
S113047030E0C217D3078CF381E00E94D603DF91EA
S1130480CF911F910F91FF90EF900895EF92FF92FB
S11304900F931F93CF93DF937C01FC01138212828D
S11304A0108211828CE20E94B00380FFFBCF81E6B0
S11304B00E94B003C82F82E60E94B003CC0FCC0F79
S11304C0CC0F829586958770C82BF701C08385E68B
S11304D00E94B0038F70F70181838823B1F08701F4
S11304E00E5F1F4FC0E0D0E08C2F8A590E94B003EA
S11304F0282F30E0F801219331938F012196F701E1
S1130500218130E0C217D3077CF340E061E08CE244
S11305100E94E303DF91CF911F910F91FF90EF9021
S11305200895109238021092390210923A021092F1
S11305303B0210923C0210923D020895482F552729
S113054047FD509560913802262F30E02417350777
S11305505CF0A9E3B2E0E1E0F0E06D91262F30E039
S11305602417350764F402C0E0E0F0E0DF01A85C82
S1130570BD4F8C933196E630F10534F008953196F1
S1130580E630F10551F70895E85CFD4F8EE392E003
S113059020816193E817F90711F0622FF9CF0895CC
S11305A0AF92BF92CF92DF92EF92FF920F931F937D
S11305B0CF93DF93CDB7DEB727970FB6F894DEBF9E
S11305C00FBECDBF0E94180680E00E94B90562E00C
S11305D082E291E00E9459060F2EF8E3EF2EF2E03A
S11305E0FF2EF02D0F2EFEE3AF2EF2E0BF2EF02DE6
S11305F00F2EFBE3CF2EF1E0DF2EF02D8E010F5FE7
S11306001F4FF70181917F011F928F93DF92CF9249
S11306101F930F930E943B0862E0C8010E94590691
S11306200F900F900F900F900F900F90EA14FB040F
S113063041F727960FB6F894DEBF0FBECDBFDF910A
S1130640CF911F910F91FF90EF90DF90CF90BF90CB
S1130650AF90089580930014B399FECF8091001455
S1130660089584E00E942A0390E090933F028093CF
S11306703E0285E00E942A0390E090934102809319
S1130680400208951F93CF93DF9384E00E942A03CE
S1130690282F30E040913E0250913F02241B350B3D
S11306A013E6129FC001139F900D1124CFE7D0E0F1
S11306B0BE010E949B0770931F0260931E0285E097
S11306C00E942A03282F30E04091400250914102B9
S11306D0241B350B129FC001139F900D1124BE01E2
S11306E00E949B077093210260932002DF91CF91B7
S11306F01F91089580911E0290911F022091200263
S113070030912102BC01992324F466277727681BC2
S1130710790BA901332324F444275527421B530B97
S1130720461757077CF49C012C5E3F4F2932310554
S113073020F0449724F082E003C080E001C081E00F
S113074090E00895C9014496899728F02431310531
S113075024F083E003C080E001C084E090E00895C9
S1130760CF93C82F0E94710783E00E9464078C2FE7
S11307700E9464070E946807C82F0E946F078C2F8D
S1130780CF910895CF93DF93D82FC62F0E9471077E
S113079082E00E9464078D2F0E9464078C2F0E94C0
S11307A064070E946F07DF91CF910895CF93C82FFC
S11307B00E9471078C2F877080580E9464070E94E2
S11307C06F07CF9108951F93CF93DF93182FD62FE0
S11307D0C42F0E94710785E00E946407812F0E9444
S11307E064078D2F0E9464078C2F0E9464070E9467
S11307F06F07DF91CF911F9108950E94710780ECDC
S11308000E9464070E946F0708950E945B070E947C
S1130810FD03089585B7806885BF80B7806280BF77
S11308200895BB980895CF93DF930E9427068FE322
S113083091E090930F0280930E02E6E0F2E0F183E0
S1130840E0834AEF51E0509309024093080282E2A8
S113085092E090930B0280930A02C2E1D2E0D0931B
S11308600D02C0930C0227E531E03093110220936E
S1130870100222E231E030932B0220932A02DC01A1
S1130880ED93FC93109225021092240210922702F9
S113089010922602109229021092280286EF91E00B
S11308A090932D0280932C0288E891E090931B0290
S11308B080931A02F983E8831092150210921402AD
S11308C01092170210921602109219021092180236
S11308D085EA91E09093030280930202DA01ED939A
S11308E0FC931092FD011092FC011092FF011092F2
S11308F0FE0110920102109200028CEB91E09093A1
S1130900050280930402F0933102E09330021092C6
S11309104202DF91CF9108950E94E5050E947A0377
S11309200097E1F08330910579F48091420290E0E0
S1130930019787709078992324F40197886F9F6FAB
S11309400196809342020AC0049741F480914202C6
S113095090E00196877090788093420280914202E1
S11309600E94E40608950E941806E0913002F09176
S1130970310262E0808591850E945906E09130023F
S1130980F091310262E0828593850E94590680913C
S113099030029091310221E032E08231930709F470
S11309A020E0211107C021E08A5F914009F420E092
S11309B0222321F0809142020E94E40608951F92AE
S11309C00F920FB60F9211242F933F934F935F937F
S11309D06F937F938F939F93AF93BF93EF93FF9303
S11309E0E0913002F091310281E0EA3FF80719F416
S11309F081E080932F0280819181909331028093D2
S1130A0030020E9418060E94B304FF91EF91BF9137
S1130A10AF919F918F917F916F915F914F913F9192
S1130A202F910F900FBE0F901F9018950F931F9347
S1130A30CF93DF93CDB7DEB72A970FB6F894DEBF16
S1130A400FBECDBF182F80E00E94B9051F921F93DF
S1130A508EEC91E09F938F938E010F5F1F4F1F9336
S1130A600F930E943B0862E081ED91E00E945906D9
S1130A7064E1C8010E9459060F900F900F900F90E7
S1130A800F900F902A960FB6F894DEBF0FBECDBF1D
S1130A90DF91CF911F910F9108951F920F920FB67E
S1130AA00F9211242F933F934F935F936F937F93F0
S1130AB08F939F93AF93BF93EF93FF93E091300293
S1130AC0F091310221E0EA3FF20721F481E08093C2
S1130AD02E022EC082E0E231F80719F40E941806B3
S1130AE027C080914202811107C080819181909337
S1130AF03102809330020DC090E0880F991FE80FF7
S1130B00F91F80819181009721F0909331028093A5
S1130B103002109242020E94B304809130029091FC
S1130B2031028A5F914021F480E090E00E94160532
S1130B30FF91EF91BF91AF919F918F917F916F91B1
S1130B405F914F913F912F910F900FBE0F901F9087
S1130B50189580E790E0909336028093350284E004
S1130B608093320286E08093330280E280933402E1
S1130B70089587708093F80180558093001008953C
S1130B8090913202899F902D1124292F2F70E0E03B
S1130B90F0E1208392959F70905F90838093F90198
S1130BA0089580E00E94B90580E00E94C005089580
S1130BB0982F9F70E0E0F0E19083982F92959F70BA
S1130BC0905F90838093F9010895DF92EF92FF92F2
S1130BD00F931F93CF93DF93D090F801E090F90126
S1130BE000E0F12CC0E0D2E1802F0E94B9051F2D56
S1130BF0812F0E94D80518821F5F1830C9F70F5F34
S1130C00083091F7D092F801E092F901DF91CF9189
S1130C101F910F91FF90EF90DF9008950E94B90506
S1130C2080E0E0E0F2E110828F5F8038E1F7089520
S1130C30CF9380E480930010C0E08C2F0E940E06B6
S1130C40CF5FC830D1F70E94D105CF910895E0E07D
S1130C50F0E18EEA808381EA80838AED808382E1F9
S1130C60808388EC808388EA80838FE3808385EDAA
S1130C70808380E8808381E8808380E5808389EDB8
S1130C80808381E2808380E2808382E080838BEDB5
S1130C90808380E380838DEA8083108284EA80836A
S1130CA086EA80838FEA80830E9418060E94A90541
S1130CB008953F924F925F926F927F928F929F928C
S1130CC0AF92BF92CF92DF92EF92FF920F931F9356
S1130CD0CF93DF93EC01362E862F0E94C005FE01D0
S1130CE001900020E9F731973F016C1A7D0A161430
S1130CF017040CF057C04E01A12CB12CC2E3D2E072
S1130D00512C412C0F2EF5E3CF2EF2E0DF2EF02DE7
S1130D100F2EF4E3EF2EF2E0FF2EF02D00E012E1AF
S1130D20D4014D914D014A3031F0288130E0121642
S1130D3013066CF030C08091F80190E00196877042
S1130D4090780E94B905832D0E94C00524C0852D8A
S1130D50942D50E0F7016081DA01A61BB1092A9FA6
S1130D60F0012B9FF00D3A9FF00D1124E80FF91FAD
S1130D70D6012D913C91E20FF31FE491D801EC933D
S1130D803091F9012881320F3093F901019630E056
S1130D9082179307FCF2BFEFAB1ABB0A6A147B04F9
S1130DA009F0BECFDF91CF911F910F91FF90EF908B
S1130DB0DF90CF90BF90AF909F908F907F906F9077
S1130DC05F904F903F900895CF93C091F8010E9497
S1130DD0B90581E00E94D805E0E0F2E198E1908352
S1130DE090838EE780838CE38083908388E0809374
S1130DF0F9018C2F0E94B905CF910895CF93C62F86
S1130E000E94B9058C2F0E94D805E0E0F2E18FEF33
S1130E108083808380838083CF9108950E944203DE
S1130E2080911E0290911F029C012C5E3F4F29323B
S1130E30310568F0449734F08091F9018F5F0E9486
S1130E40D80505C08091F90181500E94D805809190
S1130E502002909121029C012C5E3F4F29323105E2
S1130E6068F0449734F08091F80181500E94B905EC
S1130E7008958091F8018F5F0E94B90508950E943A
S1130E800E076091F9018091F8010E94FE06089511
S1130E9081B3837F81BBF89485B78A6085BF8BB7A4
S1130EA0806C8BBF7894089580930014B399FECF1F
S1130EB080910014089587B3806B87BBBE98C69A4F
S1130EC08DB181658DB908958FB9779BFECF089553
S1130ED08FEF0E946407779BFECF8FB10895C49A69
S1130EE00895C498089520E030E080E090E0F9018E
S1130EF0F85E108201969C01811548E09407B9F7C9
S1130F0008950E940A040E94730708955D9BFECF12
S1130F108CB908955F9BFECF8CB1089590BD89B9BB
S1130F2088E18AB98EE880BD6AE877E086E897E0D0
S1130F300E94C307089597FB072E16F4009407D068
S1130F4077FD09D00E94AF0707FC05D03EF49095C9
S1130F5081959F4F0895709561957F4F0895AA1BC1
S1130F60BB1B51E107C0AA1FBB1FA617B70710F090
S1130F70A61BB70B881F991F5A95A9F780959095C2
S1130F80BC01CD0108950F931F93CF93DF93EC0120
S1130F908B01009731F46115710519F480E090E03C
S1130FA038C06EE070E081E090E00E942F0AFC01FE
S1130FB00097A1F380E883830115110571F013876D
S1130FC0028781E883838091550290915602892B90
S1130FD021F4F0935602E09355022097C9F0D1878B
S1130FE0C0878381826083838091570290915802E5
S1130FF0892B71F4F0935802E093570280915902BF
S113100090915A02892B21F4F0935A02E0935902E9
S1131010CF01DF91CF911F910F9108950F931F93EB
S1131020CF93DF93E0915702F0915802238121FF7F
S11310301BC0EC0100E010E08991609157027091AF
S11310405802DB011896ED91FC911997882331F031
S11310500995892B89F30FEF1FEFEECF8AE00995ED
S1131060892B11F4C80102C08FEF9FEFDF91CF915C
S11310701F910F910895AEE0B0E0E1E4F8E00C9424
S11310802D0C0D891E8986E08C831A8309838FEFCA
S11310909FE79E838D83AE01475E5F4F6F89788D96
S11310A0CE0101960E945D08EF81F885E00FF11FE3
S11310B010822E96E4E00C94490CACE0B0E0E3E638
S11310C0F8E00C941F0C7C016B018A01FC0117826F
S11310D01682838181FFBDC1CE0101964C01F701C7
S11310E09381F60193FD859193FF81916F0188238C
S11310F009F4ABC1853239F493FD859193FF819155
S11311006F01853229F4B70190E00E948F0BE7CF7D
S1131110512C312C20E02032A0F48B3269F030F4D1
S1131120803259F0833269F420612CC08D3239F059
S1131130803339F4216026C02260246023C02860F3
S113114021C027FD27C030ED380F3A3078F426FF50
S113115006C0FAE05F9E300D1124532E13C08AE0BE
S1131160389E300D1124332E20620CC08E3221F4AF
S113117026FD6BC1206406C08C3611F4206802C0C1
S1131180883641F4F60193FD859193FF81916F01B7
S11311908111C1CF982F9F7D9554933028F40C5F13
S11311A01F4FFFE3F9830DC0833631F0833771F0AD
S11311B0833509F05BC022C0F801808189830E5F0A
S11311C01F4F44244394512C540115C03801F2E0BC
S11311D06F0E711CF801A080B18026FF03C0652D3D
S11311E070E002C06FEF7FEFC5012C870E94840B73
S11311F02C0183012C852F77222E17C03801F2E0B1
S11312006F0E711CF801A080B18026FF03C0652D0C
S113121070E002C06FEF7FEFC5012C870E94720B54
S11312202C012C852068222E830123FC1BC0832DD6
S113123090E048165906B0F4B70180E290E00E94AD
S11312408F0B3A94F4CFF50127FC859127FE819109
S11312505F01B70190E00E948F0B31103A94F1E0E6
S11312604F1A51084114510471F7E5C0843611F046
S1131270893639F5F80127FF07C0608171818281C1
S113128093810C5F1F4F08C060817181882777FDAF
S11312908095982F0E5F1F4F2F76B22E97FF09C0AF
S11312A090958095709561957F4F8F4F9F4F2068E3
S11312B0B22E2AE030E0A4010E94C10BA82EA81887
S11312C044C0853729F42F7EB22E2AE030E025C0B1
S11312D0F22FF97FBF2E8F36C1F018F4883579F0DC
S11312E0B4C0803719F0883721F0AFC02F2F2061A8
S11312F0B22EB4FE0DC08B2D8460B82E09C024FF1D
S11313000AC09F2F9660B92E06C028E030E005C0C1
S113131020E130E002C020E132E0F801B7FE07C06E
S113132060817181828193810C5F1F4F06C060814F
S1131330718180E090E00E5F1F4FA4010E94C10BF9
S1131340A82EA818FB2DFF77BF2EB6FE0BC02B2DA1
S11313502E7FA51450F4B4FE0AC0B2FC08C02B2D95
S11313602E7E05C07A2C2B2D03C07A2C01C0752C3F
S113137024FF0DC0FE01EA0DF11D8081803311F4BC
S1131380297E09C022FF06C07394739404C0822F7F
S1131390867809F0739423FD13C020FF06C05A2CED
S11313A0731418F4530C5718732C731468F4B7019E
S11313B080E290E02C870E948F0B73942C85F5CFEC
S11313C0731410F4371801C0312C24FF12C0B70174
S11313D080E390E02C870E948F0B2C8522FF17C09E
S11313E021FF03C088E590E002C088E790E0B701E0
S11313F00CC0822F867859F021FD02C080E201C022
S11314008BE227FD8DE2B70190E00E948F0BA514BB
S113141038F4B70180E390E00E948F0B5A94F7CF21
S1131420AA94F401EA0DF11D8081B70190E00E94B5
S11314308F0BA110F5CF332009F451CEB70180E210
S113144090E00E948F0B3A94F6CFF7018681978142
S113145002C08FEF9FEF2C96E2E10C943B0C0F93AC
S11314601F93CF93DF93869F8001879F100D969FD4
S1131470100D1124C8010E944B0AEC01009729F0B9
S1131480A80160E070E00E947D0BCE01DF91CF9156
S11314901F910F910895CF93DF938230910510F43B
S11314A082E090E0E0915D02F0915E0220E030E0A5
S11314B0A0E0B0E0309739F14081518148175907D5
S11314C0B8F04817590771F482819381109729F075
S11314D013969C938E9312972CC090935E028093E4
S11314E05D0227C02115310531F04217530718F06A
S11314F0A901DB0101C0EF019A01BD01DF010280F6
S1131500F381E02DD7CF21153105F9F0281B390BD4
S11315102430310580F48A819B816115710521F0A5
S1131520FB019383828304C090935E0280935D02E7
S1131530FE01329644C0FE01E20FF31F81939193A2
S113154022503109398328833AC020915B023091BB
S11315505C02232B41F4209102013091030130936A
S11315605C0220935B02209100013091010121155E
S1131570310541F42DB73EB7409104015091050166
S1131580241B350BE0915B02F0915C02E217F30738
S1131590A0F42E1B3F0B2817390778F0AC014E5FDF
S11315A05F4F2417350748F04E0F5F1F50935C02BE
S11315B040935B028193919302C0E0E0F0E0CF019D
S11315C0DF91CF910895CF93DF93009709F487C0FB
S11315D0FC01329713821282C0915D02D0915E02A7
S11315E0209781F420813181280F391F80915B027B
S11315F090915C028217930779F5F0935C02E09373
S11316005B026DC0DE0120E030E0AE17BF0750F48E
S113161012964D915C9113979D014115510509F165
S1131620DA01F3CFB383A28340815181840F951FE4
S11316308A179B0771F48D919C911197840F951FC4
S113164002969183808312968D919C911397938334
S113165082832115310529F4F0935E02E0935D0243
S11316603EC0D9011396FC93EE9312974D915D9170
S1131670A40FB51FEA17FB0779F480819181840FC9
S1131680951F0296D90111969C938E938281938122
S113169013969C938E931297E0E0F0E08A819B81ED
S11316A0009719F0FE01EC01F9CFCE0102962881D2
S11316B03981820F931F20915B0230915C022817BD
S11316C0390769F4309729F410925E0210925D0292
S11316D002C013821282D0935C02C0935B02DF913A
S11316E0CF910895FC010590615070400110D8F726
S11316F0809590958E0F9F1F0895DC0101C06D9316
S113170041505040E0F70895FC0161507040019051
S11317100110D8F7809590958E0F9F1F08950F9311
S11317201F93CF93DF93182F092FEB018B8181FD3A
S113173003C08FEF9FEF20C082FF10C04E815F81F6
S11317402C813D81421753077CF4E881F9819F0184
S11317502F5F3F4F39832883108306C0E885F985BE
S1131760812F0995892B29F72E813F812F5F3F4FC8
S11317703F832E83812F902FDF91CF911F910F9163
S11317800895FA01AA27283051F1203181F1E89413
S11317906F936E7F6E5F7F4F8F4F9F4FAF4FB1E060
S11317A03ED0B4E03CD0670F781F891F9A1FA11D5B
S11317B0680F791F8A1F911DA11D6A0F711D811D5C
S11317C0911DA11D20D009F468943F912AE0269F21
S11317D011243019305D3193DEF6CF010895462F80
S11317E04770405D4193B3E00FD0C9F7F6CF462F61
S11317F04F70405D4A3318F0495D31FD40524193CA
S113180002D0A9F7EACFB4E0A69597958795779586
S11318106795BA95C9F700976105710508959B010D
S1131820AC010A2E06945795479537952795BA9596
S1131830C9F7620F731F841F951FA01D08952F926F
S11318403F924F925F926F927F928F929F92AF924C
S1131850BF92CF92DF92EF92FF920F931F93CF9399
S1131860DF93CDB7DEB7CA1BDB0B0FB6F894DEBF30
S11318700FBECDBF09942A88398848885F846E8456
S11318807D848C849B84AA84B984C884DF80EE80A0
S1131890FD800C811B81AA81B981CE0FD11D0FB6A9
S11318A0F894DEBF0FBECDBFED010895F894FFCFCD
S11318B000005F02200041746D656761313632209B
S11318C0737461727400616C6976650025692C20FB
S11318D00A004261636B20202020203E2048696773
S11318E06873636F7265203C200A0025690A002032
S11318F0202020202020203E204D61696E206D652F
S11319006E75203C200A00506C61792050696E6726
S11319102D506F6E672067616D65200A486967689E
S113192073636F726573200A447261772061206467
S11319306F6F646C65200A00202020202020202066
S1131940203E2044726177696E6720626F61726421
S1131950203C200A002020202020202020203E207F
S1131960496E2D67616D65203C200A000A4375723B
S113197072656E742073636F72653A200A0025697C
S1131980002020202020202020203E20496E2D678A
S1131990616D65203C200A0A43757272656E74207D
S10B19A073636F72653A2000C5
S9030000FC
